:100000000C942A000C9447000C9447000C94470071
:100010000C9447000C9447000C9447000C94470044
:100020000C9447000C9447000C9447000C94470034
:100030000C9447000C9447000C9447000C94470024
:100040000C9447000C9447000C9447000C94470014
:100050000C94470011241FBECFE5D8E0DEBFCDBF12
:1000600011E0A0E6B0E0EAECFEE002C005900D92DF
:10007000A034B107D9F721E0A0E4B1E001C01D929E
:10008000A134B207E1F70E9498010C9463070C9425
:10009000000087B3866C87BB87B38E7F87BB88B32E
:1000A000816088BB84B38C6F84BB089596B381E074
:1000B00089278170089580E487B987E886B9089513
:1000C00097B1907E8770892B87B986B1806486B995
:1000D0003699FECF84B195B10895A0E0B0E0880FC5
:1000E000991FAA1FBB1F880F991FAA1FBB1F9C0126
:1000F000AD01220F331F441F551F220F331F441F12
:10010000551F60E072E18AE790E00E9449042150A7
:10011000310930BD29B988E18AB986E880BD0895E2
:100120005D9BFECF8CB90895CF93DF93EC0103C0A4
:1001300021960E94900088818111FACFDF91CF91A2
:10014000089580E00E946000BC0180E090E00E9481
:10015000250320E030E04AEF53E40E94900320E0C2
:1001600030E040E85AE30E949003089581E00E9445
:100170006000089588B3806488BB88B3897F88BB9A
:10018000089588B3846088BB88B38D7B88BB08954D
:1001900088B3826088BB88B38B7B88BB089588B3A3
:1001A000806888BB089588B38F7788BB089585B32E
:1001B000886085BB82E08A95F1F700C085B3877FB0
:1001C00085BB87EC90E00197F1F700C0000008952F
:1001D000662321F095B3946095BB03C095B39B7FD4
:1001E00095BB84FF04C095B3906195BB03C095B3E4
:1001F0009F7E95BB85FF04C095B3906295BB03C0FD
:1002000095B39F7D95BB86FF04C095B3906495BB65
:1002100003C095B39F7B95BB882324F485B3806886
:1002200085BB03C085B38F7785BB0E94D700089537
:10023000CF93DF93C82FD62F807F0E94E8006D2FC9
:100240008C2F8295807F0E94E800DF91CF910895E6
:1002500060E00E9418010895811103C080E8860FB4
:1002600002C080EC860F0E942801089561E00E9480
:1002700018010895CF93DF93EC0103C021960E94EB
:10028000360188818111FACFDF91CF9108952FE750
:1002900088E391E0215080409040E1F700C00000E9
:1002A00060E080E30E94E8008FE097E20197F1F7B9
:1002B00000C0000060E080E30E94E8008BE291E073
:1002C0000197F1F700C0000060E080E30E94E800C1
:1002D0008BE291E00197F1F700C0000060E080E25E
:1002E0000E94E8008BE291E00197F1F700C0000066
:1002F00088E20E94280188E00E94280181E00E9493
:1003000028018FE99FE00197F1F700C0000086E027
:100310000E9428018CE00E942801089581E00E943B
:1003200028018FE99FE00197F1F700C000000895D0
:10033000CF93DF93CDB7DEB7E9970FB6F894DEBF62
:100340000FBECDBF0E9449000E945B0080E895E28D
:100350000E946D000E94470180E890E00E94940096
:100360000E948E0160E080E00E942C0181E990E013
:100370000E943A012FEF89E698E121508040904099
:10038000E1F700C00000C12CD12C612C10E00E94CC
:10039000A1004B015C010E94B6007C0120E030E02E
:1003A00040E752E4C501B4010E948B0388233CF46A
:1003B0002CEBE21622E0F20620F081E003C081E09F
:1003C00001C080E0082F20E030E040E252E4C501A7
:1003D000B4010E948B0388233CF48CE2E81681E090
:1003E000F80620F081E003C081E001C080E0782EB3
:1003F0001130C1F030F0123009F449C01330F1F07F
:1004000049C0002339F081EA90E00E949400612CF9
:1004100012E040C08823F1F18EEA90E00E9494003F
:1004200011E038C0002339F081EA90E00E94940086
:10043000612C12E02FC0882361F12CC00E9456006D
:10044000882341F19FE728E381E0915020408040DC
:10045000E1F700C000000E9456008823D9F0611027
:1004600007C080EC90E00E949400662463940AC068
:10047000011108C0711006C084ED90E00E94940044
:10048000612C10E00E9456008111FCCF03C013E0E4
:1004900001C010E0113059F028F0123069F013302B
:1004A00081F025C00E94BA000E94D30020C00E94A3
:1004B000C1000E94D3001BC00E94C8000E94CF0050
:1004C00016C09FEFC91AD90AC0FC04C088B3826065
:1004D00088BB03C088B38D7F88BB88B38B7B88BB08
:1004E000662019F00E94D30002C00E94CF0060E095
:1004F00080E00E942C01C501B4010E94EF02062F8A
:10050000972EFF92EF927F936F9383EE90E09F93ED
:100510008F931F9281E18F93CE0101965C019F938F
:100520008F930E946B04C5010E943A0160E081E054
:100530000E942C010FB6F894DEBF0FBECDBF113064
:1005400059F028F0123069F0133081F018C081EFB3
:1005500090E00E943A0113C082E091E00E943A01CB
:100560000EC083E191E00E943A0109C0662019F0B3
:1005700080E690E002C080E790E00E943A0180911E
:1005800040018F5F809340018A30F8F01092400163
:100590001F921F93FF92EF929F920F9384E291E03C
:1005A0009F938F931F9288E28F937E0192E1E90ED1
:1005B000F11CFF92EF920E946B04C7010E9494000D
:1005C0000FB6F894DEBF0FBECDBF9FEF20E782E0ED
:1005D000915020408040E1F700C00000D8CE0E943A
:1005E000F6026894B1110C94850308950E946A0381
:1005F00088F09F5798F0B92F9927B751B0F0E1F0E4
:10060000660F771F881F991F1AF0BA95C9F714C093
:10061000B13091F00E948403B1E008950C948403FA
:10062000672F782F8827B85F39F0B93FCCF38695CC
:1006300077956795B395D9F73EF490958095709529
:1006400061957F4F8F4F9F4F0895E89409C097FBA6
:100650003EF490958095709561957F4F8F4F9F4F99
:100660009923A9F0F92F96E9BB279395F6958795DD
:1006700077956795B795F111F8CFFAF4BB0F11F4A0
:1006800060FF1BC06F5F7F4F8F4F9F4F16C0882347
:1006900011F096E911C0772321F09EE8872F762F7D
:1006A00005C0662371F096E8862F70E060E02AF0BE
:1006B0009A95660F771F881FDAF7880F96958795AA
:1006C00097F9089557FD9058440F551F59F05F3F13
:1006D00071F04795880F97FB991F61F09F3F79F064
:1006E00087950895121613061406551FF2CF4695E6
:1006F000F1DF08C0161617061806991FF1CF869568
:100700007105610508940895E894BB27662777274B
:10071000CB0197F908950E94FD0308F48FEF089527
:100720000E94A3030C9438040E942A0438F00E940B
:10073000310420F0952311F00C9421040C9427042B
:1007400011240C9485030E94620370F3959FC1F3FA
:10075000950F50E0551F629FF001729FBB27F00D6F
:10076000B11D639FAA27F00DB11DAA1F649F6627C4
:10077000B00DA11D661F829F2227B00DA11D621F13
:10078000739FB00DA11D621F839FA00D611D221FCD
:10079000749F3327A00D611D231F849F600D211DB1
:1007A000822F762F6A2F11249F5750409AF0F1F034
:1007B00088234AF0EE0FFF1FBB1F661F771F881F9D
:1007C00091505040A9F79E3F510580F00C942104B0
:1007D0000C9485035F3FE4F3983ED4F386957795B8
:1007E0006795B795F795E7959F5FC1F7FE2B880F43
:1007F000911D9695879597F90895990F0008550FC3
:10080000AA0BE0E8FEEF16161706E807F907C0F096
:1008100012161306E407F50798F0621B730B840B9E
:10082000950B39F40A2661F0232B242B252B21F478
:1008300008950A2609F4A140A6958FEF811D811D18
:10084000089597F99F6780E870E060E008959FEF52
:1008500080EC089500240A94161617061806090657
:10086000089500240A941216130614060506089526
:10087000092E0394000C11F4882352F0BB0F40F4AE
:10088000BF2B11F460FF04C06F5F7F4F8F4F9F4FEE
:100890000895A1E21A2EAA1BBB1BFD010DC0AA1FC1
:1008A000BB1FEE1FFF1FA217B307E407F50720F0D9
:1008B000A21BB30BE40BF50B661F771F881F991F54
:1008C0001A9469F760957095809590959B01AC019D
:1008D000BD01CF010895AEE0B0E0E1E7F4E00C9493
:1008E0003A070D891E898F89988D26E02C831A83FB
:1008F000098397FF02C080E090E801979E838D8373
:10090000AE01455E5F4F698D7A8DCE0101960E94E2
:100910009B044D815E8157FD0AC02F8138854217A7
:1009200053070CF49A01F801E20FF31F10822E9680
:10093000E4E00C945607ABE0B0E0E1EAF4E00C949C
:100940002C076C017B018A01FC01178216828381CE
:1009500081FFCCC1CE0101963C01F6019381F701E4
:1009600093FD859193FF81917F01882309F4BAC19A
:10097000853239F493FD859193FF81917F01853212
:1009800029F4B60190E00E949206E7CF912C212C29
:10099000312CFFE1F315D8F08B3279F038F4803246
:1009A00079F08332A1F4232D20611DC08D3261F0D6
:1009B000803369F4232D216016C0832D8260382E88
:1009C000E32DE4603E2E2AC0F32DF8601DC037FCF5
:1009D0002DC020ED280F2A3040F08E32B9F436FCBD
:1009E00081C1232D2064322E19C036FE06C08AE054
:1009F000989E200D1124922E11C0EAE02E9E200D0B
:100A00001124222EF32DF0623F2E08C08C3621F4E3
:100A1000832D8068382E02C0883641F4F70193FD9B
:100A2000859193FF81917F018111B3CF982F9F7D95
:100A30009554933028F40C5F1F4F9FE399830DC0AA
:100A4000833631F0833771F0833509F059C021C006
:100A5000F801808189830E5F1F4F88248394912C35
:100A6000530113C02801F2E04F0E511CF801A08081
:100A7000B18036FE03C0692D70E002C06FEF7FEFDA
:100A8000C5010E9487064C018201F32DFF773F2E9E
:100A900016C0280122E0420E511CF801A080B1804E
:100AA00036FE03C0692D70E002C06FEF7FEFC50115
:100AB0000E947C064C01F32DF0683F2E820133FC2E
:100AC0001BC0822D90E088169906B0F4B60180E232
:100AD00090E00E9492062A94F4CFF50137FC8591AC
:100AE00037FE81915F01B60190E00E9492062110CD
:100AF0002A9421E0821A91088114910471F7E8C0C8
:100B0000843611F0893641F5F80137FE07C060815F
:100B10007181828193810C5F1F4F08C06081718158
:100B2000072E000C880B990B0E5F1F4FF32DFF76DD
:100B30003F2E97FF09C090958095709561957F4FE6
:100B40008F4F9F4FF0683F2E2AE030E0A3010E94B4
:100B5000CE06882E861845C0853731F4232D2F7E8A
:100B6000B22E2AE030E025C0932D997FB92E8F3622
:100B7000C1F018F4883579F0B5C0803719F088379E
:100B800021F0B0C0E92FE061BE2EB4FE0DC0FB2DF8
:100B9000F460BF2E09C034FE0AC0292F2660B22E91
:100BA00006C028E030E005C020E130E002C020E1CE
:100BB00032E0F801B7FE07C06081718182819381C4
:100BC0000C5F1F4F06C06081718180E090E00E5F76
:100BD0001F4FA3010E94CE06882E8618FB2DFF779B
:100BE0003F2E36FE0DC0232D2E7FA22E891458F4E1
:100BF00034FE0BC032FC09C0832D8E7EA82E05C0AA
:100C0000B82CA32C03C0B82C01C0B92CA4FE0FC073
:100C1000FE01E80DF11D8081803321F49A2D997E2B
:100C2000A92E09C0A2FE06C0B394B39404C08A2DB5
:100C3000867809F0B394A3FC11C0A0FE06C0B214DC
:100C400088F4280C922C9B180EC0B21460F4B601E4
:100C500080E290E00E949206B394F7CFB21418F4A9
:100C60002B1802C0982C212CA4FE10C0B60180E3E2
:100C700090E00E949206A2FE17C0A1FC03C088E784
:100C800090E002C088E590E0B6010CC08A2D86781D
:100C900059F0A1FE02C08BE201C080E2A7FC8DE208
:100CA000B60190E00E949206891438F4B60180E300
:100CB00090E00E9492069A94F7CF8A94F301E80D8F
:100CC000F11D8081B60190E00E9492068110F5CF5F
:100CD000222009F442CEB60180E290E00E94920602
:100CE0002A94F6CFF6018681978102C08FEF9FEF9D
:100CF0002B96E2E10C944807FC010590615070408E
:100D00000110D8F7809590958E0F9F1F0895FC01D4
:100D10006150704001900110D8F7809590958E0F2A
:100D20009F1F08950F931F93CF93DF93FB012381A0
:100D300021FD03C08FEF9FEF2CC022FF16C046811C
:100D40005781248135814217530744F4A081B18132
:100D50009D012F5F3F4F318320838C932681378104
:100D60002F5F3F4F3783268314C08B01EC01FB01BB
:100D70000084F185E02D0995892BE1F6D8011696BE
:100D80008D919C911797019617969C938E93169729
:100D9000CE01DF91CF911F910F910895FA01AA27FB
:100DA000283051F1203181F1E8946F936E7F6E5FAE
:100DB0007F4F8F4F9F4FAF4FB1E03ED0B4E03CD05C
:100DC000670F781F891F9A1FA11D680F791F8A1F3F
:100DD000911DA11D6A0F711D811D911DA11D20D0A6
:100DE00009F468943F912AE0269F11243019305D60
:100DF0003193DEF6CF010895462F4770405D419351
:100E0000B3E00FD0C9F7F6CF462F4F70405D4A339D
:100E100018F0495D31FD4052419302D0A9F7EACF65
:100E2000B4E0A6959795879577956795BA95C9F794
:100E300000976105710508959B01AC010A2E069487
:100E40005795479537952795BA95C9F7620F731F40
:100E5000841F951FA01D08952F923F924F925F927D
:100E60006F927F928F929F92AF92BF92CF92DF92BA
:100E7000EF92FF920F931F93CF93DF93CDB7DEB71F
:100E8000CA1BDB0B0FB6F894DEBF0FBECDBF0994B3
:100E90002A88398848885F846E847D848C849B840A
:100EA000AA84B984C884DF80EE80FD800C811B8118
:100EB000AA81B981CE0FD11D0FB6F894DEBF0FBE47
:0A0EC000CDBFED010895F894FFCFB7
:100ECA00454D455247454E43592D41434B454400F4
:100EDA00454D455247454E435921212120202000A6
:100EEA0053595354454D20535441525445440D0AC5
:100EFA000053797374656D205374617274696E67F7
:100F0A00004649524520414C41524D0D0A00574175
:100F1A00524E494E47204C4556454C20310D0A0049
:100F2A00555345522041434B4E4F574C4544474534
:100F3A00440D0A0053595354454D205245534554C4
:100F4A000D0A00543A253264204320533A2534646A
:100F5A00005374617475733A204E4F524D414C20C0
:100F6A0020005374617475733A205741524E494EAA
:100F7A004720005374617475733A204649524521DB
:100F8A002020200054656D703A256420536D6F6BE4
:100F9A00653A25642053746174653A25640D0A0024
:00000001FF
