:100000000C942A000C9447000C9447000C94470071
:100010000C9447000C9447000C9447000C94470044
:100020000C9447000C9447000C947F060C94A60691
:100030000C9447000C9447000C9447000C94470024
:100040000C9447000C9447000C9447000C94470014
:100050000C94470011241FBECFE5D8E0DEBFCDBF12
:1000600010E0A0E6B0E0E0E0FEE002C005900D92F6
:10007000A238B107D9F720E0A2E8B0E001C01D9294
:10008000A439B207E1F70E9449000C94FE060C94D3
:1000900000000E94D0000E9456000E94640064E6A6
:1000A00070E080E00E946906FFCF08950E94380644
:1000B0006091600070916100809162000E94400632
:1000C00082E00E945A0608958091820090918300F8
:1000D000A0918400B09185000196A11DB11D80936F
:1000E000820090938300A0938400B093850080FFEA
:1000F00025C060918200709183008091840090916E
:10010000850025E030E040E050E00E94DC06672BEF
:10011000682B692BE9F060918200709183008091D7
:1001200084009091850024E130E040E050E00E949E
:10013000DC06672B682B692B31F108950E94AE0312
:10014000E6E8F0E080830E94D80380938700D1CF57
:1001500060E083E690E00E94BD0260E0E6E8F0E047
:1001600080810E94EA0240E060E081E00E94DD02BE
:1001700060E08BE690E00E94BD0260E08091870025
:100180000E94EA02C8CF80EB0E94650610928200AE
:1001900010928300109284001092850008950895B3
:1001A0000E94320380E00E942E020E94CC030E9433
:1001B000A2030E94F8000E940D01EBE8F0E010821B
:1001C000128211821382148260E084E790E00E9420
:1001D000BD022FEF83ED90E3215080409040E1F786
:1001E00000C0000060E081E00E94AF010895089522
:1001F00040E060E081E00E94410441E060E081E095
:100200000E94BF04089560E081E00E943D058111D5
:1002100002C081E0089580E0089541E067E081E058
:100220000E94410440E067E081E00E94BF0408951D
:1002300041E067E081E00E94BF04089540E067E08C
:1002400081E00E94BF04089567E081E00E943D05BF
:1002500041E0811140E067E081E00E94BF04089521
:10026000CF93C82F613020F009F45FC0CF9108957B
:1002700041E062E082E00E94BF04C4FB442740F9F1
:1002800064E082E00E94BF04C5FB442740F965E0BA
:1002900082E00E94BF04C6FB442740F966E082E08A
:1002A0000E94BF04C7FB442740F967E082E00E9438
:1002B000BF0441E063E082E00E94BF048FEC97E05E
:1002C0000197F1F700C0000040E063E082E00E9487
:1002D000BF044C2F417064E082E00E94BF04C1FB68
:1002E000442740F965E082E00E94BF04C2FB442736
:1002F00040F966E082E00E94BF04C3FB442740F956
:1003000067E082E00E94BF0441E063E082E00E9477
:10031000BF048FEC97E00197F1F700C0000040E0C8
:1003200063E082E00E94BF04A1CF41E062E082E08E
:100330000E94BF046C2F82E00E94890541E063E0C7
:1003400082E00E94BF048FEC97E00197F1F700C0B4
:10035000000040E063E082E00E94BF0487CFCF93BB
:10036000C82F613020F009F45FC0CF91089540E0BC
:1003700062E082E00E94BF04C4FB442740F964E0CD
:1003800082E00E94BF04C5FB442740F965E082E09B
:100390000E94BF04C6FB442740F966E082E00E9449
:1003A000BF04C7FB442740F967E082E00E94BF0416
:1003B00041E063E082E00E94BF048FEC97E0019788
:1003C000F1F700C0000040E063E082E00E94BF045B
:1003D0004C2F417064E082E00E94BF04C1FB4427BF
:1003E00040F965E082E00E94BF04C2FB442740F967
:1003F00066E082E00E94BF04C3FB442740F967E047
:1004000082E00E94BF0441E063E082E00E94BF04FA
:100410008FEC97E00197F1F700C0000040E063E047
:1004200082E00E94BF04A1CF40E062E082E00E942F
:10043000BF046C2F82E00E94890541E063E082E006
:100440000E94BF048FEC97E00197F1F700C0000015
:1004500040E063E082E00E94BF0487CF813018F063
:1004600009F44BC0089560EF82E00E94750541E0F9
:1004700062E082E00E94410441E063E082E00E9489
:1004800041042FEB8AED90E0215080409040E1F74D
:1004900000C0000060E082E00E94AF018FE99FE0B1
:1004A0000197F1F700C0000060E088E20E94AF0110
:1004B0008FEC97E00197F1F700C0000060E08CE05E
:1004C0000E94AF018FEC97E00197F1F700C00000A8
:1004D00060E081E00E94AF018FE99FE00197F1F7B2
:1004E00000C0000060E086E00E94AF018FEC97E062
:1004F0000197F1F700C0000008956FEF82E00E94BD
:10050000750541E062E082E00E94410441E063E061
:1005100082E00E9441049FEB2AED80E09150204050
:100520008040E1F700C0000061E088E30E94AF0175
:100530008FEC97E00197F1F700C0000061E08EE0DA
:100540000E94AF018FEC97E00197F1F700C0000027
:1005500061E081E00E94AF018FE99FE00197F1F730
:1005600000C0000061E086E00E94AF018FEC97E0E0
:100570000197F1F700C0000008950F931F93CF93E8
:10058000DF9300D0CDB7DEB7082F192F69831A8209
:1005900006C069810E9430018A818F5F8A83F801D9
:1005A0008A81E80FF11D80818111F3CF0F900F90A8
:1005B000DF91CF911F910F910895982F862F642F6F
:1005C000913010F029F4805C80680E94AF0108959A
:1005D00080E0FACF1F93CF93DF93CDB7DEB72B9791
:1005E0000FB6F894DEBF0FBECDBF6B87811511F03B
:1005F00010E01BC080E30E9430012AC09DEC899F5F
:10060000912D1124969596959695292F220F220FBC
:10061000290F220F821B805DE1E0F0E0EC0FFD1F4F
:10062000E10FF11D8083892F1F5F8111E7CF1150EA
:100630000DC0E1E0F0E0EC0FFD1FE10FF11D17FD33
:10064000FA956B8580810E943001115011158CF74D
:100650002B960FB6F894DEBF0FBECDBFDF91CF91C2
:100660001F91089541E066E081E00E94410441E06D
:1006700062E081E00E94410441E061E081E00E948B
:10068000410408958230F1F198F4813058F109F075
:1006900049C040E066E00E94BF0441E062E081E0C2
:1006A0000E94BF0440E061E081E00E94BF04089521
:1006B0008330C1F540E066E081E00E94BF0440E085
:1006C00062E081E00E94BF0488B392E0892788BB82
:1006D0002FEF84E39CE0215080409040E1F700C080
:1006E0000000089541E066E081E00E94BF0440E020
:1006F00062E081E00E94BF0440E061E081E00E948E
:10070000BF04089540E066E081E00E94BF0440E03D
:1007100062E081E00E94BF0441E061E081E00E946C
:10072000BF04089540E066E081E00E94BF0440E01D
:1007300062E081E00E94BF0440E061E081E00E944D
:10074000BF04089540E060E080E00E94410481E041
:100750000E94150480E00E94F903089580E00E9441
:10076000050480E00E940A040E9436049C01A8E867
:10077000B3E10E94CD06052E5AE0969587957795B0
:1007800067955A95D1F7502D2AE030E040E050E0CF
:100790000E94DC06822F089540E061E080E00E9424
:1007A000410481E00E94150480E00E94F90308954D
:1007B00081E00E94050480E00E940A040E94360441
:1007C0009C01A8E8B3E10E94CD06DC01CB01072E15
:1007D0007AE0B695A795979587957A95D1F7702D7C
:1007E000089586B1806886B9089586B18F7786B9F5
:1007F0000895813020F487B18F7D87B9089509F07D
:10080000089587B1806287B9089597B1907E892B4A
:1008100087B90895811103C086B1806486B90895AF
:1008200096B1987F892B86B90895813089F08230FE
:10083000B1F0811106C087B18F7B87B987B18F77FF
:1008400087B986E00E94100486B1806886B9089551
:1008500087B1806487B987B18F7787B9F2CF87B1C5
:10086000806487B987B1806887B9EBCF86B180642F
:1008700086B9349BFECF86B1806186B984B195B1CB
:1008800008958430E8F46830D8F44130C0F4411160
:1008900017C0823009F467C008F04AC0813008F4FC
:1008A00056C009F044C027B381E090E002C0880F31
:1008B000991F6A95E2F78095822387BB089509F016
:1008C0000895823049F178F48130D8F059F487B333
:1008D00021E030E002C0220F331F6A95E2F7822B3D
:1008E00087BB08950895833059F481B321E030E047
:1008F00002C0220F331F6A95E2F7822B81BB089555
:1009000008958AB321E030E002C0220F331F6A95B8
:10091000E2F7822B8ABB089584B321E030E002C065
:10092000220F331F6A95E2F7822B84BB0895089546
:10093000833061F421B381E090E002C0880F991FF9
:100940006A95E2F78095822381BB089508952AB3C2
:1009500081E090E002C0880F991F6A95E2F78095C8
:1009600082238ABB089524B381E090E002C0880FFF
:10097000991F6A95E2F78095822384BB089584309D
:10098000E8F46830D8F44130C0F4411117C0823027
:1009900009F467C008F04AC0813008F456C009F075
:1009A00044C028B381E090E002C0880F991F6A9587
:1009B000E2F78095822388BB089509F0089582307C
:1009C00049F178F48130D8F059F488B321E030E06F
:1009D00002C0220F331F6A95E2F7822B88BB08956D
:1009E0000895833059F482B321E030E002C0220F31
:1009F000331F6A95E2F7822B82BB089508958BB36B
:100A000021E030E002C0220F331F6A95E2F7822B0B
:100A10008BBB089585B321E030E002C0220F331F65
:100A20006A95E2F7822B85BB08950895833061F4BF
:100A300022B381E090E002C0880F991F6A95E2F727
:100A40008095822382BB089508952BB381E090E0C6
:100A500002C0880F991F6A95E2F7809582238BBBAD
:100A6000089525B381E090E002C0880F991F6A9530
:100A7000E2F78095822385BB0895843090F5683035
:100A800090F5823029F170F48130C8F049F486B3D2
:100A900090E002C0959587956A95E2F78170089578
:100AA00080E00895833049F480B390E002C09595CA
:100AB00087956A95E2F78170089580E0089589B37B
:100AC00090E002C0959587956A95E2F78170089548
:100AD00083B390E002C0959587956A95E2F781709F
:100AE000089580E0089580E00895843060F48230B5
:100AF00071F030F4813048F011F467BB0895089527
:100B0000833011F461BB089508956ABB089564BBF6
:100B10000895843060F4823071F030F4813048F010
:100B200011F468BB08950895833011F462BB0895F1
:100B300008956BBB089565BB08958430A0F482309E
:100B400081F038F4813058F011F486B3089580E0D4
:100B50000895833011F480B3089580E0089589B337
:100B6000089583B3089580E00895833031F0843090
:100B700041F1853009F449C00895643069F0653069
:100B800091F06630B9F06730B9F785B7816085BFFD
:100B900085B7826085BF089585B78E7F85BF85B78D
:100BA0008D7F85BF089585B7816085BF85B78D7FAF
:100BB00085BF089585B78E7F85BF85B7826085BF65
:100BC0000895643069F0653091F06630B9F06730AF
:100BD00099F685B7846085BF85B7886085BF08951D
:100BE00085B78B7F85BF85B7877F85BF089585B71C
:100BF000846085BF85B7877F85BF089585B78B7F64
:100C000085BF85B7886085BF0895663039F0673045
:100C100009F0B2CF84B7806484BF089584B78F7B16
:100C200084BF0895833029F0843039F0853049F04D
:100C300008958BB780648BBF08958BB780688BBF96
:100C400008958BB780628BBF0895833029F084307C
:100C500039F0853049F008958BB78F7B8BBF0895AD
:100C60008BB78F778BBF08958BB78F7D8BBF089520
:100C70008FB780688FBF08958FB78F778FBF089524
:100C8000613058F483B78F7B83BF83B7877F83BF7F
:100C900072BF89B7816089BF089509F0089593B73D
:100CA0009F7B93BF93B7986093BF8CBF89B78260D7
:100CB00089BF0895811521F093B7987F892B83BF51
:100CC000089583B7887F83BF089582BF08958CBF3E
:100CD0000895262F372F813040F42115310531F04A
:100CE0003093930020939200089509F00895211500
:100CF0003105E1F3309391002093900008951F9205
:100D00000F920FB60F9211242F933F934F935F933F
:100D10006F937F938F939F93AF93BF93EF93FF93C3
:100D2000E0919000F09191000995FF91EF91BF91B2
:100D3000AF919F918F917F916F915F914F913F9173
:100D40002F910F900FBE0F901F9018951F920F922A
:100D50000FB60F9211242F933F934F935F936F938E
:100D60007F938F939F93AF93BF93EF93FF93E09104
:100D70009200F09193000995FF91EF91BF91AF918F
:100D80009F918F917F916F915F914F913F912F91A3
:100D90000F900FBE0F901F901895A29FB001B39FA8
:100DA000C001A39F700D811D1124911DB29F700D74
:100DB000811D1124911D0895A1E21A2EAA1BBB1BAF
:100DC000FD010DC0AA1FBB1FEE1FFF1FA217B30717
:100DD000E407F50720F0A21BB30BE40BF50B661F2D
:100DE000771F881F991F1A9469F7609570958095F1
:100DF00090959B01AC01BD01CF010895F894FFCF00
:100E000000B00074656D70203A2000736D6F6B65E3
:100E1000203A20005359533A696E697420646F6E0A
:020E200065006B
:00000001FF
