:100000000C942A000C941B080C9447000C94470095
:100010000C9447000C9447000C9447000C94470044
:100020000C9447000C9447000C9489080C94B20877
:100030000C9447000C9447000C9447000C94470024
:100040000C9447000C9447000C9447000C94470014
:100050000C94470011241FBECFE5D8E0DEBFCDBF12
:1000600011E0A0E6B0E0EAE2F5E102C005900D92F1
:10007000A039B107D9F721E0A0E9B1E001C01D9294
:10008000A83AB207E1F70E945D0A0C94930A0C9417
:100090000000CF93DF9300D0CDB7DEB783E00E949E
:1000A000E6050E943C0360E081E00E94150460E0E8
:1000B0008DE690E00E94210580E00E943202898353
:1000C00081E00E9432028A830E942D018981873457
:1000D00040F48A81893C28F40F900F90DF91CF91F2
:1000E000089583E00F900F90DF91CF910895CF9303
:1000F000DF930F92CDB7DEB780E00E943202898392
:1001000081E00E9432029981963470F4883C60F458
:100110000E94210182E00E94E6050E94320381E0F4
:100120000F90DF91CF9108950F90DF91CF910C94B4
:100130004900CF93DF930F92CDB7DEB780E00E94E6
:100140003202898381E00E94320299819D3270F4EB
:10015000863460F40E94190180E00E94E6050E9446
:10016000370380E00F90DF91CF9108950F90DF91DA
:10017000CF910C94BB00CF93DF930F92CDB7DEB736
:1001800080E00E943202898381E00E9432029981DC
:100190009C3370F4823860F40E941D0181E00E945B
:1001A000E6050E94370381E00F90DF91CF9108951B
:1001B0000F90DF91CF910C9477000F931F930091D4
:1001C00060001091610020916200309163004091C5
:1001D00064005091650060916600709167008091A5
:1001E0006800909169000E94DB088BE790E00E9414
:1001F000A80980E990E01F910F910C94A80983EA67
:1002000090E00E94A80980E00E9432020E94010A48
:100210008FEE90E00E94A8098CEA90E00E94A80965
:1002200081E00E9432020E94010A8FEE90E00C945D
:10023000A80985EB90E00C94A80987EC90E00C9459
:10024000A80981ED90E00C94A8098EED90E00C9443
:10025000A80982EF90E00C94A80981E091E00C9449
:10026000A809CF93DF9300D000D0CDB7DEB780913F
:10027000900190919101A0919201B091930101960A
:10028000A11DB11D8093900190939101A0939201C3
:10029000B093930180FF3FC020919501233049F135
:1002A00089839A83AB83BC8369817A818B819C81AA
:1002B00025E030E040E050E00E94710A672B682B97
:1002C000692B09F464C069817A818B819C8124E166
:1002D00030E040E050E00E94710A672B682B692BE8
:1002E00009F483C00F900F900F900F90DF91CF9182
:1002F000089580919401813009F48FC0809190011C
:1003000090919101A0919201B091930189839A8378
:10031000AB83BC83D8CF0E941F038093940180914C
:100320009501833031F38091900190919101A091DA
:100330009201B091930189839A83AB83BC8380FD42
:10034000B3CF0E943806809397010E946206809383
:1003500096018091900190919101A0919201B091AC
:10036000930189839A83AB83BC83BC01CD0125E0D3
:1003700030E040E050E00E94710A672B682B692B47
:1003800009F0A1CF80919501833009F49CCF40E022
:1003900068E080E00E94430560E08DE091E00E940B
:1003A000210540E068E080E00E94430560E0809124
:1003B00097010E947B0540E068E081E00E944305D0
:1003C00060E08DE091E00E94210540E068E081E07E
:1003D0000E94430560E0809196010E947B0560E0E9
:1003E0008DE091E00E94210589CF0E9499008093C1
:1003F00095010E94FF0080EB0E947108109290010D
:100400001092910110929201109293010F900F900F
:100410000F900F90DF91CF9108950E9425011092C7
:1004200095010E944F020E942901809190019091B4
:100430009101A0919201B091930189839A83AB833A
:10044000BC8341CF60916A0070916B0080916C0019
:100450000E944C0882E00E94660861E371E080E03F
:100460000C947508813010F021F008958091970167
:10047000089580919601089560E081E00E9415043E
:1004800060E086E191E00E94210540E060E081E0CB
:100490000E94430560E080E291E00C94210560E059
:1004A00081E00E94150460E083EA90E00E9421054B
:1004B00040E060E081E00E94430560E08CEA90E06B
:1004C0000C94210560E081E00E94150460E081E366
:1004D00091E00E9421052FEF84E39CE021508040B1
:1004E0009040E1F700C0000060E081E00E94150448
:1004F00060E08FE391E00E94210580E00E94E60524
:100500002FEF84E39CE0215080409040E1F700C051
:10051000000060E081E00E94150460E08DE491E05D
:100520000E94210581E00E94E6052FEF84E39CE014
:10053000215080409040E1F700C0000060E081E081
:100540000E94150460E08CE591E00E94210582E0A4
:100550000E94E6052FEF84E39CE02150804090400C
:10056000E1F700C0000060E081E00E94150460E057
:1005700088E691E00E9421050E9432032FEF84E378
:100580009CE0215080409040E1F700C000000E94B4
:10059000370360E081E00E94150460E083E791E0AA
:1005A0000E9421052FEF84E39CE021508040904081
:1005B000E1F700C0000060E081E00C9415040E94A7
:1005C000D70580E00E9443040E9457060E942D0632
:1005D0000E9415030E9428030E94DD000E9422024F
:1005E00060E081E891E00E9421052FEF83ED90E328
:1005F000215080409040E1F700C000000E9462025C
:1006000060E081E00E94150460E083EA90E00E94CF
:10061000210540E060E081E00E94430560E08CEA53
:1006200090E00E9421050C94440840E060E081E0E5
:100630000E94B90641E060E081E00C94F40660E0BD
:1006400081E00E942F07982F81E0911180E00895AA
:1006500041E067E081E00E94B90640E067E081E0A8
:100660000C94F40641E067E081E00C94F40640E06D
:1006700067E081E00C94F40667E081E00E942F07B8
:1006800041E0811140E067E081E00C94F406CF93F3
:10069000C82F40E062E082E00E94F406C4FB4427D9
:1006A00040F964E082E00E94F406C5FB442740F96B
:1006B00065E082E00E94F406C6FB442740F966E04C
:1006C00082E00E94F406C7FB442740F967E082E01D
:1006D0000E94F40641E063E082E00E94F4068FECA1
:1006E00097E00197F1F700C0000040E063E082E08E
:1006F0000E94F4064C2F417064E082E00E94F406F0
:10070000C1FB442740F965E082E00E94F406C2FB89
:10071000442740F966E082E00E94F406C3FB4427C8
:1007200040F967E082E00E94F40641E063E082E085
:100730000E94F4068FEC97E00197F1F700C00000EB
:1007400040E063E082E0CF910C94F406CF93C82F91
:10075000613020F009F45FC0CF91089541E062E07C
:1007600082E00E94F406C4FB442740F964E082E082
:100770000E94F406C5FB442740F965E082E00E9430
:10078000F406C6FB442740F966E082E00E94F406C6
:10079000C7FB442740F967E082E00E94F40641E08D
:1007A00063E082E00E94F4068FEC97E00197F1F796
:1007B00000C0000040E063E082E00E94F4064C2F9D
:1007C000417064E082E00E94F406C1FB442740F9D6
:1007D00065E082E00E94F406C2FB442740F966E02F
:1007E00082E00E94F406C3FB442740F967E082E000
:1007F0000E94F40641E063E082E00E94F4068FEC80
:1008000097E00197F1F700C0000040E063E082E06C
:10081000CF910C94F40641E062E082E00E94F4067D
:100820006C2F82E00E946F07E5CFCF93DF930F928A
:10083000CDB7DEB78983613028F049F00F90DF91A2
:10084000CF9108950F90DF91CF910C94470340E032
:1008500062E082E00E94F406698182E00E946F07F4
:1008600041E063E082E00E94F4068FEC97E001979C
:10087000F1F700C0000040E063E082E00F90DF91FC
:10088000CF910C94F406813018F009F446C0089515
:1008900060EF82E00E945F0741E062E082E00E9438
:1008A000B90641E063E082E00E94B9062FEB8AEDD1
:1008B00090E0215080409040E1F700C0000082E0CD
:1008C0000E9447038FE99FE00197F1F700C0000005
:1008D00088E20E9447038FEC97E00197F1F700C090
:1008E00000008CE00E9447038FEC97E00197F1F73E
:1008F00000C0000081E00E9447038FE99FE001975C
:10090000F1F700C0000086E00E9447038FEC97E0FB
:100910000197F1F700C0000008956FEF82E00E9498
:100920005F0741E062E082E00E94B90641E063E0D7
:1009300082E00E94B9069FEB2AED80E091502040B2
:100940008040E1F700C0000040E062E082E00E94E9
:10095000F40668E382E00E946F0741E063E082E012
:100960000E94F4068FEC97E00197F1F700C00000B9
:1009700040E063E082E00E94F4068FEC97E001978C
:10098000F1F700C0000040E062E082E00E94F4065F
:100990006EE082E00E946F0741E063E082E00E9427
:1009A000F4068FEC97E00197F1F700C0000040E0FB
:1009B00063E082E00E94F4068FEC97E00197F1F784
:1009C00000C0000040E062E082E00E94F40661E0C6
:1009D00082E00E946F0741E063E082E00E94F4063B
:1009E0008FEC97E00197F1F700C0000040E063E072
:1009F00082E00E94F4068FE99FE00197F1F700C0C2
:100A0000000040E062E082E00E94F40666E082E0DE
:100A10000E946F0741E063E082E00E94F4068FECE1
:100A200097E00197F1F700C0000040E063E082E04A
:100A30000E94F4068FEC97E00197F1F700C00000E8
:100A400008950F931F93CF93DF9300D0CDB7DEB7F8
:100A50008C016983FC018081811571F01A826981A2
:100A60000E94A603FA81FF5FFA83F8018A81E80FEA
:100A7000F11D80818111F3CF0F900F90DF91CF9105
:100A80001F910F910895CF93DF930F92CDB7DEB7EB
:100A9000813060F051F080E88983413058F48981D9
:100AA0000F90DF91CF910C944703605C606869837D
:100AB0004130A8F321F00F90DF91CF91089540E0ED
:100AC00062E082E00E94F406698182E00E946F0782
:100AD00041E063E082E00E94F4068FEC97E001972A
:100AE000F1F700C0000040E063E082E00F90DF918A
:100AF000CF910C94F406EF92FF920F931F93CF9334
:100B0000DF93CDB7DEB72B970FB6F894DEBF0FBEDD
:100B1000CDBF6B878115E1F130E08E010F5F1F4F74
:100B20005DEC432F3F5FF801E40FF11D859F912D90
:100B30001124969596959695292F220F220F290F0D
:100B4000220F682F621B262F205D2083282F892FDC
:100B50002A3038F747FD0FC078018FEFE81AF80AFE
:100B6000E40EF11C6B85F70182917F010E94A603C0
:100B7000E016F106B9F72B960FB6F894DEBF0FBE5C
:100B8000CDBFDF91CF911F910F91FF90EF9008950E
:100B900080E32B960FB6F894DEBF0FBECDBFDF917A
:100BA000CF911F910F91FF90EF900C94A60341E01D
:100BB00066E081E00E94B90641E062E081E00E94C7
:100BC000B90641E061E081E00C94B9068230A1F100
:100BD00090F4811509F43FC040E066E081E00E9496
:100BE000F40641E062E081E00E94F40640E061E04A
:100BF00081E00C94F4068330C1F440E066E081E0CB
:100C00000E94F40640E062E081E00E94F40688B3AE
:100C100092E0892788BB2FEF84E39CE0215080403D
:100C20009040E1F700C00000089540E066E081E0F8
:100C30000E94F40640E0D6CF40E066E081E00E94EA
:100C4000F40640E062E081E00E94F40641E061E0E9
:100C500081E00C94F40641E0E9CF40E060E080E000
:100C60000E94B90681E00E94790680E00C949B0600
:100C700080E00E94A30680E00E94A8060E94B106C0
:100C80009C01A8E8B3E10E94620A672F782F892FA0
:100C900090E08695779567958695779567952AE094
:100CA00030E040E050E00E94710A822F089540E059
:100CB00061E080E00E94B90681E00E94790680E050
:100CC0000C949B0681E00E94A30680E00E94A80687
:100CD0000E94B1069C01A8E8B3E10E94620AA92F14
:100CE000982F872FA69597958795A6959795879581
:100CF00008958130A1F0823051F0811102C03E98F8
:100D00003F9886B1887F866086B9379A08953E9A63
:100D10003F9A86B1887F866086B9379A08953E9A51
:100D20003F9886B1887F866086B9379A0895379A4A
:100D3000089537980895813010F43D98089509F08A
:100D400008953D9A089597B1907E892B87B90895AB
:100D5000811101C0369A089596B1987F892B86B982
:100D60000895369A349BFECF349A84B125B1922FE0
:100D70000895843020F4683010F4423008F008956B
:100D800021E001C0220F6A95EAF7413079F0209501
:100D90008230B1F0833031F08130B1F08AB38223F8
:100DA0008ABB089581B3822381BB08958230C1F04C
:100DB000833091F0813061F08AB3822B8ABB089531
:100DC00084B3822384BB089587B3822387BB0895AD
:100DD00087B3822B87BB089581B3822B81BB089593
:100DE00084B3822B84BB0895843020F4683010F4DF
:100DF000423008F0089521E001C0220F6A95EAF719
:100E0000413079F020958230B1F0833031F081307B
:100E1000B1F08BB382238BBB089582B3822382BB54
:100E200008958230C1F0833091F0813061F08BB34E
:100E3000822B8BBB089585B3822385BB089588B32D
:100E4000822388BB089588B3822B88BB089582B320
:100E5000822B82BB089585B3822B85BB0895843095
:100E600088F4683078F4823009F18330B1F0813051
:100E700059F089B390E002C0959587956A95E2F79D
:100E80008170089580E0089586B390E002C0959542
:100E900087956A95E2F78170089580B390E002C06B
:100EA000959587956A95E2F78170089583B390E0F0
:100EB00002C0959587956A95E2F781700895843010
:100EC00048F4823051F0833021F0813021F06ABB48
:100ED000089561BB089567BB089564BB089584308D
:100EE00048F4823051F0833021F0813021F06BBB27
:100EF000089562BB089568BB089565BB089584306A
:100F000040F4823051F0833051F0813021F089B3C8
:100F1000089580E0089586B3089583B3089580B35B
:100F200008958330B1F0843019F0853009F10895C7
:100F3000643069F1653009F443C0663009F447C094
:100F40006730A9F785B7846085BF85B7886085BF9E
:100F50000895643019F1653099F0663031F16730E9
:100F600031F785B7816085BF85B7826085BF0895F9
:100F7000663011F16730D9F684B7806484BF089574
:100F800085B7816085BF85B78D7F85BF089585B79B
:100F90008B7F85BF85B7877F85BF089585B78E7F97
:100FA00085BF85B78D7F85BF089585B78E7F85BF47
:100FB00085B7826085BF089584B78F7B84BF08950D
:100FC00085B7846085BF85B7877F85BF089585B75E
:100FD0008B7F85BF85B7886085BF0895833049F0D2
:100FE000843019F0853049F008958BB780688BBF45
:100FF00008958BB780648BBF08958BB780628BBFD9
:101000000895833049F0843019F0853049F008950F
:101010008BB78F778BBF08958BB78F7B8BBF08956E
:101020008BB78F7D8BBF0895009721F08093980137
:101030009093990108951F920F920FB60F92112469
:101040002F933F934F935F936F937F938F939F93D0
:10105000AF93BF93EF93FF93E0919801F0919901C3
:10106000309709F00995FF91EF91BF91AF919F9152
:101070008F917F916F915F914F913F912F910F9041
:101080000FBE0F901F9018958FB780688FBF08957F
:101090008FB78F778FBF0895613058F483B78F7BF8
:1010A00083BF83B7877F83BF72BF89B7816089BFE2
:1010B000089509F0089593B79F7B93BF93B7986005
:1010C00093BF8CBF89B7826089BF0895811521F0D5
:1010D00093B7987F892B83BF089583B7887F83BF99
:1010E000089582BF08958CBF0895813040F4611542
:1010F000710531F060939C0170939D01089509F092
:10110000089561157105E1F360939A0170939B0155
:1011100008951F920F920FB60F9211242F933F93B1
:101120004F935F936F937F938F939F93AF93BF93EF
:10113000EF93FF93E0919A01F0919B01309709F0B2
:101140000995FF91EF91BF91AF919F918F917F9101
:101150006F915F914F913F912F910F900FBE0F9024
:101160001F9018951F920F920FB60F9211242F9374
:101170003F934F935F936F937F938F939F93AF931F
:10118000BF93EF93FF93E0919C01F0919D01309705
:1011900009F00995FF91EF91BF91AF919F918F91C8
:1011A0007F916F915F914F913F912F910F900FBE63
:1011B0000F901F9018950F931F93CF93DF93CDB788
:1011C000DEB72B970FB6F894DEBF0FBECDBF0B87EF
:1011D0000983B12F1A83F22F2B83E32F3C83A42F93
:1011E0004D835E836F8378878987192F9A874E8115
:1011F0005F816885798500939E01B0939F0120935C
:10120000A0013093A101A093A2014093A3015093A8
:10121000A4016093A5017093A6019093A70180ECAF
:10122000013009F080E8F13009F46AC0F23009F4C5
:1012300051C0B13009F452C0E13068F059F0E230E9
:1012400009F466C0E33009F460C0E43029F4866034
:10125000529A02C08260529880BDA13070F55998B0
:10126000440F551F661F771F440F551F661F771FBA
:101270009A01AB01220F331F441F551F220F331F4A
:10128000441F551F60E072E18AE790E00E94710AF6
:1012900021503109922F832F99B980BD1130A0F4CC
:1012A000549A53982B960FB6F894DEBF0FBECDBF5D
:1012B000DF91CF911F910F91089591F080E090E020
:1012C00099B980BD113060F3E9F0123059F7549AA2
:1012D000539AE8CF8063B13009F0AECF8860ACCFCD
:1012E000599A9A01AB01220F331F441F551F220F39
:1012F000331F441F551F220F331F441F551FC2CFDA
:10130000806297CF539A5498CDCF86605298A4CFDD
:1013100084605298A1CF9C015D9BFECF8091A1017A
:10132000843011F02CB90895509830FFFBCF509ABB
:101330002CB908955F9BFECF8091A10190E084308D
:1013400021F4882751998395982F2CB1822F0895E5
:10135000DC019C91911581F020E08091A1015D9BC1
:10136000FECF843009F450989CB92F5FFD01E20F45
:10137000F11D90819111F3CF0895DC01892BD9F0F3
:101380005F9BFECF8091A1018430B1F04CB14C93B2
:101390006417C9F090E09F5F5F9BFECF843019F423
:1013A0002227519923954CB1FD01E90FF11D40838E
:1013B0006413F1CF108208952227519923954CB1DF
:1013C0004C936413E7CFFD011082089561157105F8
:1013D00079F0FC01680F791F9091A10181915D9BCB
:1013E000FECF943009F450988CB9E617F707B1F79F
:1013F0000895549A0895539A0895549808955398C7
:101400000895CF93DF93CDB7DEB72A970FB6F89440
:10141000DEBF0FBECDBF30E05DEC811509F442C0E8
:10142000FE013196E30FF11D37FDFA95859F912D51
:101430001124969596959695292F220F220F290F04
:10144000220F482F421B242F205D2083432F3F5F14
:10145000282F892F2A3020F747FD1BC0842F942F77
:10146000990F990BFE013296E80FF91F9E012F5F2D
:101470003F4F820F931F841B91093091A10122914C
:101480005D9BFECF343009F450982CB9E817F9076A
:10149000B1F72A960FB6F894DEBF0FBECDBFDF912D
:1014A000CF9108955D9BFECF8091A101843019F00A
:1014B00080E38CB9EECF5098FBCF0E94DF020E94F0
:1014C0003101FFCFA29FB001B39FC001A39F700D58
:1014D000811D1124911DB29F700D811D1124911D3C
:1014E0000895A1E21A2EAA1BBB1BFD010DC0AA1F65
:1014F000BB1FEE1FFF1FA217B307E407F50720F07D
:10150000A21BB30BE40BF50B661F771F881F991FF7
:101510001A9469F760957095809590959B01AC0140
:0A152000BD01CF010895F894FFCF3C
:10152A000000000300802500000200B000212145D0
:10153A004D455247454E43592121007379737465CD
:10154A006D20696E697469616C697A65640D0A0057
:10155A00726561647920746F206D6F6E69746F7241
:10156A000D0A0074656D7020203A2000736D6F6B50
:10157A0065203A20007361666520646F6E7420707E
:10158A00616E69630D0A005741524E494E470D0A72
:10159A00004649524520414C41524D0D0A005553CF
:1015AA0045522041434B4E4F574C45444745440D05
:1015BA000A0053595354454D2052455345540D0A78
:1015CA0000454D455247454E43590D0A00202020FB
:1015DA00202020202000454D455247454E435900C2
:1015EA0070726573732074686520627574746F6EA7
:1015FA00005359533A53656C66205465737400530B
:10160A0059533A6C656420677265656E0053595385
:10161A003A6C65642079656C6C6F77005359533A5C
:10162A006C656420726564005359533A62757A7A1C
:10163A006572005359533A73656C6620646F6E6520
:10164A00005359533A696E697420646F6E650000DD
:00000001FF
