:100000000C942A000C9497070C9447000C9447001A
:100010000C9447000C9447000C9447000C94470044
:100020000C9447000C9447000C9405080C942E087F
:100030000C9447000C9447000C9447000C94470024
:100040000C9447000C9447000C9447000C94470014
:100050000C94470011241FBECFE5D8E0DEBFCDBF12
:1000600011E0A0E6B0E0EAE6F3E102C005900D92EF
:10007000A434B107D9F721E0A4E4B1E001C01D9296
:10008000AC35B207E1F70E947D090C94B3090C94DA
:100090000000CF93DF930F92CDB7DEB783E00E94CD
:1000A00062050E94B80260E081E00E94910360E076
:1000B0008DE690E00E949D0480E00E942C028983DE
:1000C00081E00E942C029981973430F4893C20F41D
:1000D0000F90DF91CF91089583E00F90DF91CF9142
:1000E0000895CF93DF930F92CDB7DEB780E00E94E3
:1000F0002C02898381E00E942C029981963488F435
:10010000883C78F482E00E94620560E08BE790E032
:100110000E949D040E94AE0281E00F90DF91CF917A
:1001200008950F90DF91CF910C944900CF93DF9306
:100130000F92CDB7DEB780E00E942C02898381E068
:100140000E942C0299819D3260F4863450F480E044
:100150000E9462050E94B30280E00F90DF91CF9170
:1001600008950F90DF91CF910C94B600CF93DF9359
:100170000F92CDB7DEB780E00E942C02898381E028
:100180000E942C0299819C3360F4823850F481E003
:100190000E9462050E94B30281E00F90DF91CF912F
:1001A00008950F90DF91CF910C9471000F931F93DE
:1001B0000091600010916100209162003091630015
:1001C00040916400509165006091660070916700F5
:1001D00080916800909169000E94570884E890E03F
:1001E0000E94240989E990E01F910F910C94240941
:1001F0008CEA90E00E94240980E00E942C0290E0AA
:100200000E9407098DEC90E00E94240985EB90E0A4
:100210000E94240981E00E942C0290E00E940709BC
:100220008DEC90E00C9424098EEB90E00C94240962
:1002300080ED90E00C9424098DED90E00C9424095D
:1002400081EF90E00C94240980E091E00C94240963
:10025000CF93DF9300D000D0CDB7DEB780914401BB
:1002600090914501A0914601B09147010196A11DD1
:10027000B11D8093440190934501A0934601B09332
:10028000470180FF3FC020914901233049F1898314
:100290009A83AB83BC8369817A818B819C8125E0C1
:1002A00030E040E050E00E949109672B682B692BF9
:1002B00009F464C069817A818B819C8124E130E0FA
:1002C00040E050E00E949109672B682B692B09F4EC
:1002D00083C00F900F900F900F90DF91CF910895F2
:1002E00080914801813009F48FC080914401909140
:1002F0004501A0914601B091470189839A83AB8360
:10030000BC83D8CF0E949B02809348018091490111
:10031000833031F38091440190914501A0914601D1
:10032000B091470189839A83AB83BC8380FDB3CFAF
:100330000E94B40580934B010E94DE0580934A0120
:100340008091440190914501A0914601B0914701EF
:1003500089839A83AB83BC83BC01CD0125E030E067
:1003600040E050E00E949109672B682B692B09F04F
:10037000A1CF80914901833009F49CCF40E068E02F
:1003800080E00E94BF0460E081E191E00E949D0452
:1003900040E068E080E00E94BF0460E080914B0193
:1003A0000E94F70440E068E081E00E94BF0460E042
:1003B00081E191E00E949D0440E068E081E00E94BC
:1003C000BF0460E080914A010E94F70460E081E18F
:1003D00091E00E949D0489CF0E949600809349017C
:1003E0000E94F80080EB0E94ED07109244011092E9
:1003F000450110924601109247010F900F900F9007
:100400000F90DF91CF9108950E941C011092490135
:1004100060E08CE091E00E949D040E94490280917E
:10042000440190914501A0914601B0914701898313
:100430009A83AB83BC833ECF60916A0070916B005E
:1004400080916C000E94C80782E00E94E20768E287
:1004500071E080E00C94F107813010F021F00895F4
:1004600080914B01089580914A01089560E081E0F8
:100470000E94910360E08AE191E00E949D0440E0C7
:1004800060E081E00E94BF0460E084E291E00C94AF
:100490009D0460E081E00E94910360E08CEA90E0BE
:1004A0000E949D0440E060E081E00E94BF0460E0A3
:1004B00085EB90E00C949D040E94530580E00E941F
:1004C000BF030E94D3050E94A9050E9491020E94C9
:1004D000A4020E94D6000E941C0260E085E391E025
:1004E0000E949D042FEF83ED90E3215080409040C7
:1004F000E1F700C0000060E081E00E94910360E04D
:100500008CEA90E00E949D0440E060E081E00E945F
:10051000BF0460E085EB90E00E949D040C94C0074E
:10052000089540E060E081E00E94350641E060E02F
:1005300081E00C94700660E081E00E94AB06982F89
:1005400081E0911180E0089541E067E081E00E9440
:10055000350640E067E081E00C94700641E067E01A
:1005600081E00C94700640E067E081E00C94700636
:1005700067E081E00E94AB0641E0811140E067E066
:1005800081E00C947006CF93C82F40E062E082E0D7
:100590000E947006C4FB442740F964E082E00E9498
:1005A0007006C5FB442740F965E082E00E947006B2
:1005B000C6FB442740F966E082E00E947006C7FB54
:1005C000442740F967E082E00E94700641E063E062
:1005D00082E00E9470068FEC97E00197F1F700C06F
:1005E000000040E063E082E00E9470064C2F417002
:1005F00064E082E00E947006C1FB442740F965E098
:1006000082E00E947006C2FB442740F966E082E067
:100610000E947006C3FB442740F967E082E00E9415
:10062000700641E063E082E00E9470068FEC97E084
:100630000197F1F700C0000040E063E082E0CF9155
:100640000C947006CF93C82F613020F009F45FC07E
:10065000CF91089541E062E082E00E947006C4FB01
:10066000442740F964E082E00E947006C5FB4427FD
:1006700040F965E082E00E947006C6FB442740F91D
:1006800066E082E00E947006C7FB442740F967E0FD
:1006900082E00E94700641E063E082E00E94700602
:1006A0008FEC97E00197F1F700C0000040E063E0B5
:1006B00082E00E9470064C2F417064E082E00E944C
:1006C0007006C1FB442740F965E082E00E94700695
:1006D000C2FB442740F966E082E00E947006C3FB3B
:1006E000442740F967E082E00E94700641E063E041
:1006F00082E00E9470068FEC97E00197F1F700C04E
:10070000000040E063E082E0CF910C94700641E08D
:1007100062E082E00E9470066C2F82E00E94EB068D
:10072000E5CFCF93DF930F92CDB7DEB789836130EA
:1007300028F049F00F90DF91CF9108950F90DF914D
:10074000CF910C94C30240E062E082E00E94700608
:10075000698182E00E94EB0641E063E082E00E9452
:1007600070068FEC97E00197F1F700C0000040E0C1
:1007700063E082E00F90DF91CF910C94700681309E
:1007800018F009F446C0089560EF82E00E94DB068D
:1007900041E062E082E00E94350641E063E082E0F1
:1007A0000E9435062FEB8AED90E02150804090406A
:1007B000E1F700C0000082E00E94C3028FE99FE0E1
:1007C0000197F1F700C0000088E20E94C3028FEC9D
:1007D00097E00197F1F700C000008CE00E94C3028F
:1007E0008FEC97E00197F1F700C0000081E00E94D4
:1007F000C3028FE99FE00197F1F700C0000086E097
:100800000E94C3028FEC97E00197F1F700C000004F
:1008100008956FEF82E00E94DB0641E062E082E033
:100820000E94350641E063E082E00E9435069FEBBE
:100830002AED80E0915020408040E1F700C00000A8
:1008400040E062E082E00E94700668E382E00E947D
:10085000EB0641E063E082E00E9470068FEC97E0D7
:100860000197F1F700C0000040E063E082E00E94E1
:1008700070068FEC97E00197F1F700C0000040E0B0
:1008800062E082E00E9470066EE082E00E94EB0669
:1008900041E063E082E00E9470068FEC97E00197F0
:1008A000F1F700C0000040E063E082E00E947006C3
:1008B0008FEC97E00197F1F700C0000040E062E0A4
:1008C00082E00E94700661E082E00E94EB0641E057
:1008D00063E082E00E9470068FEC97E00197F1F7E9
:1008E00000C0000040E063E082E00E9470068FE9F3
:1008F0009FE00197F1F700C0000040E062E082E075
:100900000E94700666E082E00E94EB0641E063E030
:1009100082E00E9470068FEC97E00197F1F700C02B
:10092000000040E063E082E00E9470068FEC97E0F8
:100930000197F1F700C0000008950F931F93CF9324
:10094000DF9300D0CDB7DEB78C016983FC018081D5
:10095000811571F01A8269810E942203FA81FF5F7A
:10096000FA83F8018A81E80FF11D80818111F3CFAC
:100970000F900F90DF91CF911F910F910895CF931A
:10098000DF930F92CDB7DEB7813060F051F080E891
:100990008983413058F489810F90DF91CF910C9475
:1009A000C302605C606869834130A8F321F00F9056
:1009B000DF91CF91089540E062E082E00E947006EE
:1009C000698182E00E94EB0641E063E082E00E94E0
:1009D00070068FEC97E00197F1F700C0000040E04F
:1009E00063E082E00F90DF91CF910C947006EF925C
:1009F000FF920F931F93CF93DF93CDB7DEB72B9763
:100A00000FB6F894DEBF0FBECDBF6B878115E1F145
:100A100030E08E010F5F1F4F5DEC432F3F5FF80109
:100A2000E40FF11D859F912D11249695969596952D
:100A3000292F220F220F290F220F682F621B262F2A
:100A4000205D2083282F892F2A3038F747FD0FC0DB
:100A500078018FEFE81AF80AE40EF11C6B85F701B4
:100A600082917F010E942203E016F106B9F72B96CE
:100A70000FB6F894DEBF0FBECDBFDF91CF911F91AF
:100A80000F91FF90EF90089580E32B960FB6F894A6
:100A9000DEBF0FBECDBFDF91CF911F910F91FF90B1
:100AA000EF900C94220341E066E081E00E9435065D
:100AB00041E062E081E00E94350641E061E081E0D2
:100AC0000C9435068230A1F190F4811509F43FC0F1
:100AD00040E066E081E00E94700641E062E081E073
:100AE0000E94700640E061E081E00C947006833063
:100AF000C1F440E066E081E00E94700640E062E000
:100B000081E00E94700688B392E0892788BB2FEFAE
:100B100084E39CE0215080409040E1F700C0000059
:100B2000089540E066E081E00E94700640E0D6CF84
:100B300040E066E081E00E94700640E062E081E013
:100B40000E94700641E061E081E00C94700641E093
:100B5000E9CF40E060E080E00E94350681E00E943D
:100B6000F50580E00C94170680E00E941F0680E0E7
:100B70000E9424060E942D069C01A8E8B3E10E9471
:100B80008209672F782F892F90E086957795679552
:100B90008695779567952AE030E040E050E00E9426
:100BA0009109822F089540E061E080E00E943506BF
:100BB00081E00E94F50580E00C94170681E00E9418
:100BC0001F0680E00E9424060E942D069C01A8E8D2
:100BD000B3E10E948209A92F982F872FA695979598
:100BE0008795A6959795879508958130A1F08230D5
:100BF00051F0811102C03E983F9886B1887F86608F
:100C000086B9379A08953E9A3F9A86B1887F866062
:100C100086B9379A08953E9A3F9886B1887F866054
:100C200086B9379A0895379A08953798089581308C
:100C300010F43D98089509F008953D9A089597B1EC
:100C4000907E892B87B90895811101C0369A089545
:100C500096B1987F892B86B90895369A349BFECF3A
:100C6000349A84B125B1922F0895843020F46830ED
:100C700010F4423008F0089521E001C0220F6A9577
:100C8000EAF7413079F020958230B1F0833031F0CD
:100C90008130B1F08AB382238ABB089581B3822365
:100CA00081BB08958230C1F0833091F0813061F0D2
:100CB0008AB3822B8ABB089584B3822384BB0895B0
:100CC00087B3822387BB089587B3822B87BB0895A0
:100CD00081B3822B81BB089584B3822B84BB08959A
:100CE000843020F4683010F4423008F0089521E098
:100CF00001C0220F6A95EAF7413079F020958230E1
:100D0000B1F0833031F08130B1F08BB382238BBBF3
:100D1000089582B3822382BB08958230C1F083306C
:100D200091F0813061F08BB3822B8BBB089585B33A
:100D3000822385BB089588B3822388BB089588B336
:100D4000822B88BB089582B3822B82BB089585B322
:100D5000822B85BB0895843088F4683078F4823023
:100D600009F18330B1F0813059F089B390E002C0CD
:100D7000959587956A95E2F78170089580E00895CA
:100D800086B390E002C0959587956A95E2F78170E9
:100D9000089580B390E002C0959587956A95E2F733
:100DA0008170089583B390E002C0959587956A9508
:100DB000E2F781700895843048F4823051F0833036
:100DC00021F0813021F06ABB089561BB089567BBB3
:100DD000089564BB0895843048F4823051F0833024
:100DE00021F0813021F06BBB089562BB089568BB90
:100DF000089565BB0895843040F4823051F083300B
:100E000051F0813021F089B3089580E0089586B3D0
:100E1000089583B3089580B308958330B1F084308A
:100E200019F0853009F10895643069F1653009F4ED
:100E300043C0663009F447C06730A9F785B78460BE
:100E400085BF85B7886085BF0895643019F1653026
:100E500099F0663031F1673031F785B7816085BF31
:100E600085B7826085BF0895663011F16730D9F685
:100E700084B7806484BF089585B7816085BF85B7D6
:100E80008D7F85BF089585B78B7F85BF85B7877FA9
:100E900085BF089585B78E7F85BF85B78D7F85BF58
:100EA000089585B78E7F85BF85B7826085BF089519
:100EB00084B78F7B84BF089585B7846085BF85B76D
:100EC000877F85BF089585B78B7F85BF85B788608D
:100ED00085BF0895833049F0843019F0853049F09A
:100EE00008958BB780688BBF08958BB780648BBFE4
:100EF00008958BB780628BBF0895833049F08430AA
:100F000019F0853049F008958BB78F778BBF08951E
:100F10008BB78F7B8BBF08958BB78F7D8BBF089569
:100F2000009721F080934C0190934D0108951F92FA
:100F30000F920FB60F9211242F933F934F935F930D
:100F40006F937F938F939F93AF93BF93EF93FF9391
:100F5000E0914C01F0914D01309709F00995FF9116
:100F6000EF91BF91AF919F918F917F916F915F9121
:100F70004F913F912F910F900FBE0F901F9018959A
:100F80008FB780688FBF08958FB78F778FBF089511
:100F9000613058F483B78F7B83BF83B7877F83BF6C
:100FA00072BF89B7816089BF089509F0089593B72A
:100FB0009F7B93BF93B7986093BF8CBF89B78260C4
:100FC00089BF0895811521F093B7987F892B83BF3E
:100FD000089583B7887F83BF089582BF08958CBF2B
:100FE0000895813040F46115710531F0609350012E
:100FF00070935101089509F0089561157105E1F3A9
:1010000060934E0170934F0108951F920F920FB697
:101010000F9211242F933F934F935F936F937F937E
:101020008F939F93AF93BF93EF93FF93E0914E0104
:10103000F0914F01309709F00995FF91EF91BF9121
:10104000AF919F918F917F916F915F914F913F9160
:101050002F910F900FBE0F901F9018951F920F9217
:101060000FB60F9211242F933F934F935F936F937B
:101070007F938F939F93AF93BF93EF93FF93E091F1
:101080005001F0915101309709F00995FF91EF91CE
:10109000BF91AF919F918F917F916F915F914F9190
:1010A0003F912F910F900FBE0F901F9018950F93A7
:1010B0001F93CF93DF93CDB7DEB72B970FB6F8947E
:1010C000DEBF0FBECDBF0B870983B12F1A83F22F6E
:1010D0002B83E32F3C83A42F4D835E836F8378871C
:1010E0008987192F9A874E815F816885798500935A
:1010F0005201B09353012093540130935501A093B2
:1011000056014093570150935801609359017093D1
:101110005A0190935B0180EC013009F080E8F130D6
:1011200009F46AC0F23009F451C0B13009F452C078
:10113000E13068F059F0E23009F466C0E33009F4B8
:1011400060C0E43029F48660529A02C082605298EE
:1011500080BDA13070F55998440F551F661F771F49
:10116000440F551F661F771F9A01AB01220F331FD3
:10117000441F551F220F331F441F551F60E072E1AB
:101180008AE790E00E94910921503109922F832F24
:1011900099B980BD1130A0F4549A53982B960FB68C
:1011A000F894DEBF0FBECDBFDF91CF911F910F919D
:1011B000089591F080E090E099B980BD113060F31E
:1011C000E9F0123059F7549A539AE8CF8063B1305E
:1011D00009F0AECF8860ACCF599A9A01AB01220FCB
:1011E000331F441F551F220F331F441F551F220F4B
:1011F000331F441F551FC2CF806297CF539A549814
:10120000CDCF86605298A4CF84605298A1CF9C0124
:101210005D9BFECF80915501843011F02CB908956B
:10122000509830FFFBCF509A2CB908955F9BFECFAA
:101230008091550190E0843021F48827519983955D
:10124000982F2CB1822F0895DC019C91911581F08B
:1012500020E0809155015D9BFECF843009F45098C9
:101260009CB92F5FFD01E20FF11D90819111F3CF29
:101270000895DC01892BD9F05F9BFECF8091550149
:101280008430B1F04CB14C936417C9F090E09F5F8B
:101290005F9BFECF843019F42227519923954CB1DE
:1012A000FD01E90FF11D40836413F1CF1082089511
:1012B0002227519923954CB14C936413E7CFFD013C
:1012C000108208956115710579F0FC01680F791F8E
:1012D0009091550181915D9BFECF943009F4509817
:1012E0008CB9E617F707B1F70895549A0895539A01
:1012F000089554980895539808950E945C020E949E
:101300002801FFCFA29FB001B39FC001A39F700D22
:10131000811D1124911DB29F700D811D1124911DFD
:101320000895A1E21A2EAA1BBB1BFD010DC0AA1F26
:10133000BB1FEE1FFF1FA217B307E407F50720F03E
:10134000A21BB30BE40BF50B661F771F881F991FB9
:101350001A9469F760957095809590959B01AC0102
:0A136000BD01CF010895F894FFCFFE
:10136A000000000300802500000200B00021214592
:10137A004D455247454E43592121002121464952A4
:10138A004521210073797374656D20696E697469EA
:10139A00616C697A65640D0A00726561647920740A
:1013AA006F206D6F6E69746F720D0A0074656D70CF
:1013BA0020203A2000736D6F6B65203A2000574158
:1013CA00524E494E47204C4556454C20310D0A0095
:1013DA004649524520414C41524D0D0A005553454C
:1013EA00522041434B4E4F574C45444745440D0A02
:1013FA000053595354454D2052455345540D0A0044
:10140A00454D455247454E43590D0A00746573745C
:10141A0000202020202020202000454D455247450D
:10142A004E43590070726573732074686520627543
:10143A0074746F6E005359533A696E697420646FFD
:04144A006E650000CB
:00000001FF
