:100000000C942A000C943C000C943C000C943C0092
:100010000C943C000C943C000C943C000C943C0070
:100020000C943C000C943C000C9441040C94680427
:100030000C943C000C943C000C943C000C943C0050
:100040000C943C000C943C000C943C000C943C0040
:100050000C943C0011241FBECFE5D8E0DEBFCDBF1D
:1000600020E0A0E6B0E001C01D92A436B207E1F79F
:100070000E948F040C9494040C940000CF93C82F1A
:1000800040E062E082E00E945F03C4FB442740F945
:1000900064E082E00E945F03C5FB442740F965E00D
:1000A00082E00E945F03C6FB442740F966E082E0DD
:1000B0000E945F03C7FB442740F967E082E00E948B
:1000C0005F0341E063E082E00E945F038FEC97E012
:1000D0000197F1F700C0000040E063E082E00E9479
:1000E0005F034C2F417064E082E00E945F03C1FB1C
:1000F000442740F965E082E00E945F03C2FB442789
:1001000040F966E082E00E945F03C3FB442740F9A8
:1001100067E082E00E945F0341E063E082E00E94CA
:100120005F038FEC97E00197F1F700C0000040E01B
:1001300063E082E0CF910C945F03CF93C82F6130CE
:1001400020F009F45FC0CF91089541E062E082E0C1
:100150000E945F03C4FB442740F964E082E00E94F0
:100160005F03C5FB442740F965E082E00E945F031E
:10017000C6FB442740F966E082E00E945F03C7FBAC
:10018000442740F967E082E00E945F0341E063E0BA
:1001900082E00E945F038FEC97E00197F1F700C0C7
:1001A000000040E063E082E00E945F034C2F41705A
:1001B00064E082E00E945F03C1FB442740F965E0F0
:1001C00082E00E945F03C2FB442740F966E082E0C0
:1001D0000E945F03C3FB442740F967E082E00E946E
:1001E0005F0341E063E082E00E945F038FEC97E0F1
:1001F0000197F1F700C0000040E063E082E0CF919A
:100200000C945F0341E062E082E00E945F036C2F88
:1002100082E00E94DA03E5CFCF93DF930F92CDB750
:10022000DEB78983613028F049F00F90DF91CF91DC
:1002300008950F90DF91CF910C943E0040E062E072
:1002400082E00E945F03698182E00E94DA0341E05C
:1002500063E082E00E945F038FEC97E00197F1F783
:1002600000C0000040E063E082E00F90DF91CF919A
:100270000C945F03813018F009F446C0089560EFD4
:1002800082E00E94CA0341E062E082E00E9424030F
:1002900041E063E082E00E9424032FEB8AED90E0CE
:1002A000215080409040E1F700C0000082E00E94B1
:1002B0003E008FE99FE00197F1F700C0000088E25F
:1002C0000E943E008FEC97E00197F1F700C000001C
:1002D0008CE00E943E008FEC97E00197F1F700C0A0
:1002E000000081E00E943E008FE99FE00197F1F756
:1002F00000C0000086E00E943E008FEC97E001976E
:10030000F1F700C0000008956FEF82E00E94CA0379
:1003100041E062E082E00E94240341E063E082E089
:100320000E9424039FEB2AED80E091502040804002
:10033000E1F700C0000040E062E082E00E945F035D
:1003400068E382E00E94DA0341E063E082E00E9419
:100350005F038FEC97E00197F1F700C0000040E0E9
:1003600063E082E00E945F038FEC97E00197F1F772
:1003700000C0000040E062E082E00E945F036EE0A7
:1003800082E00E94DA0341E063E082E00E945F03C2
:100390008FEC97E00197F1F700C0000040E063E0C8
:1003A00082E00E945F038FEC97E00197F1F700C0B5
:1003B000000040E062E082E00E945F0361E082E0D2
:1003C0000E94DA0341E063E082E00E945F038FEC69
:1003D00097E00197F1F700C0000040E063E082E0A1
:1003E0000E945F038FE99FE00197F1F700C00000D2
:1003F00040E062E082E00E945F0366E082E00E94EB
:10040000DA0341E063E082E00E945F038FEC97E053
:100410000197F1F700C0000040E063E082E00E9435
:100420005F038FEC97E00197F1F700C0000008959B
:100430000F931F93CF93DF9300D0CDB7DEB78C011E
:100440006983FC018081811571F01A8269810E94A3
:100450009D00FA81FF5FFA83F8018A81E80FF11DA0
:1004600080818111F3CF0F900F90DF91CF911F9179
:100470000F910895CF93DF930F92CDB7DEB7813000
:1004800060F051F080E88983413058F489810F9001
:10049000DF91CF910C943E00605C606869834130CD
:1004A000A8F321F00F90DF91CF91089540E062E032
:1004B00082E00E945F03698182E00E94DA0341E0EA
:1004C00063E082E00E945F038FEC97E00197F1F711
:1004D00000C0000040E063E082E00F90DF91CF9128
:1004E0000C945F03EF92FF920F931F93CF93DF93D0
:1004F000CDB7DEB72B970FB6F894DEBF0FBECDBFDA
:100500006B878115E1F130E08E010F5F1F4F5DECCD
:10051000432F3F5FF801E40FF11D859F912D1124BA
:10052000969596959695292F220F220F290F220F27
:10053000682F621B262F205D2083282F892F2A30C9
:1005400038F747FD0FC078018FEFE81AF80AE40E7C
:10055000F11C6B85F70182917F010E949D00E016DE
:10056000F106B9F72B960FB6F894DEBF0FBECDBFDC
:10057000DF91CF911F910F91FF90EF90089580E34D
:100580002B960FB6F894DEBF0FBECDBFDF91CF9193
:100590001F910F91FF90EF900C949D0041E066E059
:1005A00081E00E94240341E062E081E00E94240394
:1005B00041E061E081E00C9424038230A1F190F4E9
:1005C000811509F43FC040E066E081E00E945F03CE
:1005D00041E062E081E00E945F0340E061E081E091
:1005E0000C945F038330C1F440E066E081E00E9438
:1005F0005F0340E062E081E00E945F0388B392E025
:10060000892788BB2FEF84E39CE0215080409040F5
:10061000E1F700C00000089540E066E081E00E943C
:100620005F0340E0D6CF40E066E081E00E945F03D8
:1006300040E062E081E00E945F0341E061E081E030
:100640000C945F0341E0E9CF843020F4683010F46B
:10065000423008F0089521E001C0220F6A95EAF7C0
:10066000413079F020958230B1F0833031F0813023
:10067000B1F08AB382238ABB089581B3822381BB00
:1006800008958230C1F0833091F0813061F08AB3F7
:10069000822B8ABB089584B3822384BB089587B3D9
:1006A000822387BB089587B3822B87BB089581B3CC
:1006B000822B81BB089584B3822B84BB0895843040
:1006C00020F4683010F4423008F0089521E001C0B1
:1006D000220F6A95EAF7413079F020958230B1F027
:1006E000833031F08130B1F08BB382238BBB08951E
:1006F00082B3822382BB08958230C1F0833091F0AF
:10070000813061F08BB3822B8BBB089585B382233C
:1007100085BB089588B3822388BB089588B3822B54
:1007200088BB089582B3822B82BB089585B3822B48
:1007300085BB0895843088F4683078F4823009F1FC
:100740008330B1F0813059F089B390E002C09595C3
:1007500087956A95E2F78170089580E0089586B3E1
:1007600090E002C0959587956A95E2F781700895AB
:1007700080B390E002C0959587956A95E2F7817005
:10078000089583B390E002C0959587956A95E2F746
:1007900081700895843048F4823051F0833021F024
:1007A000813021F06ABB089561BB089567BB08954D
:1007B00064BB0895843048F4823051F0833021F0D6
:1007C000813021F06BBB089562BB089568BB08952A
:1007D00065BB0895843040F4823051F0833051F08D
:1007E000813021F089B3089580E0089586B308959B
:1007F00083B3089580B308958FB780688FBF08953D
:100800008FB78F778FBF0895613058F483B78F7B90
:1008100083BF83B7877F83BF72BF89B7816089BF7A
:10082000089509F0089593B79F7B93BF93B798609D
:1008300093BF8CBF89B7826089BF0895811521F06D
:1008400093B7987F892B83BF089583B7887F83BF31
:10085000089582BF08958CBF0895813040F46115DA
:10086000710531F06093620070936300089509F0A0
:10087000089561157105E1F3609360007093610064
:1008800008951F920F920FB60F9211242F933F934A
:100890004F935F936F937F938F939F93AF93BF9388
:1008A000EF93FF93E0916000F09161000995FF9153
:1008B000EF91BF91AF919F918F917F916F915F91D8
:1008C0004F913F912F910F900FBE0F901F90189551
:1008D0001F920F920FB60F9211242F933F934F93B5
:1008E0005F936F937F938F939F93AF93BF93EF9398
:1008F000FF93E0916200F09163000995FF91EF9101
:10090000BF91AF919F918F917F916F915F914F9127
:100910003F912F910F900FBE0F901F90189541E0BF
:0C09200060E080E00C942403F894FFCF0A
:00000001FF
