:100000000C942A000C9434000C9434000C943400AA
:100010000C9434000C9434000C9434000C94340090
:100020000C9434000C9434000C9434000C94340080
:100030000C9434000C9434000C9434000C94340070
:100040000C9434000C9434000C9434000C94340060
:100050000C94340011241FBECFE5D8E0DEBFCDBF25
:100060000E9414010C9419010C940000843020F4B7
:10007000683010F4423008F0089521E001C0220FEA
:100080006A95EAF7413079F020958230B1F08330FB
:1000900031F08130B1F08AB382238ABB089581B3F5
:1000A000822381BB08958230C1F0833091F081308A
:1000B00061F08AB3822B8ABB089584B3822384BB08
:1000C000089587B3822387BB089587B3822B87BBAC
:1000D000089581B3822B81BB089584B3822B84BBA6
:1000E0000895843020F4683010F4423008F0089508
:1000F00021E001C0220F6A95EAF7413079F020959E
:100100008230B1F0833031F08130B1F08BB3822393
:100110008BBB089582B3822382BB08958230C1F0E5
:10012000833091F0813061F08BB3822B8BBB0895CB
:1001300085B3822385BB089588B3822388BB089545
:1001400088B3822B88BB089582B3822B82BB08952B
:1001500085B3822B85BB0895843088F4683078F4A9
:10016000823009F18330B1F0813059F089B390E0E9
:1001700002C0959587956A95E2F78170089580E0B1
:10018000089586B390E002C0959587956A95E2F749
:100190008170089580B390E002C0959587956A9527
:1001A000E2F78170089583B390E002C0959587953A
:1001B0006A95E2F781700895843010F4623008F097
:1001C0000895823031F0833041F0813021F06ABBF4
:1001D000089564BB089567BB089561BB089584309A
:1001E00010F4623008F00895823031F0833041F02D
:1001F000813021F06BBB089565BB089568BB0895FD
:1002000062BB0895843040F4823051F0833051F065
:10021000813021F089B3089580E0089586B3089570
:1002200083B3089580B3089541E060E080E00C94CA
:060230003600F894FFCF38
:00000001FF
