:100000000C942A000C9447000C9447000C94470071
:100010000C9447000C9447000C9447000C94470044
:100020000C9447000C9447000C9464060C948B06C7
:100030000C9447000C9447000C9447000C94470024
:100040000C9447000C9447000C9447000C94470014
:100050000C94470011241FBECFE5D8E0DEBFCDBF12
:1000600010E0A0E6B0E0E0EFFDE002C005900D92E8
:10007000AC38B107D9F720E0ACE8B0E001C01D9280
:10008000A639B207E1F70E94B2060C94F6060C946A
:10009000000008950E941F06609160007091610049
:1000A000809162000E94270682E00E94410660E083
:1000B00083E690E00E942C0340E060E081E00E9433
:1000C0004E0360E08CE690E00C942C03CF92DF921C
:1000D000EF92FF92C0908C00D0908D00E0908E0047
:1000E000F0908F008FEFC81AD80AE80AF80AC09279
:1000F0008C00D0928D00E0928E00F0928F00C0FEB6
:100100001DC0B601C70125E030E040E050E00E948C
:10011000D406672B682B692B91F1B601C70124E146
:1001200030E040E050E00E94D406672B682B692B3A
:10013000B1F0FF90EF90DF90CF9008950E944304BC
:10014000809391000E946D0480939000C0908C0079
:10015000D0908D00E0908E00F0908F00D2CF80EB99
:100160000E944C0610928C0010928D0010928E000E
:1001700010928F00FF90EF90DF90CF90089540E0B5
:1001800068E080E00E944E0360E085E790E00E9416
:100190002C0340E068E080E00E944E0360E0809124
:1001A00091000E94860340E068E081E00E944E03D7
:1001B00060E085E790E00E942C0340E068E081E089
:1001C0000E944E0360E0809190000E94860360E0F0
:1001D00085E790E00E942C03C0908C00D0908D00A9
:1001E000E0908E00F0908F0098CF813010F021F0D9
:1001F0000895809191000895809190000895089548
:100200000E94E20380E00E944E020E9462040E946B
:1002100038040E9420010E94330160E08EE790E0E4
:100220000E942C032FEF83ED90E3215080409040FB
:10023000E1F700C0000060E081E00C942002089526
:1002400040E060E081E00E94C40441E060E081E0C1
:100250000C94FF0460E081E00E943A05982F81E051
:10026000911180E0089541E067E081E00E94C404BC
:1002700040E067E081E00C94FF0441E067E081E04A
:100280000C94FF0440E067E081E00C94FF0467E019
:1002900081E00E943A0541E0811140E067E081E0A1
:1002A0000C94FF04CF93C82F40E062E082E00E94EC
:1002B000FF04C4FB442740F964E082E00E94FF048D
:1002C000C5FB442740F965E082E00E94FF04C6FBBD
:1002D000442740F966E082E00E94FF04C7FB442700
:1002E00040F967E082E00E94FF0441E063E082E0C1
:1002F0000E94FF048FEC97E00197F1F700C0000027
:1003000040E063E082E00E94FF044C2F417064E013
:1003100082E00E94FF04C1FB442740F965E082E0CF
:100320000E94FF04C2FB442740F966E082E00E947D
:10033000FF04C3FB442740F967E082E00E94FF040A
:1003400041E063E082E00E94FF048FEC97E00197B8
:10035000F1F700C0000040E063E082E0CF910C9430
:10036000FF04CF93C82F613020F009F45FC0CF9114
:10037000089541E062E082E00E94FF04C4FB44274C
:1003800040F964E082E00E94FF04C5FB442740F985
:1003900065E082E00E94FF04C6FB442740F966E066
:1003A00082E00E94FF04C7FB442740F967E082E037
:1003B0000E94FF0441E063E082E00E94FF048FECB2
:1003C00097E00197F1F700C0000040E063E082E0B1
:1003D0000E94FF044C2F417064E082E00E94FF0401
:1003E000C1FB442740F965E082E00E94FF04C2FBA4
:1003F000442740F966E082E00E94FF04C3FB4427E3
:1004000040F967E082E00E94FF0441E063E082E09F
:100410000E94FF048FEC97E00197F1F700C0000005
:1004200040E063E082E0CF910C94FF0441E062E0A1
:1004300082E00E94FF046C2F82E00E947A05E5CFE3
:10044000CF93DF930F92CDB7DEB78983613028F069
:1004500049F00F90DF91CF9108950F90DF91CF91E8
:100460000C94520140E062E082E00E94FF04698146
:1004700082E00E947A0541E063E082E00E94FF048E
:100480008FEC97E00197F1F700C0000040E063E0D7
:1004900082E00F90DF91CF910C94FF04813018F02F
:1004A00009F446C0089560EF82E00E946A0541E0C9
:1004B00062E082E00E94C40441E063E082E00E94C6
:1004C000C4042FEB8AED90E0215080409040E1F78A
:1004D00000C0000082E00E9452018FE99FE0019776
:1004E000F1F700C0000088E20E9452018FEC97E013
:1004F0000197F1F700C000008CE00E9452018FECE0
:1005000097E00197F1F700C0000081E00E945201DE
:100510008FE99FE00197F1F700C0000086E00E949C
:1005200052018FEC97E00197F1F700C000000895A9
:100530006FEF82E00E946A0541E062E082E00E9483
:10054000C40441E063E082E00E94C4049FEB2AED12
:1005500080E0915020408040E1F700C0000040E082
:1005600062E082E00E94FF0468E382E00E947A0574
:1005700041E063E082E00E94FF048FEC97E0019786
:10058000F1F700C0000040E063E082E00E94FF0459
:100590008FEC97E00197F1F700C0000040E062E0C7
:1005A00082E00E94FF046EE082E00E947A0541E052
:1005B00063E082E00E94FF048FEC97E00197F1F77F
:1005C00000C0000040E063E082E00E94FF048FEC86
:1005D00097E00197F1F700C0000040E062E082E0A0
:1005E0000E94FF0461E082E00E947A0541E063E03E
:1005F00082E00E94FF048FEC97E00197F1F700C0C2
:10060000000040E063E082E00E94FF048FE99FE089
:100610000197F1F700C0000040E062E082E00E9434
:10062000FF0466E082E00E947A0541E063E082E038
:100630000E94FF048FEC97E00197F1F700C00000E3
:1006400040E063E082E00E94FF048FEC97E00197B6
:10065000F1F700C0000008950F931F93CF93DF932D
:1006600000D0CDB7DEB78C016983FC018081811594
:1006700071F01A8269810E94B101FA81FF5FFA83E9
:10068000F8018A81E80FF11D80818111F3CF0F906D
:100690000F90DF91CF911F910F910895CF93DF932A
:1006A0000F92CDB7DEB7813060F051F080E88983DA
:1006B000413058F489810F90DF91CF910C94520111
:1006C000605C606869834130A8F321F00F90DF918E
:1006D000CF91089540E062E082E00E94FF046981CA
:1006E00082E00E947A0541E063E082E00E94FF041C
:1006F0008FEC97E00197F1F700C0000040E063E065
:1007000082E00F90DF91CF910C94FF04EF92FF9263
:100710000F931F93CF93DF93CDB7DEB72B970FB611
:10072000F894DEBF0FBECDBF6B878115E1F130E0DD
:100730008E010F5F1F4F5DEC432F3F5FF801E40F09
:10074000F11D859F912D1124969596959695292FAB
:10075000220F220F290F220F682F621B262F205DE8
:100760002083282F892F2A3038F747FD0FC07801C2
:100770008FEFE81AF80AE40EF11C6B85F7018291FD
:100780007F010E94B101E016F106B9F72B960FB672
:10079000F894DEBF0FBECDBFDF91CF911F910F91B7
:1007A000FF90EF90089580E32B960FB6F894DEBF8C
:1007B0000FBECDBFDF91CF911F910F91FF90EF90B2
:1007C0000C94B10141E066E081E00E94C40441E084
:1007D00062E081E00E94C40441E061E081E00C94A9
:1007E000C4048230A1F190F4811509F43FC040E0C7
:1007F00066E081E00E94FF0441E062E081E00E9447
:10080000FF0440E061E081E00C94FF048330C1F418
:1008100040E066E081E00E94FF0440E062E081E0A9
:100820000E94FF0488B392E0892788BB2FEF84E3FE
:100830009CE0215080409040E1F700C00000089506
:1008400040E066E081E00E94FF0440E0D6CF40E057
:1008500066E081E00E94FF0440E062E081E00E94E7
:10086000FF0441E061E081E00C94FF0441E0E9CF46
:1008700040E060E080E00E94C40481E00E948404C3
:1008800080E00C94A60480E00E94AE0480E00E9408
:10089000B3040E94BC049C01A8E8B3E10E94C50611
:1008A000672F782F892F90E08695779567958695A5
:1008B000779567952AE030E040E050E00E94D4064A
:1008C000822F089540E061E080E00E94C40481E04E
:1008D0000E94840480E00C94A60481E00E94AE048F
:1008E00080E00E94B3040E94BC049C01A8E8B3E12C
:1008F0000E94C506A92F982F872FA69597958795B3
:10090000A6959795879508958130A1F0823051F092
:10091000811102C03E983F9886B1887F866086B973
:10092000379A08953E9A3F9A86B1887F866086B945
:10093000379A08953E9A3F9886B1887F866086B937
:10094000379A0895379A089537980895813010F4AA
:100950003D98089509F008953D9A089597B1907EC5
:10096000892B87B90895811101C0369A089596B1EF
:10097000987F892B86B90895369A349BFECF349A96
:1009800084B125B1922F0895843020F4683010F49A
:10099000423008F0089521E001C0220F6A95EAF77D
:1009A000413079F020958230B1F0833031F08130E0
:1009B000B1F08AB382238ABB089581B3822381BBBD
:1009C00008958230C1F0833091F0813061F08AB3B4
:1009D000822B8ABB089584B3822384BB089587B396
:1009E000822387BB089587B3822B87BB089581B389
:1009F000822B81BB089584B3822B84BB08958430FD
:100A000020F4683010F4423008F0089521E001C06D
:100A1000220F6A95EAF7413079F020958230B1F0E3
:100A2000833031F08130B1F08BB382238BBB0895DA
:100A300082B3822382BB08958230C1F0833091F06B
:100A4000813061F08BB3822B8BBB089585B38223F9
:100A500085BB089588B3822388BB089588B3822B11
:100A600088BB089582B3822B82BB089585B3822B05
:100A700085BB0895843088F4683078F4823009F1B9
:100A80008330B1F0813059F089B390E002C0959580
:100A900087956A95E2F78170089580E0089586B39E
:100AA00090E002C0959587956A95E2F78170089568
:100AB00080B390E002C0959587956A95E2F78170C2
:100AC000089583B390E002C0959587956A95E2F703
:100AD00081700895843048F4823051F0833021F0E1
:100AE000813021F06ABB089561BB089567BB08950A
:100AF00064BB0895843048F4823051F0833021F093
:100B0000813021F06BBB089562BB089568BB0895E6
:100B100065BB0895843040F4823051F0833051F049
:100B2000813021F089B3089580E0089586B3089557
:100B300083B3089580B308958330B1F0843019F001
:100B4000853009F10895643069F1653009F443C0D6
:100B5000663009F447C06730A9F785B7846085BF60
:100B600085B7886085BF0895643019F1653099F0C4
:100B7000663031F1673031F785B7816085BF85B761
:100B8000826085BF0895663011F16730D9F684B769
:100B9000806484BF089585B7816085BF85B78D7FE8
:100BA00085BF089585B78B7F85BF85B7877F85BF54
:100BB000089585B78E7F85BF85B78D7F85BF0895E2
:100BC00085B78E7F85BF85B7826085BF089584B75E
:100BD0008F7B84BF089585B7846085BF85B7877F85
:100BE00085BF089585B78B7F85BF85B7886085BF32
:100BF0000895833049F0843019F0853049F0089524
:100C00008BB780688BBF08958BB780648BBF0895C6
:100C10008BB780628BBF0895833049F0843019F020
:100C2000853049F008958BB78F778BBF08958BB7C8
:100C30008F7B8BBF08958BB78F7D8BBF08958FB748
:100C400080688FBF08958FB78F778FBF0895613009
:100C500058F483B78F7B83BF83B7877F83BF72BF0F
:100C600089B7816089BF089509F0089593B79F7B84
:100C700093BF93B7986093BF8CBF89B7826089BFD9
:100C80000895811521F093B7987F892B83BF08952C
:100C900083B7887F83BF089582BF08958CBF08956E
:100CA000813040F46115710531F0609394007093C8
:100CB0009500089509F0089561157105E1F36093B9
:100CC00092007093930008951F920F920FB60F92A7
:100CD00011242F933F934F935F936F937F938F9341
:100CE0009F93AF93BF93EF93FF93E0919200F091A6
:100CF00093000995FF91EF91BF91AF919F918F91D3
:100D00007F916F915F914F913F912F910F900FBE07
:100D10000F901F9018951F920F920FB60F921124EB
:100D20002F933F934F935F936F937F938F939F93F3
:100D3000AF93BF93EF93FF93E0919400F0919500F0
:100D40000995FF91EF91BF91AF919F918F917F9105
:100D50006F915F914F913F912F910F900FBE0F9028
:100D60001F9018950E9400010E944A0066E670E0FC
:100D700080E00E9450060E94660080E090E00E94A1
:100D8000F50060E00E948603F6CFA29FB001B39FFA
:100D9000C001A39F700D811D1124911DB29F700D84
:100DA000811D1124911D0895A1E21A2EAA1BBB1BBF
:100DB000FD010DC0AA1FBB1FEE1FFF1FA217B30727
:100DC000E407F50720F0A21BB30BE40BF50B661F3D
:100DD000771F881F991F1A9469F760957095809501
:100DE00090959B01AC01BD01CF010895F894FFCF10
:100DF00000B00074656D7020203A2000736D6F6B39
:100E000065203A2000202020202020202000535957
:0C0E1000533A696E697420646F6E6500CF
:00000001FF
