:100000000C942A000C9426060C9447000C9447008C
:100010000C9447000C9447000C9447000C94470044
:100020000C9447000C9447000C9494060C94BD0665
:100030000C9447000C9447080C949B080C9472088D
:100040000C9447000C9447000C9447000C94470014
:100050000C94470011241FBECFE5D8E0DEBFCDBF12
:1000600010E0A0E6B0E0ECE1F2E102C005900D92F4
:10007000AC36B107D9F720E0ACE6B0E001C01D9284
:10008000AA38B207E1F70E94C4080C9405090C9441
:10009000000008950895CF92DF92EF92FF92C090F2
:1000A0006C00D0906D00E0906E00F0906F008FEFCC
:1000B000C81AD80AE80AF80AC0926C00D0926D00FB
:1000C000E0926E00F0926F00C0FE1DC0B601C70145
:1000D00025E030E040E050E00E94DD08672B682B0F
:1000E000692B91F1B601C70124E130E040E050E016
:1000F0000E94DD08672B682B692BB1F0FF90EF9011
:10010000DF90CF9008950E944304809371000E9475
:100110006D0480937000C0906C00D0906D00E090F2
:100120006E00F0906F00D2CF80EB0E947C061092A0
:100130006C0010926D0010926E0010926F00FF9094
:10014000EF90DF90CF90089540E068E080E00E945B
:100150004E0360E083E690E00E942C0340E068E0FC
:1001600080E00E944E0360E0809171000E9486034F
:1001700040E068E081E00E944E0360E083E690E0AA
:100180000E942C0340E068E081E00E944E0360E0A2
:10019000809170000E94860360E083E690E00E94F8
:1001A0002C03C0906C00D0906D00E0906E00F09039
:1001B0006F0098CF60916000709161008091620043
:1001C0000E94570682E00E9471066BE470E080E0B6
:1001D0000C948006813010F021F008958091710018
:1001E00008958091700008950C943D0108958091C8
:1001F0007200813011F080E008951092720008952D
:100200000E94E20380E00E944E020E9462040E946B
:1002100038040E9420010E94330166E083E00E94BE
:100220009C0583E00E94F90584EF90E00E941F0680
:100230000E944F0641E067E083E00C94FF040895BC
:1002400040E060E081E00E94C40441E060E081E0C1
:100250000C94FF0460E081E00E943A05982F81E051
:10026000911180E0089541E067E081E00E94C404BC
:1002700040E067E081E00C94FF0441E067E081E04A
:100280000C94FF0440E067E081E00C94FF0467E019
:1002900081E00E943A0541E0811140E067E081E0A1
:1002A0000C94FF04CF93C82F40E062E082E00E94EC
:1002B000FF04C4FB442740F964E082E00E94FF048D
:1002C000C5FB442740F965E082E00E94FF04C6FBBD
:1002D000442740F966E082E00E94FF04C7FB442700
:1002E00040F967E082E00E94FF0441E063E082E0C1
:1002F0000E94FF048FEC97E00197F1F700C0000027
:1003000040E063E082E00E94FF044C2F417064E013
:1003100082E00E94FF04C1FB442740F965E082E0CF
:100320000E94FF04C2FB442740F966E082E00E947D
:10033000FF04C3FB442740F967E082E00E94FF040A
:1003400041E063E082E00E94FF048FEC97E00197B8
:10035000F1F700C0000040E063E082E0CF910C9430
:10036000FF04CF93C82F613020F009F45FC0CF9114
:10037000089541E062E082E00E94FF04C4FB44274C
:1003800040F964E082E00E94FF04C5FB442740F985
:1003900065E082E00E94FF04C6FB442740F966E066
:1003A00082E00E94FF04C7FB442740F967E082E037
:1003B0000E94FF0441E063E082E00E94FF048FECB2
:1003C00097E00197F1F700C0000040E063E082E0B1
:1003D0000E94FF044C2F417064E082E00E94FF0401
:1003E000C1FB442740F965E082E00E94FF04C2FBA4
:1003F000442740F966E082E00E94FF04C3FB4427E3
:1004000040F967E082E00E94FF0441E063E082E09F
:100410000E94FF048FEC97E00197F1F700C0000005
:1004200040E063E082E0CF910C94FF0441E062E0A1
:1004300082E00E94FF046C2F82E00E947A05E5CFE3
:10044000CF93DF930F92CDB7DEB78983613028F069
:1004500049F00F90DF91CF9108950F90DF91CF91E8
:100460000C94520140E062E082E00E94FF04698146
:1004700082E00E947A0541E063E082E00E94FF048E
:100480008FEC97E00197F1F700C0000040E063E0D7
:1004900082E00F90DF91CF910C94FF04813018F02F
:1004A00009F446C0089560EF82E00E946A0541E0C9
:1004B00062E082E00E94C40441E063E082E00E94C6
:1004C000C4042FEB8AED90E0215080409040E1F78A
:1004D00000C0000082E00E9452018FE99FE0019776
:1004E000F1F700C0000088E20E9452018FEC97E013
:1004F0000197F1F700C000008CE00E9452018FECE0
:1005000097E00197F1F700C0000081E00E945201DE
:100510008FE99FE00197F1F700C0000086E00E949C
:1005200052018FEC97E00197F1F700C000000895A9
:100530006FEF82E00E946A0541E062E082E00E9483
:10054000C40441E063E082E00E94C4049FEB2AED12
:1005500080E0915020408040E1F700C0000040E082
:1005600062E082E00E94FF0468E382E00E947A0574
:1005700041E063E082E00E94FF048FEC97E0019786
:10058000F1F700C0000040E063E082E00E94FF0459
:100590008FEC97E00197F1F700C0000040E062E0C7
:1005A00082E00E94FF046EE082E00E947A0541E052
:1005B00063E082E00E94FF048FEC97E00197F1F77F
:1005C00000C0000040E063E082E00E94FF048FEC86
:1005D00097E00197F1F700C0000040E062E082E0A0
:1005E0000E94FF0461E082E00E947A0541E063E03E
:1005F00082E00E94FF048FEC97E00197F1F700C0C2
:10060000000040E063E082E00E94FF048FE99FE089
:100610000197F1F700C0000040E062E082E00E9434
:10062000FF0466E082E00E947A0541E063E082E038
:100630000E94FF048FEC97E00197F1F700C00000E3
:1006400040E063E082E00E94FF048FEC97E00197B6
:10065000F1F700C0000008950F931F93CF93DF932D
:1006600000D0CDB7DEB78C016983FC018081811594
:1006700071F01A8269810E94B101FA81FF5FFA83E9
:10068000F8018A81E80FF11D80818111F3CF0F906D
:100690000F90DF91CF911F910F910895CF93DF932A
:1006A0000F92CDB7DEB7813060F051F080E88983DA
:1006B000413058F489810F90DF91CF910C94520111
:1006C000605C606869834130A8F321F00F90DF918E
:1006D000CF91089540E062E082E00E94FF046981CA
:1006E00082E00E947A0541E063E082E00E94FF041C
:1006F0008FEC97E00197F1F700C0000040E063E065
:1007000082E00F90DF91CF910C94FF04EF92FF9263
:100710000F931F93CF93DF93CDB7DEB72B970FB611
:10072000F894DEBF0FBECDBF6B878115E1F130E0DD
:100730008E010F5F1F4F5DEC432F3F5FF801E40F09
:10074000F11D859F912D1124969596959695292FAB
:10075000220F220F290F220F682F621B262F205DE8
:100760002083282F892F2A3038F747FD0FC07801C2
:100770008FEFE81AF80AE40EF11C6B85F7018291FD
:100780007F010E94B101E016F106B9F72B960FB672
:10079000F894DEBF0FBECDBFDF91CF911F910F91B7
:1007A000FF90EF90089580E32B960FB6F894DEBF8C
:1007B0000FBECDBFDF91CF911F910F91FF90EF90B2
:1007C0000C94B10141E066E081E00E94C40441E084
:1007D00062E081E00E94C40441E061E081E00C94A9
:1007E000C4048230A1F190F4811509F43FC040E0C7
:1007F00066E081E00E94FF0441E062E081E00E9447
:10080000FF0440E061E081E00C94FF048330C1F418
:1008100040E066E081E00E94FF0440E062E081E0A9
:100820000E94FF0488B392E0892788BB2FEF84E3FE
:100830009CE0215080409040E1F700C00000089506
:1008400040E066E081E00E94FF0440E0D6CF40E057
:1008500066E081E00E94FF0440E062E081E00E94E7
:10086000FF0441E061E081E00C94FF0441E0E9CF46
:1008700040E060E080E00E94C40481E00E948404C3
:1008800080E00C94A60480E00E94AE0480E00E9408
:10089000B3040E94BC049C01A8E8B3E10E94CE0806
:1008A000672F782F892F90E08695779567958695A5
:1008B000779567952AE030E040E050E00E94DD083F
:1008C000822F089540E061E080E00E94C40481E04E
:1008D0000E94840480E00C94A60481E00E94AE048F
:1008E00080E00E94B3040E94BC049C01A8E8B3E12C
:1008F0000E94CE08A92F982F872FA69597958795A8
:10090000A6959795879508958130A1F0823051F092
:10091000811102C03E983F9886B1887F866086B973
:10092000379A08953E9A3F9A86B1887F866086B945
:10093000379A08953E9A3F9886B1887F866086B937
:10094000379A0895379A089537980895813010F4AA
:100950003D98089509F008953D9A089597B1907EC5
:10096000892B87B90895811101C0369A089596B1EF
:10097000987F892B86B90895369A349BFECF349A96
:1009800084B125B1922F0895843020F4683010F49A
:10099000423008F0089521E001C0220F6A95EAF77D
:1009A000413079F020958230B1F0833031F08130E0
:1009B000B1F08AB382238ABB089581B3822381BBBD
:1009C00008958230C1F0833091F0813061F08AB3B4
:1009D000822B8ABB089584B3822384BB089587B396
:1009E000822387BB089587B3822B87BB089581B389
:1009F000822B81BB089584B3822B84BB08958430FD
:100A000020F4683010F4423008F0089521E001C06D
:100A1000220F6A95EAF7413079F020958230B1F0E3
:100A2000833031F08130B1F08BB382238BBB0895DA
:100A300082B3822382BB08958230C1F0833091F06B
:100A4000813061F08BB3822B8BBB089585B38223F9
:100A500085BB089588B3822388BB089588B3822B11
:100A600088BB089582B3822B82BB089585B3822B05
:100A700085BB0895843088F4683078F4823009F1B9
:100A80008330B1F0813059F089B390E002C0959580
:100A900087956A95E2F78170089580E0089586B39E
:100AA00090E002C0959587956A95E2F78170089568
:100AB00080B390E002C0959587956A95E2F78170C2
:100AC000089583B390E002C0959587956A95E2F703
:100AD00081700895843048F4823051F0833021F0E1
:100AE000813021F06ABB089561BB089567BB08950A
:100AF00064BB0895843048F4823051F0833021F093
:100B0000813021F06BBB089562BB089568BB0895E6
:100B100065BB0895843040F4823051F0833051F049
:100B2000813021F089B3089580E0089586B3089557
:100B300083B3089580B308958330B1F0843019F001
:100B4000853009F10895643069F1653009F443C0D6
:100B5000663009F447C06730A9F785B7846085BF60
:100B600085B7886085BF0895643019F1653099F0C4
:100B7000663031F1673031F785B7816085BF85B761
:100B8000826085BF0895663011F16730D9F684B769
:100B9000806484BF089585B7816085BF85B78D7FE8
:100BA00085BF089585B78B7F85BF85B7877F85BF54
:100BB000089585B78E7F85BF85B78D7F85BF0895E2
:100BC00085B78E7F85BF85B7826085BF089584B75E
:100BD0008F7B84BF089585B7846085BF85B7877F85
:100BE00085BF089585B78B7F85BF85B7886085BF32
:100BF0000895833049F0843019F0853049F0089524
:100C00008BB780688BBF08958BB780648BBF0895C6
:100C10008BB780628BBF0895833049F0843019F020
:100C2000853049F008958BB78F778BBF08958BB7C8
:100C30008F7B8BBF08958BB78F7D8BBF08950097F7
:100C400021F0809373009093740008951F920F9287
:100C50000FB60F9211242F933F934F935F936F938F
:100C60007F938F939F93AF93BF93EF93FF93E09105
:100C70007300F0917400309709F00995FF91EF919E
:100C8000BF91AF919F918F917F916F915F914F91A4
:100C90003F912F910F900FBE0F901F9018958FB717
:100CA00080688FBF08958FB78F778FBF08956130A9
:100CB00058F483B78F7B83BF83B7877F83BF72BFAF
:100CC00089B7816089BF089509F0089593B79F7B24
:100CD00093BF93B7986093BF8CBF89B7826089BF79
:100CE0000895811521F093B7987F892B83BF0895CC
:100CF00083B7887F83BF089582BF08958CBF08950E
:100D0000813040F46115710531F060937700709384
:100D10007800089509F0089561157105E1F3609375
:100D200075007093760008951F920F920FB60F9280
:100D300011242F933F934F935F936F937F938F93E0
:100D40009F93AF93BF93EF93FF93E0917500F09162
:100D50007600309709F00995FF91EF91BF91AF911F
:100D60009F918F917F916F915F914F913F912F91C3
:100D70000F900FBE0F901F9018951F920F920FB6F5
:100D80000F9211242F933F934F935F936F937F9311
:100D90008F939F93AF93BF93EF93FF93E09177006F
:100DA000F0917800309709F00995FF91EF91BF918C
:100DB000AF919F918F917F916F915F914F913F91F3
:100DC0002F910F900FBE0F901F901895EF92FF92EA
:100DD0000F931F93CF93DF93CDB7DEB72B970FB64B
:100DE000F894DEBF0FBECDBFBE2DE982AF2DFA82D3
:100DF000E02F0B83912F1C83F22F2D833E834F8393
:100E000058876987172F7A87082F8B874E815F81D4
:100E100068857985E0927900F0927A00E0937B0012
:100E200090937C0020937D0040937E0050937F0040
:100E30006093800070938100109382008093830000
:100E400080ECB13009F080E8E13009F47CC0E23098
:100E500009F460C0A13009F461C0913068F059F024
:100E6000923009F47DC0933009F472C0943029F4B3
:100E70008660529A02C08260529880BDF13008F0BC
:100E80003FC05998440F551F661F771F440F551FC9
:100E9000661F771F9A01AB01220F331F441F551F96
:100EA000220F331F441F551F60E072E18AE790E074
:100EB0000E94DD0821503109922F832F99B980BDFE
:100EC0005798569855981150173048F4E12FF0E094
:100ED000E95FF64F0C94FF08569A579A559A0130DD
:100EE00098F4549A53982B960FB6F894DEBF0FBE21
:100EF000CDBFDF91CF911F910F91FF90EF9008959B
:100F000079F080E090E0DACF01F1023061F7549A95
:100F1000539AE9CF8063A13009F09FCF88609DCFBD
:100F2000599A9A01AB01220F331F441F551F220FFC
:100F3000331F441F551F220F331F441F551FB4CFAB
:100F4000579A569ACCCF806285CF539A5498CBCF7C
:100F50008660529892CF579AC2CF569A559ABFCF71
:100F6000846052988ACF9C015D9BFECF80917C006B
:100F7000843011F02CB90895509830FFFBCF509A6F
:100F80002CB908955F9BFECF80917C00843009F4DA
:100F90008AB18CB18CB190E00895DC019C919115DF
:100FA00081F020E080917C005D9BFECF843009F4CD
:100FB00050989CB92F5FFD01E20FF11D90819111B6
:100FC000F3CF0895DC01892BD9F05F9BFECF809190
:100FD0007C008430B1F09CB19CB19C936917B9F04E
:100FE00090E09F5F5F9BFECF843009F42AB12CB163
:100FF0002CB1FD01E90FF11D20836213F2CF1082A5
:1010000008959AB19CB19CB19C936913E9CFFD01FD
:10101000108208956115710579F0FC01680F791F40
:1010200090917C0081915D9BFECF943009F45098A3
:101030008CB9E617F707B1F70895549A0895539AB3
:10104000089554980895539808950895579A0895C7
:10105000569A0895559A0895579808955698089560
:1010600055980895009721F0809388009093890007
:101070000895009721F0809386009093870008954B
:10108000009721F0809384009093850008951F922B
:101090000F920FB60F9211242F933F934F935F93AC
:1010A0006F937F938F939F93AF93BF93EF93FF9330
:1010B000E0918800F0918900309719F080E090E08D
:1010C0000995FF91EF91BF91AF919F918F917F9182
:1010D0006F915F914F913F912F910F900FBE0F90A5
:1010E0001F9018951F920F920FB60F9211242F93F5
:1010F0003F934F935F936F937F938F939F93AF93A0
:10110000BF93EF93FF93E0918600F09187003097B3
:1011100009F00995FF91EF91BF91AF919F918F9148
:101120007F916F915F914F913F912F910F900FBEE3
:101130000F901F9018951F920F920FB60F921124C7
:101140002F933F934F935F936F937F938F939F93CF
:10115000AF93BF93EF93FF93E0918400F0918500EC
:10116000309709F00995FF91EF91BF91AF919F9151
:101170008F917F916F915F914F913F912F910F9040
:101180000FBE0F901F90189541E050E067E070E0AF
:1011900083E090E00E94C4040C940001A29FB0017F
:1011A000B39FC001A39F700D811D1124911DB29F9B
:1011B000700D811D1124911D0895A1E21A2EAA1B04
:1011C000BB1BFD010DC0AA1FBB1FEE1FFF1FA217F7
:1011D000B307E407F50720F0A21BB30BE40BF50BF4
:1011E000661F771F881F991F1A9469F7609570957D
:1011F000809590959B01AC01BD01CF010895EE0F44
:10120000FF1F0590F491E02D0994F894FFCFAB07F0
:0C121000A1076E07A0076D07AD076C0773
:0C121C0000B00020202020202020200016
:00000001FF
