:100000000C942A000C94DD060C9447000C944700D5
:100010000C9447000C9447000C9447000C94470044
:100020000C9447000C9447000C944B070C947407F5
:100030000C9447000C94FE080C9452090C94290966
:100040000C9447000C9447000C9447000C94470014
:100050000C94470011241FBECFE5D8E0DEBFCDBF12
:1000600011E0A0E6B0E0E4E8F3E102C005900D92F3
:10007000A033B107D9F721E0A0E3B1E001C01D92A0
:10008000AF34B207E1F70E947B090C94B9090C94D4
:100090000000EF92FF920F931F93E0906000F090AA
:1000A0006100009162001091630020916400309122
:1000B0006500409166005091670060916800709102
:1000C000690080916A000E949D0785E790E00E9488
:1000D00084088AE890E01F910F91FF90EF900C94B4
:1000E00084088DE990E00E94840880E00E947201FB
:1000F00090E00E946A088EEB90E00E94840886EAF5
:1001000090E00E94840881E00E94720190E00E94C9
:100110006A088EEB90E00C9484088FEA90E00C94CF
:10012000840881EC90E00C9484088EEC90E00C94B0
:10013000840882EE90E00C94840881EF90E00C94A7
:100140008408CF92DF92EF92FF92C0903001D0905E
:100150003101E0903201F09033018FEFC81AD80AD4
:10016000E80AF80AC0923001D0923101E0923201DF
:10017000F0923301C0FE23C080913501833009F431
:100180008AC0B601C70125E030E040E050E00E949F
:100190009109672B682B692B09F447C0B601C70189
:1001A00024E130E040E050E00E949109672B682B89
:1001B000692B49F1FF90EF90DF90CF9008950E9456
:1001C000E1018093340180913501833009F463C0EB
:1001D000C0903001D0903101E0903201F0903301B5
:1001E000C0FCCFCF0E94FA04809337010E942405FF
:1001F00080933601C0903001D0903101E0903201FF
:10020000F0903301BECF0E94710080EB0E94330753
:10021000109230011092310110923201109233018C
:10022000FF90EF90DF90CF90089540E068E080E08D
:100230000E94050460E08DEF90E00E94E30340E03F
:1002400068E080E00E94050460E0809137010E9430
:100250003D0440E068E081E00E94050460E08DEF2D
:1002600090E00E94E30340E068E081E00E94050422
:1002700060E0809136010E943D0460E08DEF90E0E7
:100280000E94E303C0903001D0903101E090320130
:10029000F090330183CF0E949D000E947C018091E9
:1002A0003401813079F70E949500109235010E9447
:1002B0008F01C0903001D0903101E0903201F09078
:1002C00033016CCF60916B0070916C0080916D0078
:1002D0000E940E0782E00E94280761EA70E080E039
:1002E0000C943707813010F021F008958091370188
:1002F000089580913601089560E081E00E94D70260
:1003000060E086E091E00E94E30340E060E081E08D
:100310000E94050460E080E191E00C94E30360E05A
:1003200081E00E94D70260E08DE990E00E94E30343
:1003300040E060E081E00E94050460E086EA90E031
:100340000C94E3030E94990480E00E9405030E943C
:1003500019050E94EF040E94D7010E94EA010E9441
:1003600049000E94620160E081E291E00E94E303A3
:100370002FEF83ED90E3215080409040E1F700C0E3
:10038000000060E081E00E94D70260E08DE990E02B
:100390000E94E30340E060E081E00E94050460E029
:1003A00086EA90E00E94E3030C940607089540E07B
:1003B00060E081E00E947B0541E060E081E00C9418
:1003C000B60560E081E00E94F105982F81E091116F
:1003D00080E0089541E067E081E00E947B0540E015
:1003E00067E081E00C94B60541E067E081E00C94A1
:1003F000B60540E067E081E00C94B60567E081E077
:100400000E94F10541E0811140E067E081E00C9439
:10041000B605CF93C82F40E062E082E00E94B605A7
:10042000C4FB442740F964E082E00E94B605C5FBA6
:10043000442740F965E082E00E94B605C6FB4427E8
:1004400040F966E082E00E94B605C7FB442740F908
:1004500067E082E00E94B60541E063E082E00E942E
:10046000B6058FEC97E00197F1F700C0000040E07F
:1004700063E082E00E94B6054C2F417064E082E0A8
:100480000E94B605C1FB442740F965E082E00E9466
:10049000B605C2FB442740F966E082E00E94B6053B
:1004A000C3FB442740F967E082E00E94B60541E0C3
:1004B00063E082E00E94B6058FEC97E00197F1F7C8
:1004C00000C0000040E063E082E0CF910C94B605EC
:1004D000CF93C82F613020F009F45FC0CF91089509
:1004E00041E062E082E00E94B605C4FB442740F987
:1004F00064E082E00E94B605C5FB442740F965E050
:1005000082E00E94B605C6FB442740F966E082E01F
:100510000E94B605C7FB442740F967E082E00E94CD
:10052000B60541E063E082E00E94B6058FEC97E0FB
:100530000197F1F700C0000040E063E082E00E9414
:10054000B6054C2F417064E082E00E94B605C1FB05
:10055000442740F965E082E00E94B605C2FB4427CB
:1005600040F966E082E00E94B605C3FB442740F9EB
:1005700067E082E00E94B60541E063E082E00E940D
:10058000B6058FEC97E00197F1F700C0000040E05E
:1005900063E082E0CF910C94B60541E062E082E036
:1005A0000E94B6056C2F82E00E943106E5CFCF9302
:1005B000DF930F92CDB7DEB78983613028F049F021
:1005C0000F90DF91CF9108950F90DF91CF910C9410
:1005D000090240E062E082E00E94B605698182E0A3
:1005E0000E94310641E063E082E00E94B6058FEC94
:1005F00097E00197F1F700C0000040E063E082E07F
:100600000F90DF91CF910C94B605813018F009F46A
:1006100046C0089560EF82E00E94210641E062E05A
:1006200082E00E947B0541E063E082E00E947B055E
:100630002FEB8AED90E0215080409040E1F700C020
:10064000000082E00E9409028FE99FE00197F1F724
:1006500000C0000088E20E9409028FEC97E0019739
:10066000F1F700C000008CE00E9409028FEC97E0D7
:100670000197F1F700C0000081E00E9409028FE9B4
:100680009FE00197F1F700C0000086E00E94090298
:100690008FEC97E00197F1F700C0000008956FEF2D
:1006A00082E00E94210641E062E082E00E947B0538
:1006B00041E063E082E00E947B059FEB2AED80E051
:1006C000915020408040E1F700C0000040E062E02F
:1006D00082E00E94B60568E382E00E94310641E0B4
:1006E00063E082E00E94B6058FEC97E00197F1F796
:1006F00000C0000040E063E082E00E94B6058FEC9D
:1007000097E00197F1F700C0000040E062E082E06E
:100710000E94B6056EE082E00E94310641E063E08F
:1007200082E00E94B6058FEC97E00197F1F700C0D8
:10073000000040E063E082E00E94B6058FEC97E0A5
:100740000197F1F700C0000040E062E082E00E9403
:10075000B60561E082E00E94310641E063E082E09C
:100760000E94B6058FEC97E00197F1F700C00000FA
:1007700040E063E082E00E94B6058FE99FE00197C8
:10078000F1F700C0000040E062E082E00E94B605A0
:1007900066E082E00E94310641E063E082E00E9470
:1007A000B6058FEC97E00197F1F700C0000040E03C
:1007B00063E082E00E94B6058FEC97E00197F1F7C5
:1007C00000C0000008950F931F93CF93DF9300D0D4
:1007D000CDB7DEB78C016983FC018081811571F092
:1007E0001A8269810E946802FA81FF5FFA83F80128
:1007F0008A81E80FF11D80818111F3CF0F900F9056
:10080000DF91CF911F910F910895CF93DF930F92B6
:10081000CDB7DEB7813060F051F080E88983413098
:1008200058F489810F90DF91CF910C940902605C9C
:10083000606869834130A8F321F00F90DF91CF9178
:10084000089540E062E082E00E94B605698182E09E
:100850000E94310641E063E082E00E94B6058FEC21
:1008600097E00197F1F700C0000040E063E082E00C
:100870000F90DF91CF910C94B605EF92FF920F93FA
:100880001F93CF93DF93CDB7DEB72B970FB6F894B6
:10089000DEBF0FBECDBF6B878115E1F130E08E0169
:1008A0000F5F1F4F5DEC432F3F5FF801E40FF11D19
:1008B000859F912D1124969596959695292F220F17
:1008C000220F290F220F682F621B262F205D208305
:1008D000282F892F2A3038F747FD0FC078018FEF76
:1008E000E81AF80AE40EF11C6B85F70182917F018A
:1008F0000E946802E016F106B9F72B960FB6F8943D
:10090000DEBF0FBECDBFDF91CF911F910F91FF9042
:10091000EF90089580E32B960FB6F894DEBF0FBEDC
:10092000CDBFDF91CF911F910F91FF90EF900C946D
:10093000680241E066E081E00E947B0541E062E000
:1009400081E00E947B0541E061E081E00C947B0541
:100950008230A1F190F4811509F43FC040E066E0D7
:1009600081E00E94B60541E062E081E00E94B605A8
:1009700040E061E081E00C94B6058330C1F440E0D2
:1009800066E081E00E94B60540E062E081E00E94FE
:10099000B60588B392E0892788BB2FEF84E39CE0FB
:1009A000215080409040E1F700C00000089540E0F1
:1009B00066E081E00E94B60540E0D6CF40E066E008
:1009C00081E00E94B60540E062E081E00E94B60549
:1009D00041E061E081E00C94B60541E0E9CF40E000
:1009E00060E080E00E947B0581E00E943B0580E0A2
:1009F0000C945D0580E00E94650580E00E946A0518
:100A00000E9473059C01A8E8B3E10E948209672F48
:100A1000782F892F90E086957795679586957795BD
:100A200067952AE030E040E050E00E949109822F73
:100A3000089540E061E080E00E947B0581E00E9433
:100A40003B0580E00C945D0581E00E94650580E037
:100A50000E946A050E9473059C01A8E8B3E10E9408
:100A60008209A92F982F872FA69597958795A695E8
:100A70009795879508958130A1F0823051F08111CA
:100A800002C03E983F9886B1887F866086B9379AC3
:100A900008953E9A3F9A86B1887F866086B9379AD4
:100AA00008953E9A3F9886B1887F866086B9379AC6
:100AB0000895379A089537980895813010F43D9835
:100AC000089509F008953D9A089597B1907E892B75
:100AD00087B90895811101C0369A089596B1987F1B
:100AE000892B86B90895369A349BFECF349A84B107
:100AF00025B1922F0895843020F4683010F44230EC
:100B000008F0089521E001C0220F6A95EAF741300C
:100B100079F020958230B1F0833031F08130B1F03E
:100B20008AB382238ABB089581B3822381BB08954F
:100B30008230C1F0833091F0813061F08AB3822B32
:100B40008ABB089584B3822384BB089587B382232C
:100B500087BB089587B3822B87BB089581B3822B0F
:100B600081BB089584B3822B84BB0895843020F424
:100B7000683010F4423008F0089521E001C0220FDF
:100B80006A95EAF7413079F020958230B1F08330F0
:100B900031F08130B1F08BB382238BBB089582B3E7
:100BA000822382BB08958230C1F0833091F081307E
:100BB00061F08BB3822B8BBB089585B3822385BBF9
:100BC000089588B3822388BB089588B3822B88BB9D
:100BD000089582B3822B82BB089585B3822B85BB97
:100BE0000895843088F4683078F4823009F18330D5
:100BF000B1F0813059F089B390E002C095958795A6
:100C00006A95E2F78170089580E0089586B390E0D8
:100C100002C0959587956A95E2F78170089580B333
:100C200090E002C0959587956A95E2F781700895E6
:100C300083B390E002C0959587956A95E2F781703D
:100C40000895843048F4823051F0833021F08130AF
:100C500021F06ABB089561BB089567BB089564BB2A
:100C60000895843048F4823051F0833021F081308F
:100C700021F06BBB089562BB089568BB089565BB06
:100C80000895843040F4823051F0833051F0813047
:100C900021F089B3089580E0089586B3089583B361
:100CA000089580B308958330B1F0843019F0853011
:100CB00009F10895643069F1653009F443C0663084
:100CC00009F447C06730A9F785B7846085BF85B749
:100CD000886085BF0895643019F1653099F06630F9
:100CE00031F1673031F785B7816085BF85B78260A4
:100CF00085BF0895663011F16730D9F684B78064F6
:100D000084BF089585B7816085BF85B78D7F85BF16
:100D1000089585B78B7F85BF85B7877F85BF089589
:100D200085B78E7F85BF85B78D7F85BF089585B7D1
:100D30008E7F85BF85B7826085BF089584B78F7B1E
:100D400084BF089585B7846085BF85B7877F85BFD9
:100D5000089585B78B7F85BF85B7886085BF089567
:100D6000833049F0843019F0853049F008958BB70D
:100D700080688BBF08958BB780648BBF08958BB755
:100D800080628BBF0895833049F0843019F085303C
:100D900049F008958BB78F778BBF08958BB78F7B02
:100DA0008BBF08958BB78F7D8BBF0895009721F07F
:100DB000809338019093390108951F920F920FB6D6
:100DC0000F9211242F933F934F935F936F937F93D1
:100DD0008F939F93AF93BF93EF93FF93E09138016D
:100DE000F0913901309709F00995FF91EF91BF918A
:100DF000AF919F918F917F916F915F914F913F91B3
:100E00002F910F900FBE0F901F9018958FB780688D
:100E10008FBF08958FB78F778FBF0895613058F4D3
:100E200083B78F7B83BF83B7877F83BF72BF89B749
:100E3000816089BF089509F0089593B79F7B93BFA0
:100E400093B7986093BF8CBF89B7826089BF0895BC
:100E5000811521F093B7987F892B83BF089583B7BD
:100E6000887F83BF089582BF08958CBF0895813025
:100E700040F46115710531F060933C0170933D01C0
:100E8000089509F0089561157105E1F360933A0141
:100E900070933B0108951F920F920FB60F92112489
:100EA0002F933F934F935F936F937F938F939F9372
:100EB000AF93BF93EF93FF93E0913A01F0913B0121
:100EC000309709F00995FF91EF91BF91AF919F91F4
:100ED0008F917F916F915F914F913F912F910F90E3
:100EE0000FBE0F901F9018951F920F920FB60F9282
:100EF00011242F933F934F935F936F937F938F931F
:100F00009F93AF93BF93EF93FF93E0913C01F091D8
:100F10003D01309709F00995FF91EF91BF91AF9195
:100F20009F918F917F916F915F914F913F912F9101
:100F30000F900FBE0F901F901895EF92FF920F9396
:100F40001F93CF93DF93CDB7DEB72B970FB6F894EF
:100F5000DEBF0FBECDBFBE2DE982AF2DFA82E02FDE
:100F60000B83912F1C83F22F2D833E834F83588751
:100F70006987172F7A87082F8B874E815F81688555
:100F80007985E0923E01F0923F01E0934001909319
:100F900041012093420140934301509344016093E7
:100FA000450170934601109347018093480180ECFE
:100FB000B13009F080E8E13009F47CC0E23009F496
:100FC00060C0A13009F461C0913068F059F09230EE
:100FD00009F47DC0933009F472C0943029F486601E
:100FE000529A02C08260529880BDF13008F03FC032
:100FF0005998440F551F661F771F440F551F661FD2
:10100000771F9A01AB01220F331F441F551F220F78
:10101000331F441F551F60E072E18AE790E00E9491
:10102000910921503109922F832F99B980BD57988A
:10103000569855981150173048F4E12FF0E0E554D8
:10104000F64F0C94B309569A579A559A013098F472
:10105000549A53982B960FB6F894DEBF0FBECDBFAF
:10106000DF91CF911F910F91FF90EF90089579F04C
:1010700080E090E0DACF01F1023061F7549A539AA0
:10108000E9CF8063A13009F09FCF88609DCF599A46
:101090009A01AB01220F331F441F551F220F331F2C
:1010A000441F551F220F331F441F551FB4CF579A9B
:1010B000569ACCCF806285CF539A5498CBCF866016
:1010C000529892CF579AC2CF569A559ABFCF846002
:1010D00052988ACF9C015D9BFECF80914101843064
:1010E00011F02CB90895509830FFFBCF509A2CB9CD
:1010F00008955F9BFECF80914101843009F48AB14D
:101100008CB18CB190E00895DC019C91911581F037
:1011100020E0809141015D9BFECF843009F450981E
:101120009CB92F5FFD01E20FF11D90819111F3CF6A
:101130000895DC01892BD9F05F9BFECF809141019E
:101140008430B1F09CB19CB19C936917B9F090E0E8
:101150009F5F5F9BFECF843009F42AB12CB12CB184
:10116000FD01E90FF11D20836213F2CF1082089573
:101170009AB19CB19CB19C936913E9CFFD01108297
:1011800008956115710579F0FC01680F791F909140
:10119000410181915D9BFECF943009F450988CB948
:1011A000E617F707B1F70895549A0895539A0895EA
:1011B00054980895539808950895579A0895569A03
:1011C0000895559A089557980895569808955598F2
:1011D0000895009721F080934D0190934E0108955A
:1011E000009721F080934B0190934C010895009754
:1011F00021F08093490190934A0108951F920F9224
:101200000FB60F9211242F933F934F935F936F93D9
:101210007F938F939F93AF93BF93EF93FF93E0914F
:101220004D01F0914E01309719F080E090E0099562
:10123000FF91EF91BF91AF919F918F917F916F91AE
:101240005F914F913F912F910F900FBE0F901F9084
:1012500018951F920F920FB60F9211242F933F9360
:101260004F935F936F937F938F939F93AF93BF93AE
:10127000EF93FF93E0914B01F0914C01309709F00F
:101280000995FF91EF91BF91AF919F918F917F91C0
:101290006F915F914F913F912F910F900FBE0F90E3
:1012A0001F9018951F920F920FB60F9211242F9333
:1012B0003F934F935F936F937F938F939F93AF93DE
:1012C000BF93EF93FF93E0914901F0914A0130976A
:1012D00009F00995FF91EF91BF91AF919F918F9187
:1012E0007F916F915F914F913F912F910F900FBE22
:1012F0000F901F9018950E94A2018EE690E00E9428
:101300008408FBCFA29FB001B39FC001A39F700DC3
:10131000811D1124911DB29F700D811D1124911DFD
:101320000895A1E21A2EAA1BBB1BFD010DC0AA1F26
:10133000BB1FEE1FFF1FA217B307E407F50720F03E
:10134000A21BB30BE40BF50B661F771F881F991FB9
:101350001A9469F760957095809590959B01AC0102
:10136000BD01CF010895EE0FFF1F0590F491E02D10
:101370000994F894FFCF62085808250857082408F4
:0413800064082308D2
:10138400000000030080250000000200B000746526
:1013940073740D0A0073797374656D20696E6974D2
:1013A40069616C697A65640D0A007265616479200B
:1013B400746F206D6F6E69746F720D0A0074656DC1
:1013C4007020203A2000736D6F6B65203A2000571F
:1013D40041524E494E47204C4556454C20310D0A4A
:1013E400004649524520414C41524D0D0A00555387
:1013F40045522041434B4E4F574C45444745440DBD
:101404000A0053595354454D2052455345540D0A2F
:1014140000454D455247454E43590D0A00202020B2
:10142400202020202000454D455247454E43590079
:1014340070726573732074686520627574746F6E5E
:10144400005359533A696E697420646F6E650000E5
:00000001FF
