:100000000C942A000C949F070C9447000C94470012
:100010000C9447000C9447000C9447000C94470044
:100020000C9447000C9447000C940D080C9436086F
:100030000C9447000C94C0090C94140A0C94EB091E
:100040000C9447000C9447000C9447000C94470014
:100050000C94470011241FBECFE5D8E0DEBFCDBF12
:1000600011E0A0E6B0E0E4E0F5E102C005900D92F9
:10007000A434B107D9F721E0A4E4B1E001C01D9296
:10008000A336B207E1F70E943D0A0C94790A0C945A
:100090000000CF93DF930F92CDB7DEB783E00E94CD
:1000A0006A050E94C00260E081E00E94990360E05E
:1000B0008EE690E00E94A50480E00E9434028983CD
:1000C00081E00E9434029981973430F4893C20F415
:1000D0000F90DF91CF91089583E00F90DF91CF9142
:1000E0000895CF93DF930F92CDB7DEB780E00E94E3
:1000F0003402898381E00E94340299819D539A30B1
:1001000090F08B5A8E3178F082E00E946A0560E0B0
:100110008CE790E00E94A5040E94B60281E00F9057
:10012000DF91CF9108950F90DF91CF910C9449000A
:10013000CF93DF930F92CDB7DEB780E00E943402F9
:10014000898381E00E94340299819D3260F4863473
:1001500050F480E00E946A050E94BB0280E00F908C
:10016000DF91CF9108950F90DF91CF910C94B8005B
:10017000CF93DF930F92CDB7DEB780E00E943402B9
:10018000898381E00E94340299819C3360F48A3A29
:1001900050F481E00E946A050E94BB0281E00F904A
:1001A000DF91CF9108950F90DF91CF910C94710062
:1001B000EF92FF920F931F93E0906000F090610028
:1001C00000916200109163002091640030916500FD
:1001D00040916600509167006091680070916900DD
:1001E00080916A000E945F0885E890E00E944609BD
:1001F0008AE990E01F910F91FF90EF900C944609CF
:100200008DEA90E00E94460980E00E94340290E06E
:100210000E942C098EEC90E00E94460986EB90E04B
:100220000E94460981E00E94340290E00E942C095D
:100230008EEC90E00C9446098FEB90E00C9446090C
:1002400081ED90E00C9446098EED90E00C94460907
:1002500082EF90E00C94460981E091E00C9446090D
:10026000CF93DF9300D000D0CDB7DEB780914401AB
:1002700090914501A0914601B09147010196A11DC1
:10028000B11D8093440190934501A0934601B09322
:10029000470180FF3FC020914901233049F1898304
:1002A0009A83AB83BC8369817A818B819C8125E0B1
:1002B00030E040E050E00E94510A672B682B692B28
:1002C00009F464C069817A818B819C8124E130E0EA
:1002D00040E050E00E94510A672B682B692B09F41B
:1002E00083C00F900F900F900F90DF91CF910895E2
:1002F00080914801813009F48FC080914401909130
:100300004501A0914601B091470189839A83AB834F
:10031000BC83D8CF0E94A3028093480180914901F9
:10032000833031F38091440190914501A0914601C1
:10033000B091470189839A83AB83BC8380FDB3CF9F
:100340000E94BC0580934B010E94E60580934A0100
:100350008091440190914501A0914601B0914701DF
:1003600089839A83AB83BC83BC01CD0125E030E057
:1003700040E050E00E94510A672B682B692B09F07E
:10038000A1CF80914901833009F49CCF40E068E01F
:1003900080E00E94C70460E082E191E00E94A50431
:1003A00040E068E080E00E94C70460E080914B017B
:1003B0000E94FF0440E068E081E00E94C70460E022
:1003C00082E191E00E94A50440E068E081E00E94A3
:1003D000C70460E080914A010E94FF0460E082E16E
:1003E00091E00E94A50489CF0E9498008093490162
:1003F0000E94000180EB0E94F507109244011092C8
:10040000450110924601109247010F900F900F90F6
:100410000F90DF91CF9108950E942401109249011D
:1004200060E08DE091E00E94A5040E94510280915D
:10043000440190914501A0914601B0914701898303
:100440009A83AB83BC833ECF60916B0070916C004C
:1004500080916D000E94D00782E00E94EA0760E36D
:1004600071E080E00C94F907813010F021F00895DC
:1004700080914B01089580914A01089560E081E0E8
:100480000E94990360E08BE191E00E94A50440E0A6
:1004900060E081E00E94C70460E085E291E00C9496
:1004A000A50460E081E00E94990360E08DEA90E09D
:1004B0000E94A50440E060E081E00E94C70460E083
:1004C00086EB90E00C94A5040E945B0580E00E94FE
:1004D000C7030E94DB050E94B1050E9499020E9499
:1004E000AC020E94D8000E94240260E086E391E002
:1004F0000E94A5042FEF83ED90E3215080409040AF
:10050000E1F700C0000060E081E00E94990360E034
:100510008DEA90E00E94A50440E060E081E00E9446
:10052000C70460E086EB90E00E94A5040C94C80725
:10053000089540E060E081E00E943D0641E060E017
:1005400081E00C94780660E081E00E94B306982F69
:1005500081E0911180E0089541E067E081E00E9430
:100560003D0640E067E081E00C94780641E067E0FA
:1005700081E00C94780640E067E081E00C94780616
:1005800067E081E00E94B30641E0811140E067E04E
:1005900081E00C947806CF93C82F40E062E082E0BF
:1005A0000E947806C4FB442740F964E082E00E9480
:1005B0007806C5FB442740F965E082E00E94780692
:1005C000C6FB442740F966E082E00E947806C7FB3C
:1005D000442740F967E082E00E94780641E063E04A
:1005E00082E00E9478068FEC97E00197F1F700C057
:1005F000000040E063E082E00E9478064C2F4170EA
:1006000064E082E00E947806C1FB442740F965E07F
:1006100082E00E947806C2FB442740F966E082E04F
:100620000E947806C3FB442740F967E082E00E94FD
:10063000780641E063E082E00E9478068FEC97E064
:100640000197F1F700C0000040E063E082E0CF9145
:100650000C947806CF93C82F613020F009F45FC066
:10066000CF91089541E062E082E00E947806C4FBE9
:10067000442740F964E082E00E947806C5FB4427E5
:1006800040F965E082E00E947806C6FB442740F905
:1006900066E082E00E947806C7FB442740F967E0E5
:1006A00082E00E94780641E063E082E00E947806E2
:1006B0008FEC97E00197F1F700C0000040E063E0A5
:1006C00082E00E9478064C2F417064E082E00E9434
:1006D0007806C1FB442740F965E082E00E94780675
:1006E000C2FB442740F966E082E00E947806C3FB23
:1006F000442740F967E082E00E94780641E063E029
:1007000082E00E9478068FEC97E00197F1F700C035
:10071000000040E063E082E0CF910C94780641E075
:1007200062E082E00E9478066C2F82E00E94F3066D
:10073000E5CFCF93DF930F92CDB7DEB789836130DA
:1007400028F049F00F90DF91CF9108950F90DF913D
:10075000CF910C94CB0240E062E082E00E947806E8
:10076000698182E00E94F30641E063E082E00E943A
:1007700078068FEC97E00197F1F700C0000040E0A9
:1007800063E082E00F90DF91CF910C947806813086
:1007900018F009F446C0089560EF82E00E94E30675
:1007A00041E062E082E00E943D0641E063E082E0D9
:1007B0000E943D062FEB8AED90E021508040904052
:1007C000E1F700C0000082E00E94CB028FE99FE0C9
:1007D0000197F1F700C0000088E20E94CB028FEC85
:1007E00097E00197F1F700C000008CE00E94CB0277
:1007F0008FEC97E00197F1F700C0000081E00E94C4
:10080000CB028FE99FE00197F1F700C0000086E07E
:100810000E94CB028FEC97E00197F1F700C0000037
:1008200008956FEF82E00E94E30641E062E082E01B
:100830000E943D0641E063E082E00E943D069FEB9E
:100840002AED80E0915020408040E1F700C0000098
:1008500040E062E082E00E94780668E382E00E9465
:10086000F30641E063E082E00E9478068FEC97E0B7
:100870000197F1F700C0000040E063E082E00E94D1
:1008800078068FEC97E00197F1F700C0000040E098
:1008900062E082E00E9478066EE082E00E94F30649
:1008A00041E063E082E00E9478068FEC97E00197D8
:1008B000F1F700C0000040E063E082E00E947806AB
:1008C0008FEC97E00197F1F700C0000040E062E094
:1008D00082E00E94780661E082E00E94F30641E037
:1008E00063E082E00E9478068FEC97E00197F1F7D1
:1008F00000C0000040E063E082E00E9478068FE9DB
:100900009FE00197F1F700C0000040E062E082E064
:100910000E94780666E082E00E94F30641E063E010
:1009200082E00E9478068FEC97E00197F1F700C013
:10093000000040E063E082E00E9478068FEC97E0E0
:100940000197F1F700C0000008950F931F93CF9314
:10095000DF9300D0CDB7DEB78C016983FC018081C5
:10096000811571F01A8269810E942A03FA81FF5F62
:10097000FA83F8018A81E80FF11D80818111F3CF9C
:100980000F900F90DF91CF911F910F910895CF930A
:10099000DF930F92CDB7DEB7813060F051F080E881
:1009A0008983413058F489810F90DF91CF910C9465
:1009B000CB02605C606869834130A8F321F00F903E
:1009C000DF91CF91089540E062E082E00E947806D6
:1009D000698182E00E94F30641E063E082E00E94C8
:1009E00078068FEC97E00197F1F700C0000040E037
:1009F00063E082E00F90DF91CF910C947806EF9244
:100A0000FF920F931F93CF93DF93CDB7DEB72B9752
:100A10000FB6F894DEBF0FBECDBF6B878115E1F135
:100A200030E08E010F5F1F4F5DEC432F3F5FF801F9
:100A3000E40FF11D859F912D11249695969596951D
:100A4000292F220F220F290F220F682F621B262F1A
:100A5000205D2083282F892F2A3038F747FD0FC0CB
:100A600078018FEFE81AF80AE40EF11C6B85F701A4
:100A700082917F010E942A03E016F106B9F72B96B6
:100A80000FB6F894DEBF0FBECDBFDF91CF911F919F
:100A90000F91FF90EF90089580E32B960FB6F89496
:100AA000DEBF0FBECDBFDF91CF911F910F91FF90A1
:100AB000EF900C942A0341E066E081E00E943D063D
:100AC00041E062E081E00E943D0641E061E081E0BA
:100AD0000C943D068230A1F190F4811509F43FC0D9
:100AE00040E066E081E00E94780641E062E081E05B
:100AF0000E94780640E061E081E00C947806833043
:100B0000C1F440E066E081E00E94780640E062E0E7
:100B100081E00E94780688B392E0892788BB2FEF96
:100B200084E39CE0215080409040E1F700C0000049
:100B3000089540E066E081E00E94780640E0D6CF6C
:100B400040E066E081E00E94780640E062E081E0FB
:100B50000E94780641E061E081E00C94780641E073
:100B6000E9CF40E060E080E00E943D0681E00E9425
:100B7000FD0580E00C941F0680E00E94270680E0BF
:100B80000E942C060E9435069C01A8E8B3E10E9451
:100B9000420A672F782F892F90E086957795679581
:100BA0008695779567952AE030E040E050E00E9416
:100BB000510A822F089540E061E080E00E943D06E6
:100BC00081E00E94FD0580E00C941F0681E00E94F8
:100BD000270680E00E942C060E9435069C01A8E8AA
:100BE000B3E10E94420AA92F982F872FA6959795C7
:100BF0008795A6959795879508958130A1F08230C5
:100C000051F0811102C03E983F9886B1887F86607E
:100C100086B9379A08953E9A3F9A86B1887F866052
:100C200086B9379A08953E9A3F9886B1887F866044
:100C300086B9379A0895379A08953798089581307C
:100C400010F43D98089509F008953D9A089597B1DC
:100C5000907E892B87B90895811101C0369A089535
:100C600096B1987F892B86B90895369A349BFECF2A
:100C7000349A84B125B1922F0895843020F46830DD
:100C800010F4423008F0089521E001C0220F6A9567
:100C9000EAF7413079F020958230B1F0833031F0BD
:100CA0008130B1F08AB382238ABB089581B3822355
:100CB00081BB08958230C1F0833091F0813061F0C2
:100CC0008AB3822B8ABB089584B3822384BB0895A0
:100CD00087B3822387BB089587B3822B87BB089590
:100CE00081B3822B81BB089584B3822B84BB08958A
:100CF000843020F4683010F4423008F0089521E088
:100D000001C0220F6A95EAF7413079F020958230D0
:100D1000B1F0833031F08130B1F08BB382238BBBE3
:100D2000089582B3822382BB08958230C1F083305C
:100D300091F0813061F08BB3822B8BBB089585B32A
:100D4000822385BB089588B3822388BB089588B326
:100D5000822B88BB089582B3822B82BB089585B312
:100D6000822B85BB0895843088F4683078F4823013
:100D700009F18330B1F0813059F089B390E002C0BD
:100D8000959587956A95E2F78170089580E00895BA
:100D900086B390E002C0959587956A95E2F78170D9
:100DA000089580B390E002C0959587956A95E2F723
:100DB0008170089583B390E002C0959587956A95F8
:100DC000E2F781700895843048F4823051F0833026
:100DD00021F0813021F06ABB089561BB089567BBA3
:100DE000089564BB0895843048F4823051F0833014
:100DF00021F0813021F06BBB089562BB089568BB80
:100E0000089565BB0895843040F4823051F08330FA
:100E100051F0813021F089B3089580E0089586B3C0
:100E2000089583B3089580B308958330B1F084307A
:100E300019F0853009F10895643069F1653009F4DD
:100E400043C0663009F447C06730A9F785B78460AE
:100E500085BF85B7886085BF0895643019F1653016
:100E600099F0663031F1673031F785B7816085BF21
:100E700085B7826085BF0895663011F16730D9F675
:100E800084B7806484BF089585B7816085BF85B7C6
:100E90008D7F85BF089585B78B7F85BF85B7877F99
:100EA00085BF089585B78E7F85BF85B78D7F85BF48
:100EB000089585B78E7F85BF85B7826085BF089509
:100EC00084B78F7B84BF089585B7846085BF85B75D
:100ED000877F85BF089585B78B7F85BF85B788607D
:100EE00085BF0895833049F0843019F0853049F08A
:100EF00008958BB780688BBF08958BB780648BBFD4
:100F000008958BB780628BBF0895833049F0843099
:100F100019F0853049F008958BB78F778BBF08950E
:100F20008BB78F7B8BBF08958BB78F7D8BBF089559
:100F3000009721F080934C0190934D0108951F92EA
:100F40000F920FB60F9211242F933F934F935F93FD
:100F50006F937F938F939F93AF93BF93EF93FF9381
:100F6000E0914C01F0914D01309709F00995FF9106
:100F7000EF91BF91AF919F918F917F916F915F9111
:100F80004F913F912F910F900FBE0F901F9018958A
:100F90008FB780688FBF08958FB78F778FBF089501
:100FA000613058F483B78F7B83BF83B7877F83BF5C
:100FB00072BF89B7816089BF089509F0089593B71A
:100FC0009F7B93BF93B7986093BF8CBF89B78260B4
:100FD00089BF0895811521F093B7987F892B83BF2E
:100FE000089583B7887F83BF089582BF08958CBF1B
:100FF0000895813040F46115710531F0609350011E
:1010000070935101089509F0089561157105E1F398
:1010100060934E0170934F0108951F920F920FB687
:101020000F9211242F933F934F935F936F937F936E
:101030008F939F93AF93BF93EF93FF93E0914E01F4
:10104000F0914F01309709F00995FF91EF91BF9111
:10105000AF919F918F917F916F915F914F913F9150
:101060002F910F900FBE0F901F9018951F920F9207
:101070000FB60F9211242F933F934F935F936F936B
:101080007F938F939F93AF93BF93EF93FF93E091E1
:101090005001F0915101309709F00995FF91EF91BE
:1010A000BF91AF919F918F917F916F915F914F9180
:1010B0003F912F910F900FBE0F901F901895EF92B8
:1010C000FF920F931F93CF93DF93CDB7DEB72B978C
:1010D0000FB6F894DEBF0FBECDBFBE2DE982AF2D97
:1010E000FA82E02F0B83912F1C83F22F2D833E83F6
:1010F0004F8358876987172F7A87082F8B874E81F0
:101100005F8168857985E0925201F0925301E09306
:1011100054019093550120935601409357015093E9
:1011200058016093590170935A0110935B018093A9
:101130005C0180ECB13009F080E8E13009F47CC05A
:10114000E23009F460C0A13009F461C0913068F068
:1011500059F0923009F47DC0933009F472C0943094
:1011600029F48660529A02C08260529880BDF130A4
:1011700008F03FC05998440F551F661F771F440F52
:10118000551F661F771F9A01AB01220F331F441FA3
:10119000551F220F331F441F551F60E072E18AE77D
:1011A00090E00E94510A21503109922F832F99B962
:1011B00080BD5798569855981150173048F4E12F34
:1011C000F0E0E558F54F0C94730A569A579A559AE1
:1011D000013098F4549A53982B960FB6F894DEBFCA
:1011E0000FBECDBFDF91CF911F910F91FF90EF9078
:1011F000089579F080E090E0DACF01F1023061F7F4
:10120000549A539AE9CF8063A13009F09FCF886048
:101210009DCF599A9A01AB01220F331F441F551FCE
:10122000220F331F441F551F220F331F441F551F0A
:10123000B4CF579A569ACCCF806285CF539A5498A0
:10124000CBCF8660529892CF579AC2CF569A559A72
:10125000BFCF846052988ACF9C015D9BFECF809166
:101260005501843011F02CB90895509830FFFBCF10
:10127000509A2CB908955F9BFECF80915501843020
:1012800009F48AB18CB18CB190E00895DC019C9195
:10129000911581F020E0809155015D9BFECF843057
:1012A00009F450989CB92F5FFD01E20FF11D908168
:1012B0009111F3CF0895DC01892BD9F05F9BFECF0C
:1012C000809155018430B1F09CB19CB19C93691719
:1012D000B9F090E09F5F5F9BFECF843009F42AB1A4
:1012E0002CB12CB1FD01E90FF11D20836213F2CF67
:1012F000108208959AB19CB19CB19C936913E9CF77
:10130000FD01108208956115710579F0FC01680FE7
:10131000791F9091550181915D9BFECF943009F426
:1013200050988CB9E617F707B1F70895549A0895C5
:10133000539A089554980895539808950895579A84
:101340000895569A0895559A08955798089556986D
:10135000089555980895009721F080936101909326
:1013600062010895009721F080935F0190936001DE
:101370000895009721F080935D0190935E01089598
:101380001F920F920FB60F9211242F933F934F93FA
:101390005F936F937F938F939F93AF93BF93EF93DD
:1013A000FF93E0916101F0916201309719F080E0C4
:1013B00090E00995FF91EF91BF91AF919F918F912F
:1013C0007F916F915F914F913F912F910F900FBE41
:1013D0000F901F9018951F920F920FB60F92112425
:1013E0002F933F934F935F936F937F938F939F932D
:1013F000AF93BF93EF93FF93E0915F01F091600192
:10140000309709F00995FF91EF91BF91AF919F91AE
:101410008F917F916F915F914F913F912F910F909D
:101420000FBE0F901F9018951F920F920FB60F923C
:1014300011242F933F934F935F936F937F938F93D9
:101440009F93AF93BF93EF93FF93E0915D01F09172
:101450005E01309709F00995FF91EF91BF91AF912F
:101460009F918F917F916F915F914F913F912F91BC
:101470000F900FBE0F901F9018950E9464020E945B
:101480003001FFCFA29FB001B39FC001A39F700D99
:10149000811D1124911DB29F700D811D1124911D7C
:1014A0000895A1E21A2EAA1BBB1BFD010DC0AA1FA5
:1014B000BB1FEE1FFF1FA217B307E407F50720F0BD
:1014C000A21BB30BE40BF50B661F771F881F991F38
:1014D0001A9469F760957095809590959B01AC0181
:1014E000BD01CF010895EE0FFF1F0590F491E02D8F
:1014F0000994F894FFCF24091A09E7081909E608A6
:041500002609E508CB
:10150400000000030080250000000200B00021213B
:10151400454D455247454E43592121002121464915
:10152400524521210073797374656D20696E697465
:1015340069616C697A65640D0A0072656164792079
:10154400746F206D6F6E69746F720D0A0074656D2F
:101554007020203A2000736D6F6B65203A2000578D
:1015640041524E494E47204C4556454C20310D0AB8
:10157400004649524520414C41524D0D0A005553F5
:1015840045522041434B4E4F574C45444745440D2B
:101594000A0053595354454D2052455345540D0A9E
:1015A40000454D455247454E43590D0A0074657335
:1015B4007400202020202020202000454D45524743
:1015C400454E4359007072657373207468652062D8
:1015D4007574746F6E005359533A696E697420645C
:0415E4006F6E6500C1
:00000001FF
