:100000000C942A000C949D070C9447000C94470014
:100010000C9447000C9447000C9447000C94470044
:100020000C9447000C9447000C940B080C94340873
:100030000C9447000C9447000C9447000C94470024
:100040000C9447000C9447000C9447000C94470014
:100050000C94470011241FBECFE5D8E0DEBFCDBF12
:1000600011E0A0E6B0E0EEE2F4E102C005900D92EE
:10007000A034B107D9F721E0A0E4B1E001C01D929E
:10008000A835B207E1F70E94DF090C94150A0C9419
:100090000000CF93DF9300D0CDB7DEB783E00E949E
:1000A00068050E94BE0260E081E00E94970360E064
:1000B0008DE690E00E94A30480E00E9432028983D2
:1000C00081E00E9432028A830E942D018981873457
:1000D00040F48A81893C28F40F900F90DF91CF91F2
:1000E000089583E00F900F90DF91CF910895CF9303
:1000F000DF930F92CDB7DEB780E00E943202898392
:1001000081E00E9432029981963470F4883C60F458
:100110000E94210182E00E9468050E94B40281E0F1
:100120000F90DF91CF9108950F90DF91CF910C94B4
:100130004900CF93DF930F92CDB7DEB780E00E94E6
:100140003202898381E00E94320299819D3270F4EB
:10015000863460F40E94190180E00E9468050E94C4
:10016000B90280E00F90DF91CF9108950F90DF9159
:10017000CF910C94BB00CF93DF930F92CDB7DEB736
:1001800080E00E943202898381E00E9432029981DC
:100190009C3370F4823860F40E941D0181E00E945B
:1001A00068050E94B90281E00F90DF91CF91089518
:1001B0000F90DF91CF910C9477000F931F930091D4
:1001C00060001091610020916200309163004091C5
:1001D00064005091650060916600709167008091A5
:1001E0006800909169000E945D088BE790E00E9492
:1001F0002A0980E990E01F910F910C942A0983EA63
:1002000090E00E942A0980E00E9432020E94830945
:100210008FEE90E00E942A098CEA90E00E942A0961
:1002200081E00E9432020E9483098FEE90E00C94DC
:100230002A0985EB90E00C942A0987EC90E00C9455
:100240002A0981ED90E00C942A098EED90E00C943F
:100250002A0982EF90E00C942A0981E091E00C9445
:100260002A09CF93DF9300D000D0CDB7DEB78091BD
:10027000400190914101A0914201B091430101964A
:10028000A11DB11D8093400190934101A0934201B3
:10029000B093430180FF3FC020914501233049F1D5
:1002A00089839A83AB83BC8369817A818B819C81AA
:1002B00025E030E040E050E00E94F309672B682B16
:1002C000692B09F464C069817A818B819C8124E166
:1002D00030E040E050E00E94F309672B682B692B67
:1002E00009F483C00F900F900F900F90DF91CF9182
:1002F000089580914401813009F48FC080914001BC
:1003000090914101A0914201B091430189839A8368
:10031000AB83BC83D8CF0E94A1028093440180911B
:100320004501833031F38091400190914101A091CA
:100330004201B091430189839A83AB83BC8380FDE2
:10034000B3CF0E94BA05809347010E94E4058093D1
:1003500046018091400190914101A0914201B091EC
:10036000430189839A83AB83BC83BC01CD0125E023
:1003700030E040E050E00E94F309672B682B692BC6
:1003800009F0A1CF80914501833009F49CCF40E072
:1003900068E080E00E94C50460E08DE091E00E948A
:1003A000A30440E068E080E00E94C50460E0809122
:1003B00047010E94FD0440E068E081E00E94C5041E
:1003C00060E08DE091E00E94A30440E068E081E0FD
:1003D0000E94C50460E0809146010E94FD0460E037
:1003E0008DE091E00E94A30489CF0E949900809340
:1003F00045010E94FF0080EB0E94F307109240012C
:100400001092410110924201109243010F900F90FF
:100410000F900F90DF91CF9108950E9425011092C7
:1004200045010E944F020E94290180914001909154
:100430004101A0914201B091430189839A83AB832A
:10044000BC8341CF60916A0070916B0080916C0019
:100450000E94CE0782E00E94E80761E371E080E03D
:100460000C94F707813010F021F008958091470136
:10047000089580914601089560E081E00E9497030D
:1004800060E086E191E00E94A30440E060E081E04A
:100490000E94C50460E080E291E00C94A30460E057
:1004A00081E00E94970360E083EA90E00E94A30449
:1004B00040E060E081E00E94C50460E08CEA90E0EA
:1004C0000C94A3040E94590580E00E94C5030E9479
:1004D000D9050E94AF050E9497020E94AA020E94BD
:1004E000DD000E94220260E081E391E00E94A3040B
:1004F0002FEF83ED90E3215080409040E1F700C062
:10050000000060E081E00E94970360E083EA90E0F1
:100510000E94A30440E060E081E00E94C50460E026
:100520008CEA90E00E94A3040C94C607089540E072
:1005300060E081E00E943B0641E060E081E00C94D5
:10054000760660E081E00E94B106982F81E091116B
:1005500080E0089541E067E081E00E943B0640E0D2
:1005600067E081E00C94760641E067E081E00C945E
:10057000760640E067E081E00C94760667E081E073
:100580000E94B10641E0811140E067E081E00C94F7
:100590007606CF93C82F40E062E082E00E947606A4
:1005A000C4FB442740F964E082E00E947606C5FB64
:1005B000442740F965E082E00E947606C6FB4427A6
:1005C00040F966E082E00E947606C7FB442740F9C6
:1005D00067E082E00E94760641E063E082E00E94EC
:1005E00076068FEC97E00197F1F700C0000040E03D
:1005F00063E082E00E9476064C2F417064E082E066
:100600000E947606C1FB442740F965E082E00E9423
:100610007606C2FB442740F966E082E00E94760637
:10062000C3FB442740F967E082E00E94760641E080
:1006300063E082E00E9476068FEC97E00197F1F785
:1006400000C0000040E063E082E0CF910C947606A9
:10065000CF93C82F613020F009F45FC0CF91089587
:1006600041E062E082E00E947606C4FB442740F944
:1006700064E082E00E947606C5FB442740F965E00D
:1006800082E00E947606C6FB442740F966E082E0DD
:100690000E947606C7FB442740F967E082E00E948B
:1006A000760641E063E082E00E9476068FEC97E0F8
:1006B0000197F1F700C0000040E063E082E00E9493
:1006C00076064C2F417064E082E00E947606C1FB02
:1006D000442740F965E082E00E947606C2FB442789
:1006E00040F966E082E00E947606C3FB442740F9A9
:1006F00067E082E00E94760641E063E082E00E94CB
:1007000076068FEC97E00197F1F700C0000040E01B
:1007100063E082E0CF910C94760641E062E082E0F3
:100720000E9476066C2F82E00E94F106E5CFCF93FF
:10073000DF930F92CDB7DEB78983613028F049F09F
:100740000F90DF91CF9108950F90DF91CF910C948E
:10075000C90240E062E082E00E947606698182E0A0
:100760000E94F10641E063E082E00E9476068FEC91
:1007700097E00197F1F700C0000040E063E082E0FD
:100780000F90DF91CF910C947606813018F009F428
:1007900046C0089560EF82E00E94E10641E062E019
:1007A00082E00E943B0641E063E082E00E943B065B
:1007B0002FEB8AED90E0215080409040E1F700C09F
:1007C000000082E00E94C9028FE99FE00197F1F7E3
:1007D00000C0000088E20E94C9028FEC97E00197F8
:1007E000F1F700C000008CE00E94C9028FEC97E096
:1007F0000197F1F700C0000081E00E94C9028FE973
:100800009FE00197F1F700C0000086E00E94C90256
:100810008FEC97E00197F1F700C0000008956FEFAB
:1008200082E00E94E10641E062E082E00E943B0635
:1008300041E063E082E00E943B069FEB2AED80E00E
:10084000915020408040E1F700C0000040E062E0AD
:1008500082E00E94760668E382E00E94F10641E0B1
:1008600063E082E00E9476068FEC97E00197F1F753
:1008700000C0000040E063E082E00E9476068FEC5A
:1008800097E00197F1F700C0000040E062E082E0ED
:100890000E9476066EE082E00E94F10641E063E08D
:1008A00082E00E9476068FEC97E00197F1F700C096
:1008B000000040E063E082E00E9476068FEC97E063
:1008C0000197F1F700C0000040E062E082E00E9482
:1008D000760661E082E00E94F10641E063E082E09A
:1008E0000E9476068FEC97E00197F1F700C00000B8
:1008F00040E063E082E00E9476068FE99FE0019786
:10090000F1F700C0000040E062E082E00E9476065D
:1009100066E082E00E94F10641E063E082E00E942E
:1009200076068FEC97E00197F1F700C0000040E0F9
:1009300063E082E00E9476068FEC97E00197F1F782
:1009400000C0000008950F931F93CF93DF9300D052
:10095000CDB7DEB78C016983FC018081811571F010
:100960001A8269810E942803FA81FF5FFA83F801E5
:100970008A81E80FF11D80818111F3CF0F900F90D4
:10098000DF91CF911F910F910895CF93DF930F9235
:10099000CDB7DEB7813060F051F080E88983413017
:1009A00058F489810F90DF91CF910C94C902605C5B
:1009B000606869834130A8F321F00F90DF91CF91F7
:1009C000089540E062E082E00E947606698182E05C
:1009D0000E94F10641E063E082E00E9476068FEC1F
:1009E00097E00197F1F700C0000040E063E082E08B
:1009F0000F90DF91CF910C947606EF92FF920F93B8
:100A00001F93CF93DF93CDB7DEB72B970FB6F89434
:100A1000DEBF0FBECDBF6B878115E1F130E08E01E7
:100A20000F5F1F4F5DEC432F3F5FF801E40FF11D97
:100A3000859F912D1124969596959695292F220F95
:100A4000220F290F220F682F621B262F205D208383
:100A5000282F892F2A3038F747FD0FC078018FEFF4
:100A6000E81AF80AE40EF11C6B85F70182917F0108
:100A70000E942803E016F106B9F72B960FB6F894FA
:100A8000DEBF0FBECDBFDF91CF911F910F91FF90C1
:100A9000EF90089580E32B960FB6F894DEBF0FBE5B
:100AA000CDBFDF91CF911F910F91FF90EF900C94EC
:100AB000280341E066E081E00E943B0641E062E0FD
:100AC00081E00E943B0641E061E081E00C943B063E
:100AD0008230A1F190F4811509F43FC040E066E056
:100AE00081E00E94760641E062E081E00E947606A5
:100AF00040E061E081E00C9476068330C1F440E090
:100B000066E081E00E94760640E062E081E00E94BB
:100B1000760688B392E0892788BB2FEF84E39CE0B8
:100B2000215080409040E1F700C00000089540E06F
:100B300066E081E00E94760640E0D6CF40E066E0C5
:100B400081E00E94760640E062E081E00E94760645
:100B500041E061E081E00C94760641E0E9CF40E0BD
:100B600060E080E00E943B0681E00E94FB0580E09F
:100B70000C941D0680E00E94250680E00E942A0653
:100B80000E9433069C01A8E8B3E10E94E409672FA4
:100B9000782F892F90E0869577956795869577953C
:100BA00067952AE030E040E050E00E94F309822F90
:100BB000089540E061E080E00E943B0681E00E94F1
:100BC000FB0580E00C941D0681E00E94250680E074
:100BD0000E942A060E9433069C01A8E8B3E10E9405
:100BE000E409A92F982F872FA69597958795A69505
:100BF0009795879508958130A1F0823051F0811149
:100C000002C03E983F9886B1887F866086B9379A41
:100C100008953E9A3F9A86B1887F866086B9379A52
:100C200008953E9A3F9886B1887F866086B9379A44
:100C30000895379A089537980895813010F43D98B3
:100C4000089509F008953D9A089597B1907E892BF3
:100C500087B90895811101C0369A089596B1987F99
:100C6000892B86B90895369A349BFECF349A84B185
:100C700025B1922F0895843020F4683010F442306A
:100C800008F0089521E001C0220F6A95EAF741308B
:100C900079F020958230B1F0833031F08130B1F0BD
:100CA0008AB382238ABB089581B3822381BB0895CE
:100CB0008230C1F0833091F0813061F08AB3822BB1
:100CC0008ABB089584B3822384BB089587B38223AB
:100CD00087BB089587B3822B87BB089581B3822B8E
:100CE00081BB089584B3822B84BB0895843020F4A3
:100CF000683010F4423008F0089521E001C0220F5E
:100D00006A95EAF7413079F020958230B1F083306E
:100D100031F08130B1F08BB382238BBB089582B365
:100D2000822382BB08958230C1F0833091F08130FC
:100D300061F08BB3822B8BBB089585B3822385BB77
:100D4000089588B3822388BB089588B3822B88BB1B
:100D5000089582B3822B82BB089585B3822B85BB15
:100D60000895843088F4683078F4823009F1833053
:100D7000B1F0813059F089B390E002C09595879524
:100D80006A95E2F78170089580E0089586B390E057
:100D900002C0959587956A95E2F78170089580B3B2
:100DA00090E002C0959587956A95E2F78170089565
:100DB00083B390E002C0959587956A95E2F78170BC
:100DC0000895843048F4823051F0833021F081302E
:100DD00021F06ABB089561BB089567BB089564BBA9
:100DE0000895843048F4823051F0833021F081300E
:100DF00021F06BBB089562BB089568BB089565BB85
:100E00000895843040F4823051F0833051F08130C5
:100E100021F089B3089580E0089586B3089583B3DF
:100E2000089580B308958330B1F0843019F085308F
:100E300009F10895643069F1653009F443C0663002
:100E400009F447C06730A9F785B7846085BF85B7C7
:100E5000886085BF0895643019F1653099F0663077
:100E600031F1673031F785B7816085BF85B7826022
:100E700085BF0895663011F16730D9F684B7806474
:100E800084BF089585B7816085BF85B78D7F85BF95
:100E9000089585B78B7F85BF85B7877F85BF089508
:100EA00085B78E7F85BF85B78D7F85BF089585B750
:100EB0008E7F85BF85B7826085BF089584B78F7B9D
:100EC00084BF089585B7846085BF85B7877F85BF58
:100ED000089585B78B7F85BF85B7886085BF0895E6
:100EE000833049F0843019F0853049F008958BB78C
:100EF00080688BBF08958BB780648BBF08958BB7D4
:100F000080628BBF0895833049F0843019F08530BA
:100F100049F008958BB78F778BBF08958BB78F7B80
:100F20008BBF08958BB78F7D8BBF0895009721F0FD
:100F3000809348019093490108951F920F920FB634
:100F40000F9211242F933F934F935F936F937F934F
:100F50008F939F93AF93BF93EF93FF93E0914801DB
:100F6000F0914901309709F00995FF91EF91BF91F8
:100F7000AF919F918F917F916F915F914F913F9131
:100F80002F910F900FBE0F901F9018958FB780680C
:100F90008FBF08958FB78F778FBF0895613058F452
:100FA00083B78F7B83BF83B7877F83BF72BF89B7C8
:100FB000816089BF089509F0089593B79F7B93BF1F
:100FC00093B7986093BF8CBF89B7826089BF08953B
:100FD000811521F093B7987F892B83BF089583B73C
:100FE000887F83BF089582BF08958CBF08958130A4
:100FF00040F46115710531F060934C0170934D011F
:10100000089509F0089561157105E1F360934A01AF
:1010100070934B0108951F920F920FB60F921124F7
:101020002F933F934F935F936F937F938F939F93F0
:10103000AF93BF93EF93FF93E0914A01F0914B017F
:10104000309709F00995FF91EF91BF91AF919F9172
:101050008F917F916F915F914F913F912F910F9061
:101060000FBE0F901F9018951F920F920FB60F9200
:1010700011242F933F934F935F936F937F938F939D
:101080009F93AF93BF93EF93FF93E0914C01F09147
:101090004D01309709F00995FF91EF91BF91AF9104
:1010A0009F918F917F916F915F914F913F912F9180
:1010B0000F900FBE0F901F9018950F931F93CF9313
:1010C000DF93CDB7DEB72B970FB6F894DEBF0FBE18
:1010D000CDBF0B870983B12F1A83F22F2B83E32F08
:1010E0003C83A42F4D835E836F8378878987192F74
:1010F0009A874E815F816885798500934E01B09310
:101100004F012093500130935101A093520140931D
:10111000530150935401609355017093560190937D
:10112000570180EC013009F080E8F13009F46AC021
:10113000F23009F451C0B13009F452C0E13068F026
:1011400059F0E23009F466C0E33009F460C0E430DD
:1011500029F48660529A02C08260529880BDA13004
:1011600070F55998440F551F661F771F440F551F80
:10117000661F771F9A01AB01220F331F441F551FB3
:10118000220F331F441F551F60E072E18AE790E091
:101190000E94F30921503109922F832F99B980BD04
:1011A0001130A0F4549A53982B960FB6F894DEBFE2
:1011B0000FBECDBFDF91CF911F910F91089591F098
:1011C00080E090E099B980BD113060F3E9F0123011
:1011D00059F7549A539AE8CF8063B13009F0AECFF3
:1011E0008860ACCF599A9A01AB01220F331F441F7C
:1011F000551F220F331F441F551F220F331F441F3B
:10120000551FC2CF806297CF539A5498CDCF866036
:101210005298A4CF84605298A1CF9C015D9BFECFD1
:1012200080915101843011F02CB90895509830FF0D
:10123000FBCF509A2CB908955F9BFECF809151014E
:1012400090E0843021F4882751998395982F2CB110
:10125000822F0895DC019C91911581F020E080910E
:1012600051015D9BFECF843009F450989CB92F5FEB
:10127000FD01E20FF11D90819111F3CF0895DC0182
:10128000892BD9F05F9BFECF809151018430B1F062
:101290004CB14C936417C9F090E09F5F5F9BFECF09
:1012A000843019F42227519923954CB1FD01E90F9F
:1012B000F11D40836413F1CF1082089522275199C4
:1012C00023954CB14C936413E7CFFD011082089530
:1012D0006115710579F0FC01680F791F909151013A
:1012E00081915D9BFECF943009F450988CB9E6173C
:1012F000F707B1F70895549A0895539A08955498AA
:10130000089553980895CF93DF93CDB7DEB72A970A
:101310000FB6F894DEBF0FBECDBF30E05DEC811597
:1013200009F442C0FE013196E30FF11D37FDFA9535
:10133000859F912D1124969596959695292F220F8C
:10134000220F290F220F482F421B242F205D2083BC
:10135000432F3F5F282F892F2A3020F747FD1BC0DE
:10136000842F942F990F990BFE013296E80FF91FE5
:101370009E012F5F3F4F820F931F841B9109309175
:10138000510122915D9BFECF343009F450982CB965
:10139000E817F907B1F72A960FB6F894DEBF0FBE2B
:1013A000CDBFDF91CF9108955D9BFECF809151011C
:1013B000843019F080E38CB9EECF5098FBCF0E94B7
:1013C00062020E943101FFCFA29FB001B39FC00112
:1013D000A39F700D811D1124911DB29F700D811D61
:1013E0001124911D0895A1E21A2EAA1BBB1BFD0119
:1013F0000DC0AA1FBB1FEE1FFF1FA217B307E407F4
:10140000F50720F0A21BB30BE40BF50B661F771F4B
:10141000881F991F1A9469F760957095809590952B
:0E1420009B01AC01BD01CF010895F894FFCFF0
:10142E000000000300802500000200B000212145CD
:10143E004D455247454E43592121007379737465CA
:10144E006D20696E697469616C697A65640D0A0054
:10145E00726561647920746F206D6F6E69746F723E
:10146E000D0A0074656D7020203A2000736D6F6B4D
:10147E0065203A20007361666520646F6E7420707B
:10148E00616E69630D0A005741524E494E470D0A6F
:10149E00004649524520414C41524D0D0A005553CC
:1014AE0045522041434B4E4F574C45444745440D02
:1014BE000A0053595354454D2052455345540D0A75
:1014CE0000454D455247454E43590D0A00202020F8
:1014DE00202020202000454D455247454E435900BF
:1014EE0070726573732074686520627574746F6EA4
:1014FE00005359533A696E697420646F6E6500002B
:00000001FF
