:100000000C942A000C948D070C9447000C94470024
:100010000C9447000C9447000C9447000C94470044
:100020000C9447000C9447000C94FB070C94240894
:100030000C9447000C9447000C9447000C94470024
:100040000C9447000C9447000C9447000C94470014
:100050000C94470011241FBECFE5D8E0DEBFCDBF12
:1000600011E0A0E6B0E0E6E5F3E102C005900D92F4
:10007000A633B107D9F721E0A6E3B1E001C01D9294
:10008000AE34B207E1F70E9473090C94A9090C94ED
:100090000000CF93DF930F92CDB7DEB783E00E94CD
:1000A00058050E94AE0260E081E00E94870360E094
:1000B0008DE690E00E94930480E00E9422028983F2
:1000C00081E00E9422029981973430F4893C20F427
:1000D0000F90DF91CF91089583E00F90DF91CF9142
:1000E0000895CF93DF930F92CDB7DEB780E00E94E3
:1000F0002202898381E00E9422029981963460F471
:10010000883C50F482E00E9458050E94A40281E0DD
:100110000F90DF91CF9108950F90DF91CF910C94C4
:100120004900CF93DF930F92CDB7DEB780E00E94F6
:100130002202898381E00E94220299819D3260F42B
:10014000863450F480E00E9458050E94A90280E0A5
:100150000F90DF91CF9108950F90DF91CF910C9484
:10016000B100CF93DF930F92CDB7DEB780E00E944E
:100170002202898381E00E94220299819C3360F4EB
:10018000823850F481E00E9458050E94A90281E063
:100190000F90DF91CF9108950F90DF91CF910C9444
:1001A00071000F931F9300916000109161002091E6
:1001B000620030916300409164005091650060914D
:1001C00066007091670080916800909169000E94BC
:1001D0004D088BE790E00E941A0980E990E01F919A
:1001E0000F910C941A0983EA90E00E941A0980E0AA
:1001F0000E94220290E00E94FD0884EC90E00E94A0
:100200001A098CEA90E00E941A0981E00E942202F9
:1002100090E00E94FD0884EC90E00C941A0985EBB4
:1002200090E00C941A0987EC90E00C941A0984ED84
:1002300090E00C941A0988EE90E00C941A0987EF6C
:1002400090E00C941A09CF93DF9300D000D0CDB783
:10025000DEB78091360190913701A0913801B091BD
:1002600039010196A11DB11D80933601909337018C
:10027000A0933801B093390180FF3FC020913B012A
:10028000233049F189839A83AB83BC8369817A8166
:100290008B819C8125E030E040E050E00E9487099E
:1002A000672B682B692B09F464C069817A818B8183
:1002B0009C8124E130E040E050E00E948709672BF8
:1002C000682B692B09F483C00F900F900F900F904B
:1002D000DF91CF91089580913A01813009F48FC068
:1002E0008091360190913701A0913801B091390188
:1002F00089839A83AB83BC83D8CF0E949102809379
:100300003A0180913B01833031F380913601909125
:100310003701A0913801B091390189839A83AB8369
:10032000BC8380FDB3CF0E94AA0580933D010E944B
:10033000D40580933C018091360190913701A091C2
:100340003801B091390189839A83AB83BC83BC01A6
:10035000CD0125E030E040E050E00E948709672BA6
:10036000682B692B09F0A1CF80913B01833009F400
:100370009CCF40E068E080E00E94B50460E083E04C
:1003800091E00E94930440E068E080E00E94B504A0
:1003900060E080913D010E94ED0440E068E081E072
:1003A0000E94B50460E083E091E00E94930440E085
:1003B00068E081E00E94B50460E080913C010E9409
:1003C000ED0460E083E091E00E94930489CF0E94F5
:1003D000910080933B010E94F30080EB0E94E307B1
:1003E00010923601109237011092380110923901A3
:1003F0000F900F900F900F90DF91CF9108950E9472
:10040000170110923B010E943F02809136019091AA
:100410003701A0913801B091390189839A83AB8368
:10042000BC8343CF60916A0070916B0080916C0037
:100430000E94BE0782E00E94D80763E271E080E07C
:100440000C94E707813010F021F0089580913D0170
:10045000089580913C01089560E081E00E94870347
:1004600060E08CE091E00E94930440E060E081E075
:100470000E94B50460E086E191E00C94930460E092
:1004800081E00E94870360E083EA90E00E94930489
:1004900040E060E081E00E94B50460E08CEA90E01A
:1004A0000C9493040E94490580E00E94B5030E94C9
:1004B000C9050E949F050E9487020E949A020E941D
:1004C000D1000E94120260E087E291E00E94930452
:1004D0002FEF83ED90E3215080409040E1F700C082
:1004E000000060E081E00E94870360E083EA90E022
:1004F0000E94930440E060E081E00E94B50460E067
:100500008CEA90E00E9493040C94B607089540E0B2
:1005100060E081E00E942B0641E060E081E00C9405
:10052000660660E081E00E94A106982F81E09111AB
:1005300080E0089541E067E081E00E942B0640E002
:1005400067E081E00C94660641E067E081E00C948E
:10055000660640E067E081E00C94660667E081E0B3
:100560000E94A10641E0811140E067E081E00C9427
:100570006606CF93C82F40E062E082E00E946606E4
:10058000C4FB442740F964E082E00E946606C5FB94
:10059000442740F965E082E00E946606C6FB4427D6
:1005A00040F966E082E00E946606C7FB442740F9F6
:1005B00067E082E00E94660641E063E082E00E941C
:1005C00066068FEC97E00197F1F700C0000040E06D
:1005D00063E082E00E9466064C2F417064E082E096
:1005E0000E946606C1FB442740F965E082E00E9454
:1005F0006606C2FB442740F966E082E00E94660678
:10060000C3FB442740F967E082E00E94660641E0B0
:1006100063E082E00E9466068FEC97E00197F1F7B5
:1006200000C0000040E063E082E0CF910C946606D9
:10063000CF93C82F613020F009F45FC0CF910895A7
:1006400041E062E082E00E946606C4FB442740F974
:1006500064E082E00E946606C5FB442740F965E03D
:1006600082E00E946606C6FB442740F966E082E00D
:100670000E946606C7FB442740F967E082E00E94BB
:10068000660641E063E082E00E9466068FEC97E038
:100690000197F1F700C0000040E063E082E00E94B3
:1006A00066064C2F417064E082E00E946606C1FB42
:1006B000442740F965E082E00E946606C2FB4427B9
:1006C00040F966E082E00E946606C3FB442740F9D9
:1006D00067E082E00E94660641E063E082E00E94FB
:1006E00066068FEC97E00197F1F700C0000040E04C
:1006F00063E082E0CF910C94660641E062E082E024
:100700000E9466066C2F82E00E94E106E5CFCF933F
:10071000DF930F92CDB7DEB78983613028F049F0BF
:100720000F90DF91CF9108950F90DF91CF910C94AE
:10073000B90240E062E082E00E946606698182E0E0
:100740000E94E10641E063E082E00E9466068FECD1
:1007500097E00197F1F700C0000040E063E082E01D
:100760000F90DF91CF910C946606813018F009F458
:1007700046C0089560EF82E00E94D10641E062E049
:1007800082E00E942B0641E063E082E00E942B069B
:100790002FEB8AED90E0215080409040E1F700C0BF
:1007A000000082E00E94B9028FE99FE00197F1F713
:1007B00000C0000088E20E94B9028FEC97E0019728
:1007C000F1F700C000008CE00E94B9028FEC97E0C6
:1007D0000197F1F700C0000081E00E94B9028FE9A3
:1007E0009FE00197F1F700C0000086E00E94B90287
:1007F0008FEC97E00197F1F700C0000008956FEFCC
:1008000082E00E94D10641E062E082E00E942B0675
:1008100041E063E082E00E942B069FEB2AED80E03E
:10082000915020408040E1F700C0000040E062E0CD
:1008300082E00E94660668E382E00E94E10641E0F1
:1008400063E082E00E9466068FEC97E00197F1F783
:1008500000C0000040E063E082E00E9466068FEC8A
:1008600097E00197F1F700C0000040E062E082E00D
:100870000E9466066EE082E00E94E10641E063E0CD
:1008800082E00E9466068FEC97E00197F1F700C0C6
:10089000000040E063E082E00E9466068FEC97E093
:1008A0000197F1F700C0000040E062E082E00E94A2
:1008B000660661E082E00E94E10641E063E082E0DA
:1008C0000E9466068FEC97E00197F1F700C00000E8
:1008D00040E063E082E00E9466068FE99FE00197B6
:1008E000F1F700C0000040E062E082E00E9466068E
:1008F00066E082E00E94E10641E063E082E00E945F
:1009000066068FEC97E00197F1F700C0000040E029
:1009100063E082E00E9466068FEC97E00197F1F7B2
:1009200000C0000008950F931F93CF93DF9300D072
:10093000CDB7DEB78C016983FC018081811571F030
:100940001A8269810E941803FA81FF5FFA83F80115
:100950008A81E80FF11D80818111F3CF0F900F90F4
:10096000DF91CF911F910F910895CF93DF930F9255
:10097000CDB7DEB7813060F051F080E88983413037
:1009800058F489810F90DF91CF910C94B902605C8B
:10099000606869834130A8F321F00F90DF91CF9117
:1009A000089540E062E082E00E946606698182E08C
:1009B0000E94E10641E063E082E00E9466068FEC5F
:1009C00097E00197F1F700C0000040E063E082E0AB
:1009D0000F90DF91CF910C946606EF92FF920F93E8
:1009E0001F93CF93DF93CDB7DEB72B970FB6F89455
:1009F000DEBF0FBECDBF6B878115E1F130E08E0108
:100A00000F5F1F4F5DEC432F3F5FF801E40FF11DB7
:100A1000859F912D1124969596959695292F220FB5
:100A2000220F290F220F682F621B262F205D2083A3
:100A3000282F892F2A3038F747FD0FC078018FEF14
:100A4000E81AF80AE40EF11C6B85F70182917F0128
:100A50000E941803E016F106B9F72B960FB6F8942A
:100A6000DEBF0FBECDBFDF91CF911F910F91FF90E1
:100A7000EF90089580E32B960FB6F894DEBF0FBE7B
:100A8000CDBFDF91CF911F910F91FF90EF900C940C
:100A9000180341E066E081E00E942B0641E062E03D
:100AA00081E00E942B0641E061E081E00C942B067E
:100AB0008230A1F190F4811509F43FC040E066E076
:100AC00081E00E94660641E062E081E00E946606E5
:100AD00040E061E081E00C9466068330C1F440E0C0
:100AE00066E081E00E94660640E062E081E00E94EC
:100AF000660688B392E0892788BB2FEF84E39CE0E9
:100B0000215080409040E1F700C00000089540E08F
:100B100066E081E00E94660640E0D6CF40E066E0F5
:100B200081E00E94660640E062E081E00E94660685
:100B300041E061E081E00C94660641E0E9CF40E0ED
:100B400060E080E00E942B0681E00E94EB0580E0DF
:100B50000C940D0680E00E94150680E00E941A06A3
:100B60000E9423069C01A8E8B3E10E947809672F40
:100B7000782F892F90E0869577956795869577955C
:100B800067952AE030E040E050E00E948709822F1C
:100B9000089540E061E080E00E942B0681E00E9421
:100BA000EB0580E00C940D0681E00E94150680E0C4
:100BB0000E941A060E9423069C01A8E8B3E10E9445
:100BC0007809A92F982F872FA69597958795A69591
:100BD0009795879508958130A1F0823051F0811169
:100BE00002C03E983F9886B1887F866086B9379A62
:100BF00008953E9A3F9A86B1887F866086B9379A73
:100C000008953E9A3F9886B1887F866086B9379A64
:100C10000895379A089537980895813010F43D98D3
:100C2000089509F008953D9A089597B1907E892B13
:100C300087B90895811101C0369A089596B1987FB9
:100C4000892B86B90895369A349BFECF349A84B1A5
:100C500025B1922F0895843020F4683010F442308A
:100C600008F0089521E001C0220F6A95EAF74130AB
:100C700079F020958230B1F0833031F08130B1F0DD
:100C80008AB382238ABB089581B3822381BB0895EE
:100C90008230C1F0833091F0813061F08AB3822BD1
:100CA0008ABB089584B3822384BB089587B38223CB
:100CB00087BB089587B3822B87BB089581B3822BAE
:100CC00081BB089584B3822B84BB0895843020F4C3
:100CD000683010F4423008F0089521E001C0220F7E
:100CE0006A95EAF7413079F020958230B1F083308F
:100CF00031F08130B1F08BB382238BBB089582B386
:100D0000822382BB08958230C1F0833091F081301C
:100D100061F08BB3822B8BBB089585B3822385BB97
:100D2000089588B3822388BB089588B3822B88BB3B
:100D3000089582B3822B82BB089585B3822B85BB35
:100D40000895843088F4683078F4823009F1833073
:100D5000B1F0813059F089B390E002C09595879544
:100D60006A95E2F78170089580E0089586B390E077
:100D700002C0959587956A95E2F78170089580B3D2
:100D800090E002C0959587956A95E2F78170089585
:100D900083B390E002C0959587956A95E2F78170DC
:100DA0000895843048F4823051F0833021F081304E
:100DB00021F06ABB089561BB089567BB089564BBC9
:100DC0000895843048F4823051F0833021F081302E
:100DD00021F06BBB089562BB089568BB089565BBA5
:100DE0000895843040F4823051F0833051F08130E6
:100DF00021F089B3089580E0089586B3089583B300
:100E0000089580B308958330B1F0843019F08530AF
:100E100009F10895643069F1653009F443C0663022
:100E200009F447C06730A9F785B7846085BF85B7E7
:100E3000886085BF0895643019F1653099F0663097
:100E400031F1673031F785B7816085BF85B7826042
:100E500085BF0895663011F16730D9F684B7806494
:100E600084BF089585B7816085BF85B78D7F85BFB5
:100E7000089585B78B7F85BF85B7877F85BF089528
:100E800085B78E7F85BF85B78D7F85BF089585B770
:100E90008E7F85BF85B7826085BF089584B78F7BBD
:100EA00084BF089585B7846085BF85B7877F85BF78
:100EB000089585B78B7F85BF85B7886085BF089506
:100EC000833049F0843019F0853049F008958BB7AC
:100ED00080688BBF08958BB780648BBF08958BB7F4
:100EE00080628BBF0895833049F0843019F08530DB
:100EF00049F008958BB78F778BBF08958BB78F7BA1
:100F00008BBF08958BB78F7D8BBF0895009721F01D
:100F100080933E0190933F0108951F920F920FB668
:100F20000F9211242F933F934F935F936F937F936F
:100F30008F939F93AF93BF93EF93FF93E0913E0105
:100F4000F0913F01309709F00995FF91EF91BF9122
:100F5000AF919F918F917F916F915F914F913F9151
:100F60002F910F900FBE0F901F9018958FB780682C
:100F70008FBF08958FB78F778FBF0895613058F472
:100F800083B78F7B83BF83B7877F83BF72BF89B7E8
:100F9000816089BF089509F0089593B79F7B93BF3F
:100FA00093B7986093BF8CBF89B7826089BF08955B
:100FB000811521F093B7987F892B83BF089583B75C
:100FC000887F83BF089582BF08958CBF08958130C4
:100FD00040F46115710531F0609342017093430153
:100FE000089509F0089561157105E1F360934001DA
:100FF0007093410108951F920F920FB60F92112422
:101000002F933F934F935F936F937F938F939F9310
:10101000AF93BF93EF93FF93E0914001F0914101B3
:10102000309709F00995FF91EF91BF91AF919F9192
:101030008F917F916F915F914F913F912F910F9081
:101040000FBE0F901F9018951F920F920FB60F9220
:1010500011242F933F934F935F936F937F938F93BD
:101060009F93AF93BF93EF93FF93E0914201F09171
:101070004301309709F00995FF91EF91BF91AF912E
:101080009F918F917F916F915F914F913F912F91A0
:101090000F900FBE0F901F9018950F931F93CF9333
:1010A000DF93CDB7DEB72B970FB6F894DEBF0FBE38
:1010B000CDBF0B870983B12F1A83F22F2B83E32F28
:1010C0003C83A42F4D835E836F8378878987192F94
:1010D0009A874E815F816885798500934401B0933A
:1010E00045012093460130934701A0934801409366
:1010F000490150934A0160934B0170934C019093C6
:101100004D0180EC013009F080E8F13009F46AC04B
:10111000F23009F451C0B13009F452C0E13068F046
:1011200059F0E23009F466C0E33009F460C0E430FD
:1011300029F48660529A02C08260529880BDA13024
:1011400070F55998440F551F661F771F440F551FA0
:10115000661F771F9A01AB01220F331F441F551FD3
:10116000220F331F441F551F60E072E18AE790E0B1
:101170000E94870921503109922F832F99B980BD90
:101180001130A0F4549A53982B960FB6F894DEBF02
:101190000FBECDBFDF91CF911F910F91089591F0B8
:1011A00080E090E099B980BD113060F3E9F0123031
:1011B00059F7549A539AE8CF8063B13009F0AECF13
:1011C0008860ACCF599A9A01AB01220F331F441F9C
:1011D000551F220F331F441F551F220F331F441F5B
:1011E000551FC2CF806297CF539A5498CDCF866057
:1011F0005298A4CF84605298A1CF9C015D9BFECFF2
:1012000080914701843011F02CB90895509830FF37
:10121000FBCF509A2CB908955F9BFECF8091470178
:1012200090E0843021F4882751998395982F2CB130
:10123000822F0895DC019C91911581F020E080912E
:1012400047015D9BFECF843009F450989CB92F5F15
:10125000FD01E20FF11D90819111F3CF0895DC01A2
:10126000892BD9F05F9BFECF809147018430B1F08C
:101270004CB14C936417C9F090E09F5F5F9BFECF29
:10128000843019F42227519923954CB1FD01E90FBF
:10129000F11D40836413F1CF1082089522275199E4
:1012A00023954CB14C936413E7CFFD011082089550
:1012B0006115710579F0FC01680F791F9091470164
:1012C00081915D9BFECF943009F450988CB9E6175C
:1012D000F707B1F70895549A0895539A08955498CA
:1012E0000895539808950E9452020E942301FFCF4F
:1012F000A29FB001B39FC001A39F700D811D112457
:10130000911DB29F700D811D1124911D0895A1E2C0
:101310001A2EAA1BBB1BFD010DC0AA1FBB1FEE1F6F
:10132000FF1FA217B307E407F50720F0A21BB30BBA
:10133000E40BF50B661F771F881F991F1A9469F736
:1013400060957095809590959B01AC01BD01CF0192
:061350000895F894FFCFA0
:101356000000000300802500000200B000212145A6
:101366004D455247454E43592121007379737465A3
:101376006D20696E697469616C697A65640D0A002D
:10138600726561647920746F206D6F6E69746F7217
:101396000D0A0074656D7020203A2000736D6F6B26
:1013A60065203A20005741524E494E47204C45563B
:1013B600454C20310D0A004649524520414C4152C8
:1013C6004D0D0A00555345522041434B4E4F574C45
:1013D60045444745440D0A0053595354454D205240
:1013E600455345540D0A00454D455247454E435910
:1013F6000D0A00202020202020202000454D4552A7
:1014060047454E43590070726573732074686520B2
:10141600627574746F6E005359533A696E6974201D
:06142600646F6E6500001A
:00000001FF
