:100000000C942A000C9412070C9447000C9447009F
:100010000C9447000C9447000C9447000C94470044
:100020000C9447000C9447000C9480070C94A9078B
:100030000C9447000C9433090C9487090C945E09C6
:100040000C9447000C9447000C9447000C94470014
:100050000C94470011241FBECFE5D8E0DEBFCDBF12
:1000600011E0A0E6B0E0EAEEF3E102C005900D92E7
:10007000A633B107D9F721E0A6E3B1E001C01D9294
:10008000A535B207E1F70E94B0090C94EC090C9475
:100090000000CF93DF930F92CDB7DEB783E00E94CD
:1000A000DD040E94330260E08EE690E00E941804B6
:1000B00080E00E94A701898381E00E94A7019981C5
:1000C000973410F0893C30F480E090E00F90DF919D
:1000D000CF91089583E090E00F90DF91CF91089544
:1000E00080E00E94DD040E942E0280E00E94A701B1
:1000F00081E00E94A70180E090E00895EF92FF92D6
:100100000F931F93E0906000F090610000916200F7
:100110001091630020916400309165004091660069
:1001200050916700609168007091690080916A0049
:100130000E94D2078CE790E00E94B90881E990E024
:100140001F910F91FF90EF900C94B90884EA90E012
:100150000E94B90880E00E94A70190E00E949F08D9
:1001600085EC90E00E94B9088DEA90E00E94B90801
:1001700081E00E94A70190E00E949F0885EC90E03A
:100180000C94B90886EB90E00C94B90888EC90E0E8
:100190000C94B90885ED90E00C94B90889EE90E0D4
:1001A0000C94B90888EF90E00C94B908CF92DF92D4
:1001B000EF92FF92C0903601D0903701E090380165
:1001C000F09039018FEFC81AD80AE80AF80AC092ED
:1001D0003601D0923701E0923801F0923901C0FE29
:1001E00023C080913B01833009F48AC0B601C70166
:1001F00025E030E040E050E00E94C409672B682B06
:10020000692B09F447C0B601C70124E130E040E0A2
:1002100050E00E94C409672B682B692B49F1FF90BD
:10022000EF90DF90CF9008950E94160280933A01DC
:1002300080913B01833009F463C0C0903601D090B7
:100240003701E0903801F0903901C0FCCFCF0E9417
:100250002F0580933D010E94590580933C01C09079
:100260003601D0903701E0903801F0903901BECFCF
:100270000E94A60080EB0E9468071092360110923F
:1002800037011092380110923901FF90EF90DF9002
:10029000CF90089540E068E080E00E943A0460E07A
:1002A00084E091E00E94180440E068E080E00E9451
:1002B0003A0460E080913D010E94720440E068E0F1
:1002C00081E00E943A0460E084E091E00E9418041A
:1002D00040E068E081E00E943A0460E080913C01E7
:1002E0000E94720460E084E091E00E941804C090D3
:1002F0003601D0903701E0903801F090390183CF7A
:100300000E94D2000E94B10180913A01813079F7B8
:100310000E94CA0010923B010E94C401C0903601A5
:10032000D0903701E0903801F09039016CCF6091A6
:100330006B0070916C0080916D000E94430782E019
:100340000E945D0766ED70E080E00C946C078130E0
:1003500010F021F0089580913D01089580913C01B5
:10036000089560E081E00E940C0360E08DE091E080
:100370000E94180440E060E081E00E943A0460E0DE
:1003800087E191E00C94180460E081E00E940C0386
:1003900060E084EA90E00E94180440E060E081E0C0
:1003A0000E943A0460E08DEA90E00C9418040E94E8
:1003B000CE0480E00E943A030E944E050E9424056C
:1003C0000E940C020E941F020E947E000E94970160
:1003D00060E088E291E00E9418042FEF83ED90E343
:1003E000215080409040E1F700C0000060E081E0D3
:1003F0000E940C0360E084EA90E00E94180440E050
:1004000060E081E00E943A0460E08DEA90E00E94A2
:1004100018040C943B07089540E060E081E00E94DE
:10042000B00541E060E081E00C94EB0560E081E024
:100430000E942606982F81E0911180E0089541E006
:1004400067E081E00E94B00540E067E081E00C9445
:10045000EB0541E067E081E00C94EB0540E067E0EC
:1004600081E00C94EB0567E081E00E94260641E004
:10047000811140E067E081E00C94EB05CF93C82F39
:1004800040E062E082E00E94EB05C4FB442740F9B3
:1004900064E082E00E94EB05C5FB442740F965E07B
:1004A00082E00E94EB05C6FB442740F966E082E04B
:1004B0000E94EB05C7FB442740F967E082E00E94F9
:1004C000EB0541E063E082E00E94EB058FEC97E0F2
:1004D0000197F1F700C0000040E063E082E00E9475
:1004E000EB054C2F417064E082E00E94EB05C1FBFC
:1004F000442740F965E082E00E94EB05C2FB4427F7
:1005000040F966E082E00E94EB05C3FB442740F916
:1005100067E082E00E94EB0541E063E082E00E9438
:10052000EB058FEC97E00197F1F700C0000040E089
:1005300063E082E0CF910C94EB05CF93C82F61303C
:1005400020F009F45FC0CF91089541E062E082E0BD
:100550000E94EB05C4FB442740F964E082E00E945E
:10056000EB05C5FB442740F965E082E00E94EB05FE
:10057000C6FB442740F966E082E00E94EB05C7FB1A
:10058000442740F967E082E00E94EB0541E063E028
:1005900082E00E94EB058FEC97E00197F1F700C035
:1005A000000040E063E082E00E94EB054C2F4170C8
:1005B00064E082E00E94EB05C1FB442740F965E05E
:1005C00082E00E94EB05C2FB442740F966E082E02E
:1005D0000E94EB05C3FB442740F967E082E00E94DC
:1005E000EB0541E063E082E00E94EB058FEC97E0D1
:1005F0000197F1F700C0000040E063E082E0CF9196
:100600000C94EB0541E062E082E00E94EB056C2F68
:1006100082E00E946606E5CFCF93DF930F92CDB7BD
:10062000DEB78983613028F049F00F90DF91CF91D8
:1006300008950F90DF91CF910C943E0240E062E06C
:1006400082E00E94EB05698182E00E94660641E03B
:1006500063E082E00E94EB058FEC97E00197F1F7F1
:1006600000C0000040E063E082E00F90DF91CF9196
:100670000C94EB05813018F009F446C0089560EF42
:1006800082E00E94560641E062E082E00E94B005EE
:1006900041E063E082E00E94B0052FEB8AED90E03C
:1006A000215080409040E1F700C0000082E00E94AD
:1006B0003E028FE99FE00197F1F700C0000088E259
:1006C0000E943E028FEC97E00197F1F700C0000016
:1006D0008CE00E943E028FEC97E00197F1F700C09A
:1006E000000081E00E943E028FE99FE00197F1F750
:1006F00000C0000086E00E943E028FEC97E0019768
:10070000F1F700C0000008956FEF82E00E945606E6
:1007100041E062E082E00E94B00541E063E082E0F7
:100720000E94B0059FEB2AED80E091502040804070
:10073000E1F700C0000040E062E082E00E94EB05CB
:1007400068E382E00E94660641E063E082E00E9486
:10075000EB058FEC97E00197F1F700C0000040E057
:1007600063E082E00E94EB058FEC97E00197F1F7E0
:1007700000C0000040E062E082E00E94EB056EE015
:1007800082E00E94660641E063E082E00E94EB05A1
:100790008FEC97E00197F1F700C0000040E063E0C4
:1007A00082E00E94EB058FEC97E00197F1F700C023
:1007B000000040E062E082E00E94EB0561E082E040
:1007C0000E94660641E063E082E00E94EB058FEC48
:1007D00097E00197F1F700C0000040E063E082E09D
:1007E0000E94EB058FE99FE00197F1F700C0000040
:1007F00040E062E082E00E94EB0566E082E00E9459
:10080000660641E063E082E00E94EB058FEC97E032
:100810000197F1F700C0000040E063E082E00E9431
:10082000EB058FEC97E00197F1F700C00000089509
:100830000F931F93CF93DF9300D0CDB7DEB78C011A
:100840006983FC018081811571F01A8269810E949F
:100850009D02FA81FF5FFA83F8018A81E80FF11D9A
:1008600080818111F3CF0F900F90DF91CF911F9175
:100870000F910895CF93DF930F92CDB7DEB78130FC
:1008800060F051F080E88983413058F489810F90FD
:10089000DF91CF910C943E02605C606869834130C7
:1008A000A8F321F00F90DF91CF91089540E062E02E
:1008B00082E00E94EB05698182E00E94660641E0C9
:1008C00063E082E00E94EB058FEC97E00197F1F77F
:1008D00000C0000040E063E082E00F90DF91CF9124
:1008E0000C94EB05EF92FF920F931F93CF93DF933E
:1008F000CDB7DEB72B970FB6F894DEBF0FBECDBFD6
:100900006B878115E1F130E08E010F5F1F4F5DECC9
:10091000432F3F5FF801E40FF11D859F912D1124B6
:10092000969596959695292F220F220F290F220F23
:10093000682F621B262F205D2083282F892F2A30C5
:1009400038F747FD0FC078018FEFE81AF80AE40E78
:10095000F11C6B85F70182917F010E949D02E016D8
:10096000F106B9F72B960FB6F894DEBF0FBECDBFD8
:10097000DF91CF911F910F91FF90EF90089580E349
:100980002B960FB6F894DEBF0FBECDBFDF91CF918F
:100990001F910F91FF90EF900C949D0241E066E053
:1009A00081E00E94B00541E062E081E00E94B00574
:1009B00041E061E081E00C94B0058230A1F190F457
:1009C000811509F43FC040E066E081E00E94EB053C
:1009D00041E062E081E00E94EB0540E061E081E0FF
:1009E0000C94EB058330C1F440E066E081E00E94A6
:1009F000EB0540E062E081E00E94EB0588B392E005
:100A0000892788BB2FEF84E39CE0215080409040F1
:100A1000E1F700C00000089540E066E081E00E9438
:100A2000EB0540E0D6CF40E066E081E00E94EB05B8
:100A300040E062E081E00E94EB0541E061E081E09E
:100A40000C94EB0541E0E9CF40E060E080E00E94DB
:100A5000B00581E00E94700580E00C94920580E072
:100A60000E949A0580E00E949F050E94A8059C01B3
:100A7000A8E8B3E10E94B509672F782F892F90E08D
:100A80008695779567958695779567952AE030E006
:100A900040E050E00E94C409822F089540E061E0E8
:100AA00080E00E94B00581E00E94700580E00C9417
:100AB000920581E00E949A0580E00E949F050E94B5
:100AC000A8059C01A8E8B3E10E94B509A92F982FB9
:100AD000872FA69597958795A695979587950895BD
:100AE0008130A1F0823051F0811102C03E983F98D0
:100AF00086B1887F866086B9379A08953E9A3F9A74
:100B000086B1887F866086B9379A08953E9A3F9865
:100B100086B1887F866086B9379A0895379A089596
:100B200037980895813010F43D98089509F008959C
:100B30003D9A089597B1907E892B87B908958111C8
:100B400001C0369A089596B1987F892B86B9089589
:100B5000369A349BFECF349A84B125B1922F0895F2
:100B6000843020F4683010F4423008F0089521E019
:100B700001C0220F6A95EAF7413079F02095823062
:100B8000B1F0833031F08130B1F08AB382238ABB77
:100B9000089581B3822381BB08958230C1F08330F0
:100BA00091F0813061F08AB3822B8ABB089584B3BF
:100BB000822384BB089587B3822387BB089587B3BC
:100BC000822B87BB089581B3822B81BB089584B3A8
:100BD000822B84BB0895843020F4683010F44230B6
:100BE00008F0089521E001C0220F6A95EAF741302C
:100BF00079F020958230B1F0833031F08130B1F05E
:100C00008BB382238BBB089582B3822382BB08956A
:100C10008230C1F0833091F0813061F08BB3822B50
:100C20008BBB089585B3822385BB089588B3822347
:100C300088BB089588B3822B88BB089582B3822B2A
:100C400082BB089585B3822B85BB0895843088F4D8
:100C5000683078F4823009F18330B1F0813059F096
:100C600089B390E002C0959587956A95E2F7817007
:100C7000089580E0089586B390E002C09595879529
:100C80006A95E2F78170089580B390E002C095956F
:100C900087956A95E2F78170089583B390E002C06A
:100CA000959587956A95E2F781700895843048F4A8
:100CB000823051F0833021F0813021F06ABB0895F9
:100CC00061BB089567BB089564BB0895843048F400
:100CD000823051F0833021F0813021F06BBB0895D8
:100CE00062BB089568BB089565BB0895843040F4E5
:100CF000823051F0833051F0813021F089B3089572
:100D000080E0089586B3089583B3089580B308956D
:100D10008330B1F0843019F0853009F108956430E2
:100D200069F1653009F443C0663009F447C06730A3
:100D3000A9F785B7846085BF85B7886085BF0895AA
:100D4000643019F1653099F0663031F1673031F770
:100D500085B7816085BF85B7826085BF089566309D
:100D600011F16730D9F684B7806484BF089585B7E0
:100D7000816085BF85B78D7F85BF089585B78B7FDF
:100D800085BF85B7877F85BF089585B78E7F85BF6F
:100D900085B78D7F85BF089585B78E7F85BF85B761
:100DA000826085BF089584B78F7B84BF089585B71F
:100DB000846085BF85B7877F85BF089585B78B7FA2
:100DC00085BF85B7886085BF0895833049F084303A
:100DD00019F0853049F008958BB780688BBF08956E
:100DE0008BB780648BBF08958BB780628BBF0895EB
:100DF000833049F0843019F0853049F008958BB77D
:100E00008F778BBF08958BB78F7B8BBF08958BB780
:100E10008F7D8BBF0895009721F080933E019093C2
:100E20003F0108951F920F920FB60F9211242F9336
:100E30003F934F935F936F937F938F939F93AF9362
:100E4000BF93EF93FF93E0913E01F0913F01309704
:100E500009F00995FF91EF91BF91AF919F918F910B
:100E60007F916F915F914F913F912F910F900FBEA6
:100E70000F901F9018958FB780688FBF08958FB718
:100E80008F778FBF0895613058F483B78F7B83BF0E
:100E900083B7877F83BF72BF89B7816089BF089599
:100EA00009F0089593B79F7B93BF93B7986093BF62
:100EB0008CBF89B7826089BF0895811521F093B7EF
:100EC000987F892B83BF089583B7887F83BF089558
:100ED00082BF08958CBF0895813040F4611571057B
:100EE00031F06093420170934301089509F0089531
:100EF00061157105E1F3609340017093410108951C
:100F00001F920F920FB60F9211242F933F934F937E
:100F10005F936F937F938F939F93AF93BF93EF9361
:100F2000FF93E0914001F0914101309709F009955C
:100F3000FF91EF91BF91AF919F918F917F916F91B1
:100F40005F914F913F912F910F900FBE0F901F9087
:100F500018951F920F920FB60F9211242F933F9363
:100F60004F935F936F937F938F939F93AF93BF93B1
:100F7000EF93FF93E0914201F0914301309709F024
:100F80000995FF91EF91BF91AF919F918F917F91C3
:100F90006F915F914F913F912F910F900FBE0F90E6
:100FA0001F901895EF92FF920F931F93CF93DF93AB
:100FB000CDB7DEB72B970FB6F894DEBF0FBECDBF0F
:100FC000BE2DE982AF2DFA82E02F0B83912F1C8377
:100FD000F22F2D833E834F8358876987172F7A8797
:100FE000082F8B874E815F8168857985E092440167
:100FF000F0924501E0934601909347012093480108
:101000004093490150934A0160934B0170934C0106
:1010100010934D0180934E0180ECB13009F080E8CF
:10102000E13009F47CC0E23009F460C0A13009F479
:1010300061C0913068F059F0923009F47DC093306E
:1010400009F472C0943029F48660529A02C082601A
:10105000529880BDF13008F03FC05998440F551F99
:10106000661F771F440F551F661F771F9A01AB013C
:10107000220F331F441F551F220F331F441F551FBC
:1010800060E072E18AE790E00E94C40921503109D2
:10109000922F832F99B980BD579856985598115023
:1010A000173048F4E12FF0E0E251F64F0C94E609D6
:1010B000569A579A559A013098F4549A53982B9609
:1010C0000FB6F894DEBF0FBECDBFDF91CF911F9159
:1010D0000F91FF90EF90089579F080E090E0DACFE3
:1010E00001F1023061F7549A539AE9CF8063A1303D
:1010F00009F09FCF88609DCF599A9A01AB01220FCA
:10110000331F441F551F220F331F441F551F220F2B
:10111000331F441F551FB4CF579A569ACCCF8062C5
:1011200085CF539A5498CBCF8660529892CF579AD6
:10113000C2CF569A559ABFCF846052988ACF9C01ED
:101140005D9BFECF80914701843011F02CB908954A
:10115000509830FFFBCF509A2CB908955F9BFECF7B
:1011600080914701843009F48AB18CB18CB190E050
:101170000895DC019C91911581F020E08091470158
:101180005D9BFECF843009F450989CB92F5FFD0120
:10119000E20FF11D90819111F3CF0895DC01892BAD
:1011A000D9F05F9BFECF809147018430B1F09CB1B4
:1011B0009CB19C936917B9F090E09F5F5F9BFECF55
:1011C000843009F42AB12CB12CB1FD01E90FF11DD5
:1011D00020836213F2CF108208959AB19CB19CB122
:1011E0009C936913E9CFFD01108208956115710583
:1011F00079F0FC01680F791F9091470181915D9B07
:10120000FECF943009F450988CB9E617F707B1F780
:101210000895549A0895539A0895549808955398A8
:1012200008950895579A0895569A0895559A0895DD
:10123000579808955698089555980895009721F065
:1012400080935301909354010895009721F0809367
:101250005101909352010895009721F080934F011E
:101260009093500108951F920F920FB60F92112480
:101270002F933F934F935F936F937F938F939F939E
:10128000AF93BF93EF93FF93E0915301F09154011B
:10129000309719F080E090E00995FF91EF91BF91B0
:1012A000AF919F918F917F916F915F914F913F91FE
:1012B0002F910F900FBE0F901F9018951F920F92B5
:1012C0000FB60F9211242F933F934F935F936F9319
:1012D0007F938F939F93AF93BF93EF93FF93E0918F
:1012E0005101F0915201309709F00995FF91EF916A
:1012F000BF91AF919F918F917F916F915F914F912E
:101300003F912F910F900FBE0F901F9018951F9235
:101310000F920FB60F9211242F933F934F935F9329
:101320006F937F938F939F93AF93BF93EF93FF93AD
:10133000E0914F01F0915001309709F00995FF912C
:10134000EF91BF91AF919F918F917F916F915F913D
:101350004F913F912F910F900FBE0F901F901895B6
:101360000E94D7010E94D600FFCFA29FB001B39F79
:10137000C001A39F700D811D1124911DB29F700D9E
:10138000811D1124911D0895A1E21A2EAA1BBB1BD9
:10139000FD010DC0AA1FBB1FEE1FFF1FA217B30741
:1013A000E407F50720F0A21BB30BE40BF50B661F57
:1013B000771F881F991F1A9469F76095709580951B
:1013C00090959B01AC01BD01CF010895EE0FFF1F69
:1013D0000590F491E02D0994F894FFCF97088D08BB
:0A13E0005A088C08590899085808AB
:1013EA00000000030080250000000200B000212157
:1013FA00454D455247454E4359212100737973742F
:10140A00656D20696E697469616C697A65640D0A33
:10141A0000726561647920746F206D6F6E69746FF4
:10142A00720D0A0074656D7020203A2000736D6F8A
:10143A006B65203A20005741524E494E47204C4591
:10144A0056454C20310D0A004649524520414C412F
:10145A00524D0D0A00555345522041434B4E4F57AA
:10146A004C45444745440D0A0053595354454D20B1
:10147A0052455345540D0A00454D455247454E4382
:10148A00590D0A00202020202020202000454D450B
:10149A005247454E435900707265737320746865EC
:1014AA0020627574746F6E005359533A696E697489
:0614BA0020646F6E650066
:00000001FF
